:100000000C9473020C9490020C9490020C94900245
:100010000C9490020C9490020C9490020C94900218
:100020000C9490020C9490020C945E210C9430225B
:100030000C9423180C9490020C9490020C9490024F
:100040000C9490020C9490020C9490020C949002E8
:100050000C9490020C9470180C9490020C949002E2
:100060000C9490020C9490020C9490020C949002C8
:100070000C9490020C9490020C9490020C949002B8
:100080000C9490020C9490020C9490020C949002A8
:100090000C9490020C9490020C9490020C94900298
:1000A0000C9490020C9490020C949002560D560DF4
:1000B000880D880DD50DF30D4B0F4B0F350ECA0E65
:1000C000DB0EDB0E3B0F4B0F4B0F440FEE0FEE0F13
:1000D00000100010F70F001000100010EE0FEE0FD0
:1000E000FC0F00100010FC0F9D22C422BC23C42270
:1000F000BC2310233323BC238A23992329003A00ED
:100100003B003C003D003E003F00400041004200FB
:100110004300440045004C0035001E001F00200035
:1001200021002200230024002500260027002D00A6
:100130002E002A0031002B0014001A0008001500C0
:1001400017001C0018000C00120013002F003000D4
:100150005300390004001600070009000A000B00D4
:100160000D000E000F003300340028000254E1009F
:100170001D001B00060019000500110010003600CC
:1001800037003800E5004600E300E0004A004B007D
:100190004D002C00000000002C00500052004F00C9
:1001A000E400E6000000000000004E000000E20055
:1001B000E100E5002A0000005100000000000000FE
:1001C0000100010001000100010001000100010027
:1001D0000100010001000100010001000080018018
:1001E00002805F00600061000380010001000100E7
:1001F00001000100010001000100010004805C0019
:100200005D005E00058001000100010001000100A9
:100210000100010001000100560059005A005B0076
:100220005400010001000100010001000100010073
:1002300001000100570006806300620055000100C4
:1002400001000100010001000100010001000100A6
:100250000100010001000100000000000100010098
:100260000100010001000100000000000000010089
:1002700000002A00580001000100000001000000F9
:10028000000000004C0045004400430042004100D3
:100290004000010001000100010047004800490042
:1002A0002A002E002D002700260025002400010032
:1002B00001000100010001000100010030002F00D9
:1002C000130012000C0018001C00010001000100C6
:1002D00001000100010001002800340033000F007C
:1002E0000E000D000B0001000100010001000100E3
:1002F0000100010001000100380037003600100045
:100300001100010001000100010001000100005C7A
:10031000CA5CC95C500052004F00C35C0000000082
:10032000AE00AC00A900AB006500010000000000B9
:10033000000051000000C55CC75CAF00A8000000D1
:10034000AA000000000000002300000024000000BC
:100350002800000029000000250000005E000000C9
:100360002C0000000403300000000E036700720040
:10037000690064003800380000001C037100690047
:1003800061006E006C0061006E0067002000630079
:10039000680065006E0000000403090409023B00C8
:1003A000020100A0FA090400000103010100092173
:1003B000110100012240000705810308000A090419
:1003C0000100010300000009211101000122BC000D
:1003D0000705820320000A1201100100000008ED49
:1003E000FE010001000102030105010902A10185CE
:1003F000020901A10005091901290515002501952A
:100400000575018102950175038101050109300916
:10041000311581257F9502750881060938158125DA
:100420007F950175088106050C0A38021581257F24
:10043000950175088106C0C005010980A1018503E9
:1004400019012AB700150126B70095017510810022
:10045000C0050C0901A101850419012AA00215019A
:1004600026A002950175108100C005010906A101B1
:100470008505050719E029E715002501950875018F
:1004800081020507190029EF1500250195F0750176
:10049000810205081901290595057501910295014B
:1004A00075039101C005010906A101050719E0299D
:1004B000E7150025019508750181029501750881F0
:1004C000010507190029FF150026FF00950675088C
:1004D000810005081901290595057501910295010D
:1004E00075039101C00011241FBECFEFDAE0DEBF1B
:1004F000CDBF11E0A0E0B1E0E4ECF8E402C005906B
:100500000D92AC38B107D9F722E0ACE8B1E001C0F8
:100510001D92A83BB207E1F70E948D1E0C94602447
:100520000C94000081159C4559F4FB0182818823BD
:1005300039F00E94A81591E0823219F090E001C0D4
:1005400091E0892F089580FF04C081E00E94321459
:1005500003C081E00E94531481E008959C013A9504
:1005600021153F4138F5DC01AA27B270AC014427C0
:1005700054709C012227387094FF0FC090FF02C076
:1005800080E101C080E0AB2B09F08062452B09F0CF
:100590008064232B69F080680BC0892F8170AB2B9E
:1005A00009F08260452B09F08460232B09F08860F4
:1005B000FB0109940895CF93DF93EC01805E9109CC
:1005C000089710F0209719F466E17DE002C064EB13
:1005D0007FE0CE010E94AE028C2FDF91CF910C9470
:1005E000F10BCF93DF93EC010E949B0CCE01805E58
:1005F0009109089710F0209719F46DE17DE002C091
:100600006BEB7FE0CE01DF91CF910C94AE02CF93E4
:10061000DF93EC010E94DB02CE01DF91CF910C94BD
:10062000F10281E008950C94920208950C94150350
:100630001F93CF93DF9300D000D01F92CDB7DEB7CA
:1006400049835A836B833091A80189819A81311142
:1006500014C0662359F0222349F00E942715182F51
:10066000682F89819A810E94D01403C00E94FB14D4
:10067000182F69817A81812F04C00E942715698112
:100680007A810F900F900F900F900F90DF91CF9184
:100690001F910C94DE03FC01262F40815181628161
:1006A000738184810C941803CF93DF93EC0160E095
:1006B0000E944B03BE01DF91CF910C9416030E9460
:1006C0005C16811102C00E9406170E94AA070C94B2
:1006D000FD050C94F905282F2F7041F0822F90E032
:1006E0002A3010F44D9608950697089587E290E019
:1006F000089508950C9479030C94A302CF93C82F06
:100700000E947A038C2F0E947C03CF910895089554
:100710000E94DC0F0E9487032FEF84E39CE02150AE
:1007200080409040E1F700C000000C9496180F93B1
:100730001F93CF93DF93EC0161E00E944B038C0188
:10074000BE010E941303882379F1BE01C8010E94F3
:100750005708882349F1BE01C8010E94E90888238F
:1007600019F1BE01C8010E942A098823E9F0BE01DF
:10077000C8010E94550A8823B9F08A81882369F04C
:1007800001158CE5180731F00E3D1C4531F40E942F
:1007900006170AC00E94880307C0CE01DF91CF91DF
:1007A0001F910F910C94110380E0DF91CF911F9165
:1007B0000F91089580E090E00895089522E6829FC9
:1007C000C0011124FC012EE0729FE00DF11D1124E7
:1007D000E60FF11DEE0FFF1FE450FF4F859194913E
:1007E0000895880F991FFC01EC59FC4F8591949155
:1007F0000895CF93DF930E94DE030E941105EC0160
:100800008115904508F041C0C11580E4D80708F073
:10081000D1C0C83ED10510F5C03ED10508F0FDC0DD
:10082000C83AD10578F4C53AD10508F0A2C0C13064
:10083000D10509F4F2C008F4EEC0C430D10508F0C7
:10084000ECC0E9C0CF3BD10508F49BC0C03CD1054A
:1008500008F4E1C0CE01805C91099EC0C11590E210
:10086000D90758F4C11521E0D20708F0D6C0C03F1F
:10087000D10508F4D0C0D065D0C0C11580E3D80739
:1008800008F08EC0CE019F7087C0C11595E5D907CD
:1008900008F043C0C11524E5D20708F0A2C0C11575
:1008A00082E5D80708F5C11591E5D90708F085C09C
:1008B000CE0174E0969587957A95E1F783709C2F29
:1008C000937021E030E002C0220F331F9A95E2F7C7
:1008D0003C68382BCF70C695C69580E2C89FE00172
:1008E0001124C22BD32B99C09E01237033278C2F48
:1008F00086958695C115D34508F064C0C1E0D0E067
:1009000002C0CC0FDD1F2A95E2F720E2829FC001D2
:100910001124C82BD92BDC6880C0C11529E5D2076A
:10092000A0F4C11588E5D80708F060C0C11596E5A8
:10093000D90708F070C08C2F0E94A5058F71C82FB1
:10094000D0E0DC2FCC27D06268C0C1152AE5D207E1
:1009500008F451C0CE0190568115904208F05BC05A
:100960008D2F8F710E94A505DD27D0628F71D82B46
:1009700054C0C55AD0E0CD5BDE4FC881D0E0D06412
:100980004CC0C85AD0E0CC0FDD1FCB5EDE4F0990C3
:10099000D881C02DD46441C00E94F103EC013DC058
:1009A000CE019927D3FF03C0EC01D86C36C0EC010F
:1009B000D06C33C0DF70D06A30C0DC2FCC27C16F61
:1009C000D06A2BC0C1E0D0E002C0CC0FDD1F2A9559
:1009D000E2F720E2829FC0011124C82BD92BDA68EC
:1009E0001CC0DC2FCC27C46FD06A17C0DC2FCC27EB
:1009F000C06FD06A12C08C2F8F700E94A50594E042
:100A0000D695C7959A95E1F7CF70D0E0DC2FCC272B
:100A1000D069C82B02C0C0E0D0E0CE01DF91CF91F9
:100A200008958238910569F1B0F48133910509F494
:100A30006DC048F48932910509F463C08A3291058A
:100A400009F469C008958533910509F455C08933C7
:100A50009105B9F00895833E910569F138F4803E1F
:100A60009105B1F0823E910509F10895863E910508
:100A7000A9F1873E9105B9F1843E910509F064C062
:100A800023C02091A90220FD4FC021FD4DC0089533
:100A90008091A90280FD44C08091AA0280FF44C0D9
:100AA0008091A90284FD42C083EE4DC08091A902CD
:100AB00082FF38C0F5CF8091A90282FD33C08091BA
:100AC000AA0280FD31C0ECCF8091AA0281FF32C022
:100AD0008091A90284FD2AC087EE35C08091A902C9
:100AE00083FF26C0F5CF8091A90283FD21C08091AC
:100AF000AA0281FD1FC0ECCF8091A90285FD1CC018
:100B00001DC08091A90285FD19C016C08091A9025F
:100B100086FD16C017C08091A90286FD13C010C0C3
:100B200089E311C082EE0FC080EE0DC080E00BC0E3
:100B300086EE09C084EE07C089E205C085E303C0E4
:100B40008AE201C081E390E008959091A90292FFAA
:100B50000DC0282F2871283019F4877F846006C0C3
:100B6000282F2471243011F48B7F886093FF0DC0EF
:100B7000282F2871283119F4877E846106C0282F18
:100B80002471243111F48B7E88612091AA0220FF08
:100B90000DC0382F3871383019F4877F816006C056
:100BA000382F3171313011F48E7F886021FF0DC0F4
:100BB000282F2871283119F4877E816106C0282FDB
:100BC0002171213111F48E7E886194FD877E089514
:100BD000E82FF0E0EE0FFF1FE057FD4F808191817D
:100BE0000895089580EA8A95F1F7089508950C9480
:100BF000F6050C94F7050C94F6050C94FB05CF93C1
:100C0000DF93A4E5B1E04BE551E061E070E08D9148
:100C1000E82FE295EF70F0E021A18F70EB0102C0A8
:100C2000CC0FDD1F8A95E2F7CE019C2F9095922381
:100C300091A392A1892B82A34A175B0741F7A6E4EF
:100C4000B1E044E551E061E070E08D91E82FE2957C
:100C5000EF70F0E021A18F70EB0102C0CC0FDD1F1F
:100C60008A95E2F7CE019C2F9095922391A392A1B1
:100C7000892B82A34A175B0741F7E2E8F2E0A0E97B
:100C8000B2E080E992E0119211921D921D928E17AE
:100C90009F07C9F787E00E94EE06DF91CF910C9481
:100CA0005F032F923F924F925F926F927F928F924B
:100CB0009F92AF92BF92CF92DF92EF92FF920F93EB
:100CC0001F93CF93DF9384E5C82E81E0D82E02E8EE
:100CD00012E090E9492E92E0592E312C8824839419
:100CE000912C5801D8016D907C9011971D921C9207
:100CF000F60181916F01C82FC295CF70D0E099A104
:100D00008F70740101C0EE0C8A95EAF7892F8E2945
:100D100089A38AA12E2C209482218AA30E94F20505
:100D2000E6E4F1E020E030E06191A62FA295AF70FB
:100D3000B0E090968C91D8014D915C9190E06F70ED
:100D400002C0959587956A95E2F780FD08C0C401B9
:100D5000022E02C0880F991F0A94E2F702C080E0B9
:100D600090E0482B592BD8014D935C932F5F3F4F58
:100D70002E303105C9F689A1282229A28AA1E82AA4
:100D8000EAA20E5F1F4F81E0F50120813181261517
:100D9000370509F480E0382A4016510609F0A1CF42
:100DA000232D47E060E972E082E892E00E94EF06BE
:100DB0000E946903832DDF91CF911F910F91FF90C6
:100DC000EF90DF90CF90BF90AF909F908F907F90EB
:100DD0006F905F904F903F902F9008950895FF92ED
:100DE0000F931F93CF93DF93F82E092F162FD72F32
:100DF000C42F222349F081E080938E010E94551870
:100E000090938D0180938C0180918E018823D9F07D
:100E100080918C0190918D010E946118499798F002
:100E2000EF2DF02FA12FBD2F80E090E04C2F50E050
:100E30008417950734F4219131912D933D930196B8
:100E4000F7CF10928E01DF91CF911F910F91FF90FC
:100E500008951F93CF93DF93811520EC9207B8F08C
:100E6000EC01D05C8091A202827211E009F410E0E2
:100E70000E948B0A86958170181729F0CC0FCD2F10
:100E8000CC1FDD0BD195CE018F77992701C09058EB
:100E9000DF91CF911F910895CF92DF92EF92FF9251
:100EA00097FF52C0FB012281222309F44DC07C012F
:100EB0000E94C307C7010E942907880F991F880F46
:100EC000991FFC01E85BFC4FC590D590E590F4902C
:100ED0000E94BA07C114D104F1E1EF06F10440F415
:100EE000C114D10491E0E906F10440F1823019F413
:100EF0000E94040829C0811121C0E1E0EE1AF10826
:100F0000D701C60188279C7FAF70BB272AE0B69522
:100F1000A795979587952A95D1F7BC01CD01785271
:100F20008F4F9F4F0E941808F3E0DF22EE24FF242A
:100F3000C701B60174528F4F9F4F02C0C701B6015F
:100F40000E9418080E94ED0781E0FF90EF90DF906B
:100F5000CF9008958CE090E00E941E2490E0A0E0E5
:100F6000B0E080939E0290939F02A093A002B09362
:100F7000A102089580919E02089560919E028CE0E6
:100F800090E00C942C240E94A8158093A2020E9449
:100F9000BB1580919E02813071F048F0823081F063
:100FA0008430A1F486EE0E94030D88E10DC082EE2C
:100FB0000E94F10B0BC088E193E00E94070306C07A
:100FC00082EE0E94F10B87E50E94030D8FE39CE9FE
:100FD0000197F1F700C00000089580919E028130D2
:100FE00039F040F0823031F0843051F488E206C0AC
:100FF0008CE204C082EE0E949B0C02C00E94030D92
:101000008091A2020C94B81580919E02813029F043
:1010100040F0823031F0843039F489E20E94030DCF
:1010200003C082EE0E949B0C8091A2020C94B81522
:10103000BF92CF92DF92EF92FF920F931F93CF93C5
:10104000DF936B017C01C7E0D0E00CE110E0BB2432
:10105000B394D701C601002E04C0B695A795979505
:1010600087950A94D2F78F7039F4B1100AC00E94A4
:101070006B030E94030D05C00E946B030E94030DC9
:10108000B12C219704501109CF3F8FEFD80729F0D9
:10109000C430D105F4F6B12CDCCFDF91CF911F9194
:1010A0000F91FF90EF90DF90CF90BF9008950F9336
:1010B0001F93CF93DF93EC018B01FB018281882387
:1010C00061F00E94A815CE01815E9C458530910596
:1010D00020F480939E020E94BD07B801CE01DF91EB
:1010E000CF911F910F910C944C070F931F93CF93A7
:1010F000DF93C62FD42F122FFC0182818823C9F0E1
:10110000609391010E9455189093900180938F01F4
:1011100080E28C0F883008F057C0C77081E001C0B2
:10112000880FCA95EAF7DF91CF911F910F910C9428
:10113000160D80919101681330C080918F019091BC
:1011400090010E946118883C910538F500E20D0F6E
:10115000CD17B9F080E28C0F883040F4C77081E081
:1011600001C0880FCA95EAF70E941D0D083028F5C6
:1011700081E09D2F977001C0880F9A95EAF70E9431
:10118000160D812F0E94030D0830F0F4D77081E016
:1011900001C0880FDA95EAF70AC080E28C0F883028
:1011A00098F4C77081E001C0880FCA95EAF7DF9113
:1011B000CF911F910F910C941D0D812FDF91CF9135
:1011C0001F910F910C94030DDF91CF911F910F91FF
:1011D00008959C01CB01233F4CE53407F9F078F4E6
:1011E000283DFCE53F07B9F0293D4CE5340711F1F6
:1011F000273D3C4531F526E241EE61EE1EC0253F1C
:10120000FCE53F0799F070F0263F3C45D1F427E21A
:1012100045EE66EE12C027E245EE0EC026E241EE34
:1012200060EE0BC027E245EE64EE07C026E241EE19
:1012300062EE03C028E241E065EE0E94750880E09E
:101240000895FC018281882319F01092910108957C
:1012500081E00895CF93DF93EC01FB018281882325
:1012600009F41FC1C230FCE5DF0708F41BC1C63119
:101270009CE5D90738F09E012A5F3C4529303105AD
:1012800008F010C10E9479169093AA028093A902D7
:10129000C031ECE5DE0709F4C3C008F041C0C83036
:1012A0008CE5D80709F49AC0F0F4C430ECE5DE0709
:1012B00009F487C068F4C2308CE5D80709F477C018
:1012C000C330DC4509F0E3C08091A902826076C09A
:1012D000C630ECE5DE0709F46EC008F07BC08091F3
:1012E000A90288606BC0CC308CE5D80709F485C0B2
:1012F00068F4CA30ECE5DE0709F474C008F079C080
:101300000E94DC0F8091A902806858C0CE308CE525
:10131000D80709F476C008F07FC08091A9028BC07D
:10132000CB3FECE5DE0709F44FC018F5C3318CE57F
:10133000D80709F47DC078F4C131ECE5DE0709F483
:1013400073C0C231DC4509F0A2C00E94DC0F80915D
:10135000A9028F7733C0C5318CE5D80709F472C074
:1013600008F486C0CA3FDC4509F091C08091AA020A
:101370003EC0CF3FFCE5DF0709F45FC058F4CD3F26
:101380009CE5D90709F444C008F43FC08091AA0243
:1013900082602DC0C130FDE5DF0709F475C008F497
:1013A0005DC0C230DD4509F072C080E06EC0809142
:1013B000A902816003C08091A90280618093A90283
:1013C00066C08091A90211C08091AA0282608093B8
:1013D000AA025DC08091A9028062F0CF8091A9022B
:1013E0008064ECCF8091A90288608460E7CF81603F
:1013F000EECF8091A9028E7FE1CF8091A9028D7FEF
:10140000DDCF8091A902877FD9CF8091AA0218C031
:101410008091AA028D7FDBCF8091A9028F7ECECFF3
:101420008091A9028F7DCACF8091A9028F7BC6CF00
:101430008091A902877F8B7FC1CF8091AA028D7F87
:101440008E7FC5CF8091A90282FB222720F991E0EF
:10145000922790FB82F990FB83F9B0CF8091AA028A
:10146000982F909591708E7F892B90FB81F9AFCF4B
:101470000E94DC0F8091A90287FB222720F991E0CE
:10148000922790FB87F99ACF81E00E9408178091FC
:10149000A9029091AA020E948A160E94DC0F80E0A5
:1014A00001C081E0DF91CF910895CF93DF93863122
:1014B0009C4541F5EB010E94A815982F8A81209147
:1014C000000130910101882379F09A7A81E009F4D2
:1014D00080E080939201911102C069E201C065E34E
:1014E000C9010E94A3170AC080919201811102C014
:1014F00069E201C065E3C9010E94AE170E94F915B7
:1015000080E001C081E0DF91CF9108959093980130
:10151000809397010895E0919701F0919801309799
:1015200021F00190F081E02D099480E00895E09190
:101530009701F0919801309799F02091140122239E
:1015400059F02091A90227FF07C0DC012C911196C8
:101550002C93119725E02C930280F381E02D0994C0
:101560000895E0919701F0919801309739F022E0C9
:10157000DC012C930480F581E02D099408952091DD
:101580009501309196012817390771F090939601D3
:1015900080939501E0919701F0919801309721F0A7
:1015A0000680F781E02D09940895209193013091F0
:1015B00094012817390771F0909394018093930157
:1015C000E0919701F0919801309721F00084F18526
:1015D000E02D0994089585B7806885BF85B7806838
:1015E00085BF089508950C94F20A0C94F30A0C94A4
:1015F000F20A0C94F20A0E94EB0A0E94F70A0C9479
:10160000F50A81E008950C94010B0E944C180E9489
:10161000FF050E9414190C94F90A7F928F929F92F1
:10162000AF92BF92CF92DF92EF92FF920F931F93F0
:10163000CF93DF93CDB7DEB72A970FB6F894DEBF0E
:101640000FBECDBF0E9451060E94030B811111C035
:101650008FEF89838A831B820E9455188160782FBF
:101660009D838C8349815A816B818D810E94BD0B42
:101670004FC04AE9A42E41E0B42E00E010E0702EE5
:10168000802F0E94E8056C01F501819091905F0127
:10169000882699268114910431F40F5F1F4F07307B
:1016A000110569F7D5CF80914F0281FD0E94F105A8
:1016B00080E0EE24E394F12C94012E213F21232B92
:1016C00009F18E837F82CE20DF2081E0CD2809F4CE
:1016D00080E088870E9455188160782F9A878987D3
:1016E0004E815F8168858A850E94BD0B000F111FA6
:1016F000F801E656FE4F80819181E826F926F182B5
:10170000E08206C08F5FEE0CFF1C8E30A9F6C5CFBD
:101710000E94C81B0E948B0A909199018917C9F0F9
:101720000E948B0A809399012A960FB6F894DEBF27
:101730000FBECDBFDF91CF911F910F91FF90EF9022
:10174000DF90CF90BF90AF909F908F907F900C9440
:101750007E032A960FB6F894DEBF0FBECDBFDF9191
:10176000CF911F910F91FF90EF90DF90CF90BF909E
:10177000AF909F908F907F900895CF93DF93CDB7D8
:10178000DEB72B970FB6F894DEBF0FBECDBF4F83E9
:10179000588769877A878B87DE01119686E0FD017D
:1017A00011928A95E9F785E0FE01379601900D9236
:1017B0008A95E1F749815A816B817C818D819E8177
:1017C0000E9495122B960FB6F894DEBF0FBECDBFC8
:1017D000DF91CF910895FC01808191810E9469156C
:1017E0000895CF93882309F4A4C0C82F8238C1F488
:1017F0000E948B0A81FD9DC069E380910001909158
:1018000001010E94A3170E94F9152FEF81EE94E0C9
:10181000215080409040E1F700C0000069E319C00A
:10182000833801F50E948B0A80FD83C063E58091B7
:101830000001909101010E94A3170E94F9152FEF5A
:1018400081EE94E0215080409040E1F700C000001C
:1018500063E580910001909101010E94AE17CF9144
:101860000C94F9158438C1F40E948B0A82FD61C082
:1018700067E480910001909101010E94A3170E94EA
:10188000F9152FEF81EE94E0215080409040E1F770
:1018900000C0000067E4DDCF8CEF8C0F813AD0F4FC
:1018A0006C2F80910001909101010E9423178823E1
:1018B00049F06C2F80910001909101010E94AE17B8
:1018C0000E94F9156C2F80910001909101010E94F6
:1018D000A317C5CF80E28C0F883048F4C77081E031
:1018E00001C0880FCA95EAF70E94AB15B8CFEBE5A7
:1018F000EC0FE33040F4F0E0E757FE4F808190E0DA
:10190000CF910C94BF0AE8E5EC0FE73150F4F0E01A
:10191000EE0FFF1FE55AFE4F80819181CF910C940D
:10192000D50AC03F30F08C2F0E94D01ACF910C9472
:10193000BD1BCF910895882309F464C0823879F4DF
:101940000E948B0A81FF5EC069E380910001909143
:1019500001010E94A3170E94F91569E310C08338A2
:10196000B1F40E948B0A80FF4DC063E580910001B5
:10197000909101010E94A3170E94F91563E58091DF
:101980000001909101010E94AE170C94F915843862
:1019900079F40E948B0A82FF35C067E480910001D0
:1019A000909101010E94A3170E94F91567E4E7CF07
:1019B0009CEF980F913A10F4682FE1CF90E2980FC6
:1019C000983050F4877091E001C0990F8A95EAF73A
:1019D000892F0E94B115D9CF9BE5980F933020F441
:1019E00080E090E00C94BF0A98E5980F973120F4BE
:1019F00080E090E00C94D50A803F20F00E94381BD4
:101A00000C94BD1B0895CF93C82F0E94F10BC933CE
:101A100049F42FEF87EE93E0215080409040E1F7AA
:101A200000C000008C2FCF910C949B0C882321F0D8
:101A30000E94AB150C94F9150895882321F00E949B
:101A4000B1150C94F9150895CF92DF92EF92FF92A1
:101A50000F931F93CF93DF937C01062FC72FFC01B9
:101A6000158112951F70D281D1110E94CB150E9451
:101A7000A115882379F0DD2369F080E2800F88309A
:101A800048F082E00E9443160E94A11591E0D82EF2
:101A9000D92601C0D12CCC2EC2948FE0C8228C2D27
:101AA00090E0FC01EA5AFF4F0C9404248C2F807FB5
:101AB000CF70882311F0C295C07FDD2399F0CC232D
:101AC00009F4C4C180E2800F883010F0011104C015
:101AD0008C2F0E94AB1503C08C2F0E94BE150E9454
:101AE000F915B4C1802F0E949B0CCC2309F4D3C1FB
:101AF00080E2800F883010F0011104C08C2F0E940A
:101B0000B11503C08C2F0E94C4150E94F915C3C1E2
:101B10008C2F807FCF70803211F0C295C07F002360
:101B200019F00130C9F022C0DD2371F0112341F01A
:101B3000113031F40E94DE158C2B0E94E615ABC1EA
:101B40000E94DE158C2B1DC0112319F0113009F4F1
:101B5000A2C10E94EF1525C0DD2321F0163008F048
:101B60009AC10EC0153008F096C11BC0DD2361F08C
:101B7000112331F0F701858180FF68C18F70858363
:101B80008C2F0E94160D87C1112359F0093309F0DB
:101B90006EC1FFEF27EE83E0F15020408040E1F777
:101BA00064C18C2F0E941D0D76C18C2F8695869561
:101BB000837019F0813061F06EC1DD2321F0802F38
:101BC0009C2F937002C080E090E00E94BF0A6BC11E
:101BD000DD2321F0802F9C2F937002C080E090E0E5
:101BE0000E94D50A60C1DD23F9F0053F51F0063FA0
:101BF00071F0043FA9F48091A3029091A402816046
:101C00000BC08091A3029091A402826005C08091D4
:101C1000A3029091A40284609093A4028093A302F3
:101C2000802F0E94D01A1EC0053F51F0063F71F070
:101C3000043FA9F48091A3029091A4028E7F0BC06F
:101C40008091A3029091A4028D7F05C08091A30290
:101C50009091A4028B7F9093A4028093A302802F83
:101C60000E94381B0E94BD1B1EC18C2F837009F07F
:101C700045C0D11114C1402F429546954770440F7D
:101C8000440F602F6F70862F90E0A0E0B0E0042E2C
:101C900004C0880F991FAA1FBB1F0A94D2F704FF24
:101CA00010C00FE010E020E030E004C0000F111F72
:101CB000221F331F4A95D2F7009510952095309535
:101CC00003C000E010E09801C695C695C370BC0142
:101CD000CD01602B712B822B932BC23049F058F42D
:101CE000C13019F00E94E613DAC00E94D413D7C0A5
:101CF0000E94F813D4C00E94D213D1C0DD2319F082
:101D00008C2F817001C08695882309F4C8C0402FAC
:101D1000429546954770440F440F602F6F70862F91
:101D200090E0A0E0B0E0042E04C0880F991FAA1F25
:101D3000BB1F0A94D2F704FF10C00FE010E020E0B0
:101D400030E004C0000F111F221F331F4A95D2F745
:101D5000009510952095309503C000E010E09801A3
:101D6000C695C695C370BC01CD01602B712B822B2B
:101D7000932BC23049F058F4C13019F00E94AB14D3
:101D80008EC00E9499148BC00E94BD1488C00E940E
:101D90000C1485C0CF70DD2339F08C2F0E943214D3
:101DA000802F0E94160D7BC0802F0E941D0D8C2F4E
:101DB0000E94531474C0023F01F128F4003F41F027
:101DC000013FA1F03FC0033FF9F0043F39F13AC0B1
:101DD000DD2341F0153008F05EC08C2F8F710E941A
:101DE000781459C0163008F056C0F7CFDD2339F00B
:101DF0008C2F8F710E9432144EC0DD23C9F38C2FBB
:101E00008F710E94531447C0DD2329F08C2F8F71EE
:101E10000E941D1440C00E9418143DC0DD2349F0EB
:101E2000CF718C2F0E94321463E08C2F0E942E16EB
:101E300032C081E00E944316123068F182E00E94B5
:101E4000431629C0DD2331F0112391F2802F0E9427
:101E5000F10B21C0112399F2093349F49FEFE7EE0A
:101E6000F3E09150E040F040E1F700C00000802F27
:101E70000E949B0C10C04C2F4F70602FC7010E9416
:101E8000DA030E9443130FC04C2F4F70602FC7011D
:101E90000E94DD0308C088EF8C0D843020F40E947E
:101EA0008B0A0E947E03DD20C9F00E949D1580FDF3
:101EB00015C0F70112820E9497150E943214C701C3
:101EC0000E948F0F0E949715DF91CF911F910F9164
:101ED000FF90EF90DF90CF900C945314DF91CF914F
:101EE0001F910F91FF90EF90DF90CF9008950F9387
:101EF0001F93CF93DF93EC01688179818A810E94DF
:101F000074158C010E94CF140E94C013B801CE0139
:101F10000E94240DDF91CF911F910F910895CF93CF
:101F2000DF93FC019081818123813481232B31F067
:101F30008F3F31F481E09F3F19F403C081E001C07D
:101F400080E080FD0EC0EF01CF010E94970388233F
:101F500041F0CE010E94770FCE01DF91CF910C941A
:101F60005403DF91CF910895882321F00E94BE157C
:101F70000C94F9150895882321F00E94C4150C943F
:101F8000F91508950E94CB150E94DB150E94F915E2
:101F90000E94E71C0E94BD1B80E090E00E94BF0AE7
:101FA00080E090E00C94D50A8091000190910101AD
:101FB0000E94B9170C94C20F0E94BB150C94D40F49
:101FC000E92FE295EF704E2F50E0FA013297EE3094
:101FD000F105B0F4EA59FF4F0C940424803F91F0CE
:101FE00018F4883E68F40EC0843F51F40BC0883E5C
:101FF00048F0813F29F406C093FB882780F90895B3
:1020000080E0089581E008950E9469150E94E00F24
:102010000895CF93DF9300D000D01F92CDB7DEB7E5
:102020000F900F900F900F900F90DF91CF91089528
:10203000CF93DF9300D000D000D0CDB7DEB7269687
:102040000FB6F894DEBF0FBECDBFDF91CF910895DC
:102050001F93CF93DF93C091A90116E08091AA014D
:10206000C81799F0D0E01C9FF0011D9FF00D1124BE
:10207000E555FE4F40815181628173818481958154
:102080000E9418102196C770E9CFDF91CF911F9160
:1020900008954091DB015091DC016091DD01709168
:1020A000DE018091DF019091E0010C9418100F93F4
:1020B0001F93CF93DF938091E00182958F7009F099
:1020C0005DC08091DD01882309F458C08091A90189
:1020D0001091AA016091DB017091DC01C091DE01D9
:1020E000D091DF0191E06F3F09F090E0292F06E0E9
:1020F000811709F443C0209721F07F3F21F030E0A1
:1021000003C031E001C0322F90E030FD34C0089FA1
:10211000F001099FF00D1124DF01A555BE4F119666
:102120003C911197371327C03C91361324C0129667
:102130003C91129731111FC013964D915C911497E9
:102140004C1B5D0B483C5105B0F48091E0018F7051
:1021500080618093E001E055FE4F80818F70806147
:1021600080838BED91E00E948F0FDF91CF911F91C3
:102170000F910C94281001968770BACFDF91CF9100
:102180001F910F9108959F92AF92BF92CF92DF92CD
:10219000EF92FF920F931F93CF93DF93CDB7DEB7EC
:1021A00061970FB6F894DEBF0FBECDBF8C0185E0FE
:1021B000F801DE011D9601900D928A95E1F7F80174
:1021C00040815181E2809091DB016091DC0120919E
:1021D000DE013091DF012115310531F06F3F31F41F
:1021E00081E09F3F19F403C081E001C080E0F82F37
:1021F000F1709F2E80FD46C1F801A380B4808BED65
:10220000C82E81E0D82EF090DD01F501E21BF30B22
:10221000FF2009F4DFC08091E001E83CF10508F0FF
:102220009BC0282F207F09F052C0561313C04913BA
:1022300011C0FE2CE1100EC08F7080618093E00110
:102240000E944910C6010E948F0F8091E001F801A1
:10225000858358C1AB2831F05F3F31F481E04F3FB7
:1022600019F403C081E001C080E080FD03C081E07B
:102270008E2502C080E090E0F82FF170FF2E80FFE5
:102280001CC08091A9012091AA0136E0821709F4AF
:1022900017C190E0389FF001399FF00D1124E555EA
:1022A000FE4F6181561306C06081461303C06281F0
:1022B000E61203C001968770E9CFFE2CEE2009F4E8
:1022C00021C18091E00181608093E0015AC05613E2
:1022D00006C0491304C0E11002C0F8019FC04D8739
:1022E0005E878D859E850E940410882379F1EE20FB
:1022F00069F12091E001822F82958F7090E0029722
:1023000074F08091DB019091DC0198878F831986AE
:10231000BB86AA862C87CE0107960E948F0F86E087
:10232000F801ABEDB1E001900D928A95E1F70E94C2
:1023300057100E9449100DC0561729F14D875E872E
:102340008D859E850E94041081112CC0C8010E94B9
:102350008F0FFF24F394D6C0282F207F69F77A2DA2
:10236000B98AA88A6E2D89890E9409108BED91E0A7
:102370000E948F0F86E0F60111928A95E9F70E947C
:102380004910F12CBFC04913D9CFE110D7CFF801C4
:102390008583C8010E948F0F86E0F60111928A950D
:1023A000E9F7B0C0EE2091F22091E001822F8295F2
:1023B0008F7090E002970CF4B2CF8091DB01909186
:1023C000DC019A8389831B82BD82AC822E83CE017D
:1023D0000196A3CFE83CF10508F047C0FE2CEE20A3
:1023E00009F4B4CF561330C049132EC02091E00138
:1023F00020FD21C0822F82958F70482F50E041151B
:102400005105C9F0F80125834F30510541F08F5F28
:10241000982F9295907F822F8F70892B8583C8018A
:102420000E948F0F86E0F801ABEDB1E001900D92B4
:102430008A95E1F742C086E0F801ABEDB1E001908A
:102440000D928A95E1F75EC04D875E878D859E85EA
:102450000E940410811163CF8091E001816080931C
:10246000E001C8010E948F0F4DC07A2DB98AA88A59
:102470006E2D89890E94091086E0F60111928A95D5
:10248000E9F71BC0EE2009F461CF4D875E878D858B
:102490009E850E940410F82E882309F457CF86E009
:1024A000F801ABEDB1E001900D928A95E1F78BED6B
:1024B00091E00E94EB0B0E9457100E94491022C02D
:1024C0004D875E878D859E850E946915292F2295EF
:1024D0002F70223028F49F7039F0811105C00BC095
:1024E000243028F49F7049F4805E883020F0C801C1
:1024F0000E948F0F9F2CF92C05C0F8019581907FC9
:1025000099F7F9CF8F2D61960FB6F894DEBF0FBE05
:10251000CDBFDF91CF911F910F91FF90EF90DF9092
:10252000CF90BF90AF909F9008951F93CF93DF936C
:10253000CDB7DEB72C970FB6F894DEBF0FBECDBF78
:102540004F83588769877A878B879C87CE01079648
:102550000E94C3108823D1F09F8188852A853B85FE
:10256000232B31F08F3F31F481E09F3F19F403C0FA
:1025700081E001C080E080FD47C04F8158856985BA
:102580007A858B859C850E9418103EC086E0FE01EE
:102590003796DE01119601900D928A95E1F7FF8141
:1025A000E8856A857B856115710531F0EF3F31F46F
:1025B00081E0FF3F19F403C081E001C080E080FDAD
:1025C00023C02091AA0130E0C901019687709927A4
:1025D0004091A90150E084179507F1F1F983EA834E
:1025E0007D836C8396E0929FD001939FB00D112460
:1025F000A555BE4FFE01319601900D929A95E1F7D7
:102600008093AA010E94281016E08091A901909160
:10261000AA01891771F1189FC001112485559E4F99
:102620000E94C310882329F1E091A9011E9FF001A7
:102630001124E555FE4F408151816281738184816F
:1026400095810E9418108091A90190E001968770F1
:1026500099278093A901D9CF0E94DC0F1092AA017B
:102660001092A901EBEDF1E086E0DF011D928A9561
:10267000E9F72C960FB6F894DEBF0FBECDBFDF9101
:10268000CF911F910895EF92FF920F931F93CF93D5
:10269000DF938C01892B09F46CC0F12CEE24E394B8
:1026A000E8012196F8018491843740F4843008F0E1
:1026B00051C0813081F0823019F15BC0853709F457
:1026C00044C0A8F19CE7980F903708F052C08F776C
:1026D0000E949B0C41C00E5F1F4FFE01849190E24F
:1026E000980F983050F48770FE2D01C0FF0F8A9527
:1026F000EAF78F2F0E94CE1514C00E94F10B2DC057
:102700000E5F1F4FFE01849190E2980F983060F4A5
:102710008770FE2D01C0FF0F8A95EAF78F2F0E9468
:10272000D4150E94F91519C00E949B0C16C00E5FAB
:102730001F4FFE01C491CC2381F08FE99FE00197E8
:10274000F1F700C00000C150F6CF0E5F1F4FFE0131
:10275000F49003C00E94F10B8E018F2D882309F4A1
:102760009FCFEFE9FFE03197F1F700C00000815003
:10277000F5CFDF91CF911F910F91FF90EF900895CA
:10278000089508950C94C1130C94C2130E94C413AD
:102790006093260270932702809328029093290267
:1027A0000C94C20F0C94C6130F931F930091260232
:1027B000109127022091280230912902602B712B61
:1027C000822B932B1F910F910C94C6130F931F9381
:1027D00000912602109127022091280230912902AF
:1027E00060237123822393231F910F910C94C613AE
:1027F0000F931F9300912602109127022091280227
:102800003091290260277127822793271F910F910A
:102810000C94C6130C94C1130E940A1460932202F4
:102820007093230280932402909325020C94C20F8C
:1028300060E070E0CB010C940C140F931F9341E007
:1028400050E060E070E08A019B0104C0000F111F9E
:10285000221F331F8A95D2F7C901B8011F910F912A
:102860000C940C140F931F9341E050E060E070E073
:1028700004C0440F551F661F771F8A95D2F78091B9
:10288000220290912302A0912402B09125028A0194
:102890009B01082B192B2A2B3B2BC901B8011F9137
:1028A0000F910C940C140F931F9341E050E060E0E3
:1028B00070E004C0440F551F661F771F8A95D2F73A
:1028C00040955095609570958091220290912302D9
:1028D000A0912402B09125028A019B0108231923AB
:1028E0002A233B23C901B8011F910F910C940C14AA
:1028F0000F931F9341E050E060E070E004C0440F8C
:10290000551F661F771F8A95D2F7809122029091FA
:102910002302A0912402B09125028A019B0108277D
:1029200019272A273B27C901B8011F910F910C9441
:102930000C140F931F9300912202109123022091F7
:10294000240230912502602B712B822B932B1F9137
:102950000F910C940C140F931F930091220210916D
:1029600023022091240230912502602371238223C7
:1029700093231F910F910C940C140F931F930091AC
:102980002202109123022091240230912502602717
:102990007127822793271F910F910C940C1408958F
:1029A0002EE0929F800D1124E82FE695E695E6959E
:1029B000877051E001C0550F8A95EAF785E0E89FDE
:1029C000F0011124EF51FE4F20E030E070E0408133
:1029D000CB01022E02C0969587950A94E2F781708A
:1029E000819584278523842781932F5F3F4F25304E
:1029F000310569F708952EE0929F800D1124682F0C
:102A0000669566956695982F977085E0689FB001EA
:102A1000112440E050E080E0FB01E40FF51FEF518E
:102A2000FE4F208130E0092E02C0369527950A948A
:102A3000E2F721703327042E01C0220F0A94EAF72F
:102A4000822B4F5F5F4F4530510531F70895BF929C
:102A5000CF92DF92EF92FF920F931F93CF93DF936A
:102A60008C01C0902202D0902302E0902402F090CA
:102A700025028091260290912702A0912802B09110
:102A80002902C82AD92AEA2AFB2ACFE1D0E0D701B5
:102A9000C6010C2E04C0B695A795979587950A9404
:102AA000D2F780FD04C0219790F7B12C07C0BC2E4F
:102AB000B8018C2F0E94F9030197A9F38B2DDF91A8
:102AC000CF911F910F91FF90EF90DF90CF90BF902B
:102AD0000895CF93DF93EC010E942715BE010E9459
:102AE000F903DF91CF9108951F93CF93DF93EB010B
:102AF0009091A801992321F0CB010E94691513C080
:102B0000882349F0CB010E942715182F682FCE018A
:102B10000E94D01404C0CB010E94FB14182FBE01E8
:102B2000812F0E94F903DF91CF911F910895809129
:102B30002A02859585958595089580912A0287704A
:102B4000089590912A02977081E009F480E0089539
:102B500080914E02089590914E02892B80934E02EF
:102B60000895809590914E02892380934E02089596
:102B700080934E02089510924E02089590914D0256
:102B8000892B80934D020895809590914D02892361
:102B900080934D02089510924D02089590914C0239
:102BA000892B80934C020895809590914C02892343
:102BB00080934C02089510924C02089580912B024C
:102BC000089508950C94E1150C94E21590912B0250
:102BD000981721F080932B020C94E41508958091AE
:102BE0002B02882329F010922B0280E00C94E4152C
:102BF0000895E0910001F091010180914E028083DF
:102C0000E0910001F0910101908180914D02892BAA
:102C10008083E0910001F0910101908180914C024C
:102C2000892B808380912B02882381F0E091000121
:102C3000F09101019081892B808380910001909116
:102C400001010E940D1781110E94EF158091000172
:102C5000909101010C94970A0C94E11598E0899FDA
:102C600090011124262B20932A020E943214809175
:102C70002A028595859585950C942C1610922A022A
:102C800080E00C942C1620912A0280958223809358
:102C90002A02982F977079F430E0482F082E000C04
:102CA000550B2417350739F08595859585950E9434
:102CB00053140C943E16089580E090E00E94262460
:102CC00021E08C3E9E4F09F020E0822F089582E0A3
:102CD00090E00C941E24682F82E090E00C942C2449
:102CE00083E090E00C941E24682F83E090E00C9425
:102CF0002C24CF9384E090E00E941E24C82F81E210
:102D000090E00E941E242C2F30E0A901582BCA010C
:102D1000CF910895CF93C92F682F84E090E00E944F
:102D20002C246C2F81E290E0CF910C942C24AB01E9
:102D3000BC018FE090E00C943E24AB01BC0183E128
:102D400090E00C943E2460E070E0CB010C949D1662
:102D500060E070E0CB010E9497160C94A3166CEE15
:102D60007EEF80E090E00E944A2460E082E090E004
:102D70000E942C2460E083E090E00E942C241092BA
:102D8000260210922702109228021092290260E077
:102D900084E090E00E942C2460E081E290E00E94B8
:102DA0002C2460E085E090E00E942C2460E086E026
:102DB00090E00E942C246FEF87E090E00E942C248A
:102DC00040E050E0BA0188E090E00E943E2460E0DC
:102DD0008DE090E00E942C2440E050E0BA0188E1B0
:102DE00090E00E943E2460E087E190E00E942C2465
:102DF00040E050E0BA018CE190E00E943E2460E0A7
:102E000080E290E00E942C240C94A8160C94AF163B
:102E1000682F8EE090E00C942C24FC013296809177
:102E20001401882331F08091A90287FF02C09EE13E
:102E300001C096E080E0915028F021912223D9F33F
:102E40008F5FF9CF0895662351F120911401222359
:102E5000E9F02091A90227FF19C0462F4695469513
:102E600046954E31E0F4677021E030E002C0220F59
:102E7000331F6A95E2F7FC01E40FF11D828190E0B7
:102E80002823392381E0232B69F409C0FC01329601
:102E900008962191621729F0E817F907D1F780E029
:102EA000089581E008959C01FC0132969FEF80E037
:102EB0004191461789F09F3F19F4411101C0982FA5
:102EC0008F5F8630A9F79F3F39F0F901E90FF11DB7
:102ED00097FDFA956283089508959C012A5F3F4FFC
:102EE000FC014281461301C01282019682179307AA
:102EF000B9F70895262F2695269526952E3168F444
:102F0000FC01E20FF11D677021E030E001C0220FEB
:102F10006A95EAF78281282B22830895262F269529
:102F2000269526952E3170F4FC01E20FF11D677095
:102F300021E030E001C0220F6A95EAF720958281F6
:102F400028232283089520911401222329F020911F
:102F5000A90227FD0C947A170C94531720911401A1
:102F6000222329F02091A90227FD0C948E170C949E
:102F70006D1720911401FC013296222331F08091CB
:102F8000A90287FF02C08EE101C086E0DF011D9229
:102F90008A95E9F7089508950C94CB170C94CB17F4
:102FA000CF930E94CE170E9451060E94CC17C0E01A
:102FB0008C2F0E94E805892B29F4CF5FC730C1F719
:102FC00080E001C081E0CF9108950C94CB170C9460
:102FD000E5170E94E7178091AF02843049F1109203
:102FE000500220E488E190E00FB6F894A895809311
:102FF00060000FBE2093600080E00E947E030E946C
:10300000E71783B7817F846083BF83B7816083BF05
:103010007894889583B78E7F83BF0FB6F894A89570
:1030200080916000886180936000109260000FBE04
:1030300008950C94CB170E94DC0F0E948B0A0E940B
:103040007E030C9419181F920F920FB60F92112441
:103050008F939F93AF93BF9380915002811113C0C0
:103060008091A5029091A602A091A702B091A8021A
:103070004196A11DB11D8093A5029093A602A09335
:10308000A702B093A802BF91AF919F918F910F902B
:103090000FBE0F901F90189582E084BD93E095BD00
:1030A0009AEF97BD80936E0008952FB7F8948091A2
:1030B000A5029091A602A091A702B091A8022FBFED
:1030C00008959C014FB7F8948091A5029091A602B3
:1030D000A091A702B091A8024FBF821B930B089545
:1030E00078941F920F920FB60F9211248F939F9393
:1030F000AF93BF938091A5029091A602A091A702E1
:10310000B091A8020196A11DB11D8093A5029093D4
:10311000A602A093A702B093A802BF91AF919F917E
:103120008F910F900FBE0F901F901895F89481E02B
:103130008093E00080E28093D800E9ECF0E0108218
:103140008FE19EE40197F1F700C000001DBA1092D4
:1031500068001CBC10BE1FBA10927A0010926E005C
:1031600010926F0010927100109272001082ECEBBE
:10317000F0E0108214B817B81AB81DB810BA10824F
:1031800015B818B81BB81EB811BA0C94003F0895B2
:10319000AF92BF92CF92DF92EF92FF920F931F9365
:1031A000CF93C0E0CC24C394D12CE82EF12C8C2FEB
:1031B0000E94E8055C0100E010E0C601002E02C09C
:1031C000880F991F0A94E2F78A219B21892B31F4F9
:1031D0000F5F1F4F0E30110581F70AC0602F7C2F43
:1031E00080E00E94DE03E816F90691F781E004C052
:1031F000CF5FC730E1F680E0CF911F910F91FF9034
:10320000EF90DF90CF90BF90AF900895CF93C82FED
:103210008CE20E94C818882321F08C2FCF910C9447
:10322000C81880E0CF910895CF930E945C16811159
:1032300002C00E940617C5E6C15049F00E9451061F
:103240008FE39CE90197F1F700C00000F5CF89E218
:103250000E940619811120C18AE20E94061981117B
:103260000E94061785E00E94061981110E94961897
:103270000E94671680934F0287E00E9406198823F8
:10328000A9F18BE10E940619882351F080914F0229
:1032900081FB222720F991E0922790FB81F90EC053
:1032A0008EE00E940619882361F080914F0282FB14
:1032B000222720F991E0922790FB82F980934F0218
:1032C00015C080E10E94061990914F02882341F0B9
:1032D00093FB222720F981E0822780FB93F904C029
:1032E000892F809580FB90F990934F0280914F0237
:1032F0000E946B160E9479169093AA028093A902ED
:1033000080EE0E940619882341F08091A902982F2F
:10331000909590FB80F98093A90289E30E94061999
:10332000882359F08091A90281FB222720F991E09E
:10333000922790FB81F98093A90282EE0E940619E0
:10334000882359F08091A90282FB222720F991E07D
:10335000922790FB82F98093A90286EE0E940619BB
:10336000882359F08091A90283FB222720F991E05C
:10337000922790FB83F98093A90283EE0E9406199D
:10338000882359F08091A90284FB222720F991E03B
:10339000922790FB84F98093A90285E30E94061985
:1033A000882359F08091A90285FB222720F991E01A
:1033B000922790FB85F98093A90281E30E94061968
:1033C000882359F08091A90286FB222720F991E0F9
:1033D000922790FB86F98093A90281E10E94061949
:1033E000882359F08091A90287FB222720F991E0D8
:1033F000922790FB87F98093A9028091A90290916E
:10340000AA020E948A1687E20E940619C82F8EE13E
:103410000E9406198111C2608FE10E940619811174
:10342000C46080E20E9406198111C86081E20E9496
:1034300006198111C06182E20E9406198111C062E1
:1034400083E20E9406198111C06484E20E94061979
:10345000882311F0C06802C0CC2329F08C2F0E9471
:1034600074166C2F03C00E947016682F70E080E005
:1034700090E00E94D2138FE00E940619882319F071
:1034800081E00E94081785E10E940619882321F037
:1034900080E0CF910C940817CF9108958091580245
:1034A00080FF0BC06091070185E0689FB001112487
:1034B00075956795759567952BC081FF09C06091DB
:1034C000070185E0689FB00111247595679520C0BC
:1034D00082FF07C06091070185E0689FB001112459
:1034E00017C0909157029923D1F060910601961769
:1034F00088F72091070185E0289F90011124929F71
:10350000A001939F500D112470E0CA010E94F02386
:103510006038710540F46115710519F406C065E065
:1035200070E0862F08958FE7089581E008958091D7
:10353000580280FF08C06091030170E0759567959F
:103540007595679521C081FF06C06091030170E009
:103550007595679519C082FF04C06091030170E002
:1035600010C090915702992399F06091020196172B
:10357000A0F780910301899FC001112470E00E948F
:10358000F0236038710540F46115710519F406C027
:1035900061E070E0862F08958FE7089581E0089537
:1035A000803F21F40E944E1A819504C0813F29F486
:1035B0000E944E1A80935C020895823F21F40E947B
:1035C0004E1A819504C0833F29F40E944E1A8093BD
:1035D0005B020895893F19F40E94971A05C08A3F3B
:1035E00031F40E94971A819580935D0208958B3F74
:1035F00021F40E94971A819504C08C3F29F40E94FF
:10360000971A80935E020895843F21F480915A02B4
:10361000816017C0853F21F480915A02826011C0F9
:10362000863F21F480915A0284600BC0873F21F4C9
:1036300080915A02886005C0883F31F480915A0217
:10364000806180935A0208958D3F21F48091580241
:1036500081600BC08E3F21F480915802826005C0CA
:103660008F3F29F480915802846080935802089516
:10367000803F39F480915C0287FF6CC010925C023D
:1036800069C0813F29F480915C021816BCF362C0C6
:1036900090915B02823F29F497FF5CC010925B021D
:1036A00059C0833F19F41916CCF354C0893F41F433
:1036B00080915D0218160CF04DC010925D024AC058
:1036C0008A3F29F480915D0287FF44C0F6CF8B3F8B
:1036D00039F480915E0287FF3DC010925E023AC0CD
:1036E0008C3F29F480915E021816BCF333C0843FEE
:1036F00021F480915A028E7F17C0853F21F480917A
:103700005A028D7F11C0863F21F480915A028B7F2F
:103710000BC0873F21F480915A02877F05C0883F04
:1037200031F480915A028F7E80935A0213C08D3FEC
:1037300021F4809158028E7F0BC08E3F21F480913E
:1037400058028D7F05C08F3F29F4809158028B7FEE
:103750008093580280915B0281110EC080915C02BF
:1037600081110AC080915D02811106C080915E02C4
:10377000811102C010925702089589E592E00E94DB
:10378000B10A0E94551890935602809355020895ED
:10379000CF93DF9300D000D000D0CDB7DEB786E066
:1037A000E9E5F2E0DE01119601900D928A95E1F7CC
:1037B00080915B02811105C080915C02882309F42D
:1037C0007AC080915302909154020E946118AC011A
:1037D00090915702992339F02091080130E0241785
:1037E000350758F068C0209109018AE0289F9001B0
:1037F00011242417350718F05EC09F3F19F09F5F12
:103800009093570210925D0210925E0280915B02CB
:10381000181624F40E944E1A80935B0280915B027A
:1038200087FF05C00E944E1A819580935B028091AC
:103830005C02181624F40E944E1A80935C02809158
:103840005C0287FF05C00E944E1A819580935C023E
:1038500030915B023323E1F020915C022223C1F01E
:1038600045EB3403C0011124992319F090935B02B6
:1038700003C081E080935B0235EB2303C001112478
:10388000992319F090935C0203C081E080935C025D
:103890000E94BD1B80915502909156029093540254
:1038A0008093530286E0FE013196A9E5B2E00190D3
:1038B0000D928A95E1F780915D02811105C080919A
:1038C0005E02882309F47AC08091510290915202DD
:1038D0000E946118AC0190915702992339F0209110
:1038E000040130E02417350758F068C02091050125
:1038F0008AE0289F900111242417350718F05EC034
:103900009F3F19F09F5F9093570210925B021092B5
:103910005C0280915D02181624F40E94971A80932D
:103920005D0280915D0287FF05C00E94971A819514
:1039300080935D0280915E02181624F40E94971A0B
:1039400080935E0280915E0287FF05C00E94971AF5
:10395000819580935E0230915D023323E1F02091E6
:103960005E022223C1F045EB3403C00111249923E8
:1039700019F090935D0203C081E080935D0235EB06
:103980002303C0011124992319F090935E0203C010
:1039900081E080935E020E94BD1B80915502909150
:1039A0005602909352028093510286E0FE013196B6
:1039B000A9E5B2E001900D928A95E1F726960FB63F
:1039C000F894DEBF0FBECDBFDF91CF910895E9E53A
:1039D000F2E086E0DF011D928A95E9F71092570226
:1039E00010925802089580917F020895CF93DF933B
:1039F00000D01F92CDB7DEB79091AF02943019F589
:103A000089837B836A8382E08093E9008FEF9091C2
:103A1000E800815095FD06C095ED9A95F1F70000FC
:103A20008111F5CF8091E80085FF0DC040E050E0A6
:103A300063E070E0CE0101960E94521F8091E80081
:103A40008E778093E8000F900F900F90DF91CF91C9
:103A50000895CF93DF93EC010E94351F823011F05F
:103A6000843031F4BE0184E0DF91CF910C94F61CD8
:103A7000DF91CF910895BC0183E00C94F61CCF93A5
:103A8000DF93EC010E94351F823011F08430F9F48D
:103A900082E08093E9008FEF9091E800815095FDDE
:103AA00006C095ED9A95F1F700008111F5CF809150
:103AB000E80085FF0CC040E050E066E070E0CE0119
:103AC0000E94521F8091E8008E778093E800DF917A
:103AD000CF910895CF93DF93EC010E94351F823080
:103AE00011F08430D9F580911401882339F0809148
:103AF000A90287FF03C060E282E002C068E081E0C3
:103B00008093E9008FEF9091E800815095FD06C009
:103B100095ED9A95F1F700008111F5CF8091E800BD
:103B200085FF1CC080911401811105C040E050E068
:103B300068E070E003C070E040E050E0CE010E9419
:103B4000521F8091E8008E778093E80080E2FE01AA
:103B5000AFE5B2E001900D928A95E1F7DF91CF9148
:103B600008958091AE02811109C00E94E3200E9455
:103B700040218091E20084608093E20008951092D9
:103B8000AE020895089508950C941B1842E061EC6C
:103B900081E00E945C2042E261EC82E00C945C20B7
:103BA0008091B102833009F460C030F4813071F04B
:103BB000823009F499C008958A3009F485C08B30A9
:103BC00009F46BC0893009F0A7C020C08091B00211
:103BD000813A09F0A1C08091E800877F8093E800D6
:103BE0008091B4029091B502892B21F460E28FE5B7
:103BF00092E003C060E080E090E070E00E949D1FD2
:103C00008091E8008B778093E80008958091B0025E
:103C1000813209F081C08091B4029091B50202977F
:103C200008F07AC08091E800877F8093E800809157
:103C3000E80082FD05C08091AF028111F8CF6CC011
:103C40002091F3008091F20090E0922B029729F4EA
:103C50008091F1008B7F813021F48091F10080937D
:103C60007F028091E8008B7753C08091B002813A47
:103C700009F052C08091B4029091B502892B09F0ED
:103C80004BC08091E800877F8093E8008091E80036
:103C900080FFFCCF8091140136C08091B002813248
:103CA000D9F58091B4029091B502892BA9F5809144
:103CB000E800877F8093E8000E9491208091B20203
:103CC000809314010C94DC0F8091B002813221F5B5
:103CD0008091E800877F8093E8000E949120809186
:103CE000B3028093800208958091B002813AA1F4DA
:103CF0008091E800877F8093E8008091E80080FF52
:103D0000FCCF809180028093F1008091E8008E7753
:103D10008093E8000C949120089584B7877F84BF36
:103D20000FB6F894A8958091600088618093600038
:103D3000109260000FBE90E080E80FB6F894809378
:103D40006100909361000FBE0E94FB0A0E94E32075
:103D50000E9440218091E20084608093E200789488
:103D60000E94D5230E94050B8AE091E00E94860AFA
:103D70008091AF02853069F40E94E9178091AD020D
:103D80008823B1F30E94D017882391F30E943C1F2F
:103D9000EFCF0E940D0BECCF0C94CE1E292F3327B2
:103DA00023303105C9F060F42130310581F0223033
:103DB000310509F04AC08BE390E02CE933E049C0BB
:103DC0002132310511F12232310579F13EC082E113
:103DD00090E027ED33E03DC099278130910561F0F7
:103DE00040F08230910559F0039779F5E4E6F3E06D
:103DF00008C0E8E9F3E005C0EAE7F3E002C0EAE65C
:103E0000F3E0849190E09F0124C06115710541F0B9
:103E100061307105D1F489E090E027EC33E019C0FE
:103E200089E090E02EEA33E014C06115710541F09D
:103E30006130710551F48CEB90E029EE33E009C05C
:103E400080E490E025EA34E004C080E090E020E0E7
:103E500030E0FA013183208308958091AF028430ED
:103E600011F081E0089582E008958091810281112E
:103E700002C00C942D1F089580E189BD82E189BDA7
:103E800009B400FEFDCF8091D8008F7D8093D800CB
:103E90008091E00082608093E0008091E00081FDED
:103EA000FCCF0895CF92DF92EF92FF920F931F9372
:103EB000CF93DF93EC018B017A010E94B020811136
:103EC00033C0E114F10439F0F70180819181081BBE
:103ED000190BC80FD91FC12CD12C0115110519F1CF
:103EE0008091E80085FD16C08091E8008E77809370
:103EF000E800E114F10449F0F70180819181C80ED6
:103F0000D91ED182C08285E00FC00E94B0208823D4
:103F100021F30AC089918093F10001501109FFEF4C
:103F2000CF1ADF0ADACF80E0DF91CF911F910F9196
:103F3000FF90EF90DF90CF9008952091B6023091DE
:103F4000B7022617370748F06115710539F420913B
:103F5000E8002E772093E80001C0B901FC0120E0C1
:103F60006115710579F18091AF028823F1F18530F7
:103F7000F1F18091E80083FD3CC08091E80082FD72
:103F80002EC08091E80080FFEBCF2091F30080915C
:103F9000F20090E0922B6115710551F08830910587
:103FA00038F421912093F100615071090196F3CF0B
:103FB00021E0089709F020E08091E8008E77809357
:103FC000E800CECF2111CFCF0AC08091AF02882365
:103FD00061F0853061F08091E80083FD0AC0809136
:103FE000E80082FFF2CF80E0089582E0089583E048
:103FF000089581E008952091B6023091B702261706
:10400000370748F06115710539F42091E8002E77E3
:104010002093E80001C0B901FC0120E061157105A1
:1040200091F18091AF02882309F440C0853009F4F2
:104030003FC08091E80083FD3DC08091E80082FD93
:104040002FC08091E80080FFE9CF2091F30080919C
:10405000F20090E0922B6115710559F088309105BE
:1040600040F424912093F10031966150710901963A
:10407000F2CF21E0089709F020E08091E8008E77E8
:104080008093E800CBCF2111CCCF0AC08091AF0242
:10409000882361F0853061F08091E80083FD0AC0DB
:1040A0008091E80082FFF2CF80E0089582E00895D9
:1040B00083E0089581E00895982F973068F59093F4
:1040C000E900981739F07091EC002091ED005091C3
:1040D000F00003C0242F762F50E021FD02C09F5F27
:1040E000ECCF3091EB003E7F3093EB003091ED0050
:1040F0003D7F3093ED003091EB0031603093EB0069
:104100007093EC002093ED005093F0002091EE00AE
:1041100027FDE5CF80E008958F708093E90081E06E
:1041200008958091B00287FF11C08091E80082FD60
:1041300005C08091AF028111F8CF11C08091E800D5
:104140008B770BC08091AF02882349F08091E80003
:1041500080FFF8CF8091E8008E778093E800089583
:104160002091E4003091E50095E64091EC00842F29
:10417000817040FF23C08091E80080FD1DC08091C8
:10418000AF02882399F0853099F08091EB0085FD8E
:1041900011C04091E4005091E5002417350729F340
:1041A000915011F09A01E1CF84E0089582E00895E2
:1041B00083E0089581E0089580E008954091E8004B
:1041C00042FFDDCF08950E9451210E945921E0EE67
:1041D000F0E0808181608083E8EDF0E080818F777E
:1041E000808319BCA7EDB0E08C918E7F8C93808189
:1041F0008F7E80831092AE0208950F931F93CF930A
:10420000DF930E9451210E945921C8EDD0E088819E
:104210008F77888388818068888388818F7D888371
:1042200019BC1092AF021092AB021092AD02109224
:10423000AC0200EE10E0F80180818B7F80838881E2
:104240008160888342E060E080E00E945C20E1EED3
:10425000F0E080818E7F8083E2EEF0E080818160FB
:104260008083808188608083F80180818E7F808355
:10427000888180618883DF91CF911F910F9108958C
:10428000E8EDF0E080818F7E8083E7EDF0E08081D3
:104290008160808384E082BF81E08093AE020C94D1
:1042A000FD20E8EDF0E080818E7F80831092E200B7
:1042B00008951092DA001092E10008951F920F9273
:1042C0000FB60F9211242F933F934F935F936F93E9
:1042D0007F938F939F93AF93BF93EF93FF938091BF
:1042E000E10082FF0BC08091E20082FF07C0809155
:1042F000E1008B7F8093E1000E94D4238091DA005B
:1043000080FF1FC08091D80080FF1BC08091DA0021
:104310008E7F8093DA008091D90080FF0DC080E10C
:1043200089BD82E189BD09B400FEFDCF81E08093A3
:10433000AF020E94B11D05C019BC1092AF020E94CD
:10434000BF1D8091E10080FF19C08091E20080FFD5
:1043500015C08091E2008E7F8093E2008091E200A0
:1043600080618093E2008091D80080628093D800C1
:1043700019BC85E08093AF020E94C31D8091E100CB
:1043800084FF30C08091E20084FF2CC080E189BDB1
:1043900082E189BD09B400FEFDCF8091D8008F7DF8
:1043A0008093D8008091E1008F7E8093E10080911E
:1043B000E2008F7E8093E2008091E2008160809332
:1043C000E2008091AB02882311F084E007C0809165
:1043D000E30087FD02C081E001C083E08093AF026B
:1043E0000E94C41D8091E10083FF29C08091E200FA
:1043F00083FF25C08091E100877F8093E10082E008
:104400008093AF021092AB028091E1008E7F809387
:10441000E1008091E2008E7F8093E2008091E200D3
:1044200080618093E20042E060E080E00E945C20D6
:104430008091F00088608093F0000E94C21DFF917F
:10444000EF91BF91AF919F918F917F916F915F910C
:104450004F913F912F910F900FBE0F901F90189585
:104460001F920F920FB60F9211242F933F934F93E9
:104470005F936F937F938F939F93AF93BF93CF93EC
:10448000DF93EF93FF93C091E900CF708091EC0030
:10449000D82FD17080FDD0E81092E9008091F00013
:1044A000877F8093F00078940E9474221092E90034
:1044B0008091F00088608093F000CD2BCF70C09386
:1044C000E900FF91EF91DF91CF91BF91AF919F9163
:1044D0008F917F916F915F914F913F912F910F90AD
:1044E0000FBE0F901F9018951F93CF93DF93CDB7FA
:1044F000DEB7AA970FB6F894DEBF0FBECDBFE0EBD4
:10450000F2E08091F100819322E0E83BF207C9F7E5
:104510000E94D01D8091E80083FF2EC18091B002DF
:104520009091B102492F50E04A30510508F024C162
:10453000FA01EC58FF4F0C940424803821F08238A3
:1045400009F01AC108C08091AC029091AD02992384
:1045500089F082600FC08091B4028F70873008F0BC
:104560000BC18093E9008091EB0085FB882780F9DF
:104570001092E9009091E800977F9093E800809373
:10458000F1001092F100D1C0282F2D7F09F0F4C066
:10459000882319F0823061F0EFC08091B20281303F
:1045A00009F0EAC0933009F080E08093AD022EC09C
:1045B0008091B20281112AC08091B4028F702FEFD6
:1045C000280F263008F0D8C08093E9002091EB0036
:1045D00020FF1CC0933021F48091EB00806214C056
:1045E0009091EB0090619093EB0021E030E0A90105
:1045F00002C0440F551F8A95E2F74093EA001092DB
:10460000EA008091EB0088608093EB001092E90053
:104610008091E800877F8093E8000E949120ACC0E1
:104620008111AAC01091B2021F778091E3008078B7
:10463000812B8093E3008091E800877F8093E800DE
:104640000E9491208091E80080FFFCCF8091E300E0
:1046500080688093E300111102C082E001C083E012
:104660008093AF0289C08058823008F085C0809165
:10467000B2029091B3028C3D53E0950779F583E047
:104680008A838AE289834FB7F894DE01139620E08B
:104690003EE051E2E32FF0E050935700E49120FF19
:1046A00003C0E295EF703F5FEF708E2F90E0EA302D
:1046B00010F0C79601C0C0968D939D932F5F243153
:1046C00049F74FBF8091E800877F8093E8006AE256
:1046D00070E0CE0101960E949D1F16C06091B40249
:1046E0007091B502AE014F5F5F4F0E94CC1EBC01BE
:1046F000892B09F441C09091E800977F9093E800DE
:1047000089819A810E94FB1F8091E8008B778093BA
:10471000E80032C0803881F58091E800877F80937F
:10472000E8008091AB028093F1008091E8008E77E1
:1047300072CF811121C08091B2029091B30299276A
:104740000297D4F48091E800877F8093E8008091FD
:10475000B2028093AB020E9491208091AB02811142
:1047600006C08091E30087FD02C081E001C084E0C3
:104770008093AF020E94C61D8091E80083FF0AC0AB
:104780008091E800877F8093E8008091EB00806251
:104790008093EB00AA960FB6F894DEBF0FBECDBF94
:1047A000DF91CF911F9108950895CF938091AF022B
:1047B0008823A1F0C091E900CF709091EC00892F7F
:1047C000817090FD80E8C82B1092E9008091E8008C
:1047D00083FD0E947422CF70C093E900CF910895A9
:1047E00097FB072E16F4009407D077FD09D00E949E
:1047F0000A2407FC05D03EF4909581959F4F0895BB
:10480000709561957F4F0895EE0FFF1F0590F4910D
:10481000E02D0994AA1BBB1B51E107C0AA1FBB1FB7
:10482000A617B70710F0A61BB70B881F991F5A953C
:10483000A9F780959095BC01CD010895F999FECF17
:1048400092BD81BDF89A992780B50895A8E1B0E09E
:1048500042E050E00C945224262FF999FECF92BDED
:1048600081BDF89A019700B4021639F01FBA20BD35
:104870000FB6F894FA9AF99A0FBE08950396272F67
:104880000E942D240E942C24252F0E942D24242FA9
:104890000C942D240196272F0E942D240C942C2457
:1048A000DC01CB01FC01F999FECF06C0F2BDE1BDF0
:1048B000F89A319600B40D9241505040B8F70895DF
:0448C000F894FFCF9A
:1048C4002C022808641E140A321EF31C6A1D3F1DA4
:1048D4003B1D291D01E200E900EA00B500B600B75E
:1048E40000CD008301CC008A0192019401210223AE
:1048F4000224022502260227022A02B300B4006F12
:104904000070008182839293666797343536F7F698
:10491400F5F4F1F030313233379091E200E900EAF6
:1049240000B500B600B700CD008301CC008A019227
:104934000194012102230224022502260227022ACD
:0C49440002B300B4006F00700081828399
:00000001FF
