:100000000C9405050C9422050C9422050C942205F1
:100010000C9422050C9422050C9422050C942205C4
:100020000C9422050C9422050C941C280C94EE28A8
:100030000C94B0210C9422050C9422050C942205FA
:100040000C9422050C9422050C9422050C94220594
:100050000C9422050C94FD210C9422050C9422058D
:100060000C9422050C9422050C9422050C94220574
:100070000C9422050C9422050C9422050C94220564
:100080000C9422050C9422050C9422050C94220554
:100090000C9422050C9422050C9422050C94220544
:1000A0000C9422050C9422050C94220579117C11E4
:1000B000841189118E11931198119D11A211A7110C
:1000C000AC11B111B311B611B911BC11BF11C211EC
:1000D000C411C911E116E11613171317601794180C
:1000E000941894187E171318241824188418941838
:1000F00094188D1825192519371937192E193719FC
:10010000371937192519251933193719371933199B
:100110005B2982297A2A82297A2ACE29F1297A2A08
:10012000482A572A58014E0144013A013001000083
:10013000040255FFFFFF00000000040200FFFFFF64
:10014000000000000601D5FFFFFF000000000401D1
:100150002BFFFFFF00000000050180FFFFFF0000F4
:10016000000029003A003B003C003D003E003F00FB
:100170004000410042004300440045004C0035006F
:100180001E001F0020002100220023002400250063
:10019000260027002D002E002A0031002B0014001D
:1001A0001A000800150017001C0018000C001200AF
:1001B00013002F0030005300390004001600070020
:1001C00009000A000B000D000E000F003300340080
:1001D00028000654E1001D001B0006001900050060
:1001E00011001000360037003800E5004600E3003B
:1001F000E0004A004B004D002C00000000002C00E5
:10020000500052004F00E400E60000000000000033
:100210004E000000E200E100E5002A00000051006D
:1002200000000000000029003A003B003C003D00B7
:100230003E003F00400041004200430044004500B2
:100240004C0020022102240225022E002F0230023F
:1002500036023702260227022F0030002A0039001A
:100260002B4334003600370013001C0009000A003D
:10027000060015000F003800310053002D00040067
:10028000120008000C00180007000B0017001100F6
:1002900016002D02280006543159330014000D00B9
:1002A0000E001B00050010001A0019001D00315936
:1002B000460038592B444A004B004D002C420000A8
:1002C00000002C42500052004F00284432590000D8
:1002D000000000004E0000003459315939002A0056
:1002E0000000510000000000000029023A023B0219
:1002F0003C023D023E023F024002410242024302F2
:10030000440245024C0235001E001F00200021005F
:1003100022002300240025002600270023023502A6
:100320002A0239022B02340238021E0213021C0276
:1003300009020A02060215020F0222021F025302DC
:100340002E020402120208020C02180207020B021B
:10035000170211021602310228020654010033026C
:1003600014020D020E021B02050210021A021902EB
:100370001D0201004602010001004A024B024D022B
:100380000100000000000100500252024F02010073
:1003900001000000000000004E020000010001000A
:1003A00001002A02000051020000000000002900A4
:1003B0003A003B003C003D003E003F004000410051
:1003C00042004300440045004C0035001E001F0061
:1003D0002000210022002300240025002600270001
:1003E0002D002E002A0031002B0014001A000800F6
:1003F000150017001C0018000C00120013002F003D
:1004000030005300390004001600070009000A00FC
:100410000B000D000E000F003300340028000654BE
:1004200001001D001B00060019000500110010004E
:10043000360037003800E5004600010001004A00A0
:100440004B004D00E10000000000E10050005200B0
:100450004F00010001000000000000004E000000FD
:100460000100010001002A0000005100000000000E
:100470000000010001000100010001000100010075
:100480000100010001000100010001000100010064
:100490000100010001000100010001000100010054
:1004A0000100010001000100010001000100010044
:1004B000500152004F010100010001000100010044
:1004C000010001000100010001004A00500051003C
:1004D0004F004D000100010001000100010001007A
:1004E000010001000100010001004E004B0001006D
:1004F00001000100010001000100010001000100F4
:100500000100010001000100E10000000000E10025
:1005100001000100010001000100000000000000D6
:1005200001000000010001000100010000000100C5
:1005300000000000000001000100010001000100B6
:1005400001000100010001000100010001000100A3
:1005500001002002210226025F00600061002702E4
:100560000100010001000100010001000100010083
:10057000010022025C005D005E0023020100010018
:10058000010001000100010001000100010056000E
:1005900059005A005B0054000100010001000100F5
:1005A0000100010001000100010057008500630007
:1005B000620055000100010001000100010001007E
:1005C0000100010001000100010001000100000024
:1005D0000000010001000100010001000100000015
:1005E00000000000010000002A0058000100010086
:1005F000000001000000000000004C004500440025
:100600004300420041004000095D0A5D0B5D0C5D46
:100610004700480049002A002E002D002700260030
:10062000250024000100010001000100010001007B
:10063000010030002F00130012000C0018001C00F5
:10064000010001000100010001000100010028007B
:10065000340033000F000E000D000B0001000100FC
:10066000010001000100010001000100E10038006B
:1006700037003600100011000100010001000100E8
:100680000100E500005CCA5CC95C500052004F00EC
:10069000C35C00000000AE00AC00A900AB00650028
:1006A000010000000000000051000000C55CC75CB4
:1006B000AF00A8000000AA000000000000003219EE
:1006C0000A00047F3F1F643214643214783C1E1EFB
:1006D000140A052223252628292A2C2D2F303233CF
:1006E0003536383A3B3D3E4042434547494A4C4EF9
:1006F0005051535557595A5C5E6062646668696B25
:100700006D6F71737577797B7D7F81838587898A2A
:100710008C8E90929496989A9C9E9FA1A3A5A7A830
:10072000AAACAEAFB1B3B4B6B8B9BBBCBEBFC1C260
:10073000C3C5C6C7C9CACBCCCDCED0D1D2D2D3D4F3
:10074000D5D6D7D7D8D9D9DADADBDBDBDCDCDCDC11
:10075000DCDDDDDDDDDCDCDCDCDCDBDBDBDADAD9DF
:10076000D9D8D7D7D6D5D4D3D2D2D1D0CECDCCCB61
:10077000CAC9C7C6C5C3C2C1BFBEBCBBB9B8B6B47F
:10078000B3B1AFAEACAAA8A7A5A3A19F9E9C9A980F
:10079000969492908E8C8A89878583817F7D7B79E0
:1007A000777573716F6D6B6968666462605E5C5AC1
:1007B0005957555351504E4C4A4947454342403E84
:1007C0003D3B3A3836353332302F2D2C2A29282616
:1007D000252322FFAA7F55400001010101010101EB
:1007E00001010202020202020202020303030303E6
:1007F00003030304040404040404050505050506B5
:100800000606060607070707070808080809090972
:10081000090A0A0A0B0B0B0C0C0C0D0D0D0E0E0E1B
:100820000F0F0F10101111111212131314141515AC
:1008300016161717181819191A1A1B1B1C1D1D1E1E
:100840001E1F202021222223242425262627282972
:10085000292A2B2C2D2D2E2F3031323233343536A0
:100860003738393A3B3C3D3E3F40414243444546A0
:100870004748494A4C4D4E4F50515354555658597C
:100880005A5B5D5E5F616264656668696B6C6D6F23
:100890007072737577787A7B7D7E80828385878896
:1008A0008A8C8E8F91939596989A9C9EA0A2A3A5D0
:1008B000A7A9ABADAFB1B3B5B7BABCBEC0C2C4C6D1
:1008C000C9CBCDCFD1D4D6D8DBDDDFE2E4E7E9EB8D
:1008D000EEF0F3F5F8FAFDFF0403300000000E031C
:1008E00067007200690064003800380000001C03D3
:1008F0007100690061006E006C0061006E006700AD
:1009000020006300680065006E0000000403090415
:1009100009023B00020100A0FA09040000010301E2
:10092000010009211101000122400007058103088F
:10093000000A09040100010300000009211101005F
:1009400001226D000705820320000A120110010038
:10095000000008EDFE01000100010203010501098C
:1009600080A101850319012AB700150126B700955A
:100970000175108100C0050C0901A1018504190150
:100980002AA002150126A002950175108100C0055C
:10099000010906A1018505050719E029E7150025CC
:1009A000019508750181020507190029EF15002539
:1009B0000195F07501810205081901290595057554
:1009C000019102950175039101C005010906A1017C
:1009D000050719E029E71500250195087501810231
:1009E0009501750881010507190029FF150026FFEB
:1009F00000950675088100050819012905950575FA
:100A0000019102950175039101C011241FBECFEF22
:100A1000DAE0DEBFCDBF11E0A0E0B1E0EAE2F8E548
:100A200002C005900D92AA3CB107D9F723E0AAECC9
:100A3000B1E001C01D92AC38B207E1F70E944B252E
:100A40000C94132C0C94000084E291E090933002FB
:100A500080932F0208958A302DE5920739F190F4A2
:100A60008630F4E59F07C1F089309D4509F046C006
:100A700081E00E94A81D86E00E94C91D62E174E029
:100A800084E026C08B30EDE59E0729F18C309D4532
:100A9000A9F50E942E1F2DC0FB018281882371F1D0
:100AA00086E00E94881D882349F123C081E00E94CE
:100AB000C91D82E00E94C91D83E00E94C91D84E017
:100AC0000E94C91D86E00E94C91D62E174E083E0B6
:100AD0000E944F1011C081E00E94881DE82FF0E0B5
:100AE000EE0FFF1FED5DFE4F62E174E080810E941A
:100AF0004F1086E00E94C91D80E0089581E00895AE
:100B0000863021F461E082E00C9432100895CF9297
:100B1000DF92EF92FF926B017C0146E00E94731D11
:100B2000811104C060E082E00E943210C701B6016A
:100B3000FF90EF90DF90CF900895CF93C82FC170B2
:100B400081FB662760F980E00E9432106C2F81E003
:100B50000E94321085E0CC2319F00E94A81D02C02B
:100B60000E94C91D81E0CF91089581E008950C9401
:100B70002B0508950C94B9051F93CF93DF9300D0F4
:100B800000D01F92CDB7DEB749835A836B83309173
:100B9000540289819A81311114C0662359F02223AD
:100BA00049F00E949D1E182F682F89819A810E940A
:100BB000461E03C00E94711E182F69817A81812F01
:100BC00004C00E949D1E69817A810F900F900F9042
:100BD0000F900F90DF91CF911F910C947206FC0142
:100BE000262F408151816281738184810C94BC05E0
:100BF000CF93DF93EC0160E00E94EF05BE01DF912F
:100C0000CF910C94BA050E94CF1F811102C00E949F
:100C100079200C948B080C94870808950C940D0689
:100C20000C949D05CF93C82F0E940E068C2F0E9416
:100C30001006CF91089508950E9413190E941B0673
:100C40002FEF84E39CE0215080409040E1F700C00A
:100C500000000C9423220F931F93CF93DF93EC019A
:100C600061E00E94EF058C01BE010E94B705882358
:100C700079F1BE01C8010E948612882349F1BE01A4
:100C8000C8010E94C712882319F1BE01C8010E9441
:100C9000F2138823E9F0BE01C8010E946211882383
:100CA000B9F08A81882369F001158CE5180731F0C5
:100CB0000E3D1C4531F40E9479200AC00E941C069A
:100CC00007C0CE01DF91CF911F910F910C94B50514
:100CD00080E0DF91CF911F910F91089580E090E027
:100CE0000895089522E6829FC0011124FC012EE0A0
:100CF000729FE00DF11D1124E60FF11DEE0FFF1F95
:100D0000EE59FE4F859194910895880F991FFC012B
:100D1000E254F94F859194910895CF93DF930E9407
:100D200072060E949F07EC018115904508F043C0B0
:100D3000C11580E4D80708F0CBC0C03ED10528F526
:100D4000C03CD10508F0B3C0C83AD10578F4C53A23
:100D5000D10508F0A4C0C130D10509F4ECC008F4F5
:100D6000E8C0C430D10508F0E6C0E3C0CF3BD105F0
:100D700008F0DFC0C85AD0E0CC0FDD1FC95DDE4FE0
:100D80000990D881C02DD464D6C0C11590E2D9078E
:100D900050F4C11521E0D20708F0CDC0C83ED105FE
:100DA00008F4C9C0C6C0C11580E3D80708F086C0E2
:100DB000CE019F707FC0C11595E5D90708F043C0EB
:100DC000C11524E5D20708F09AC0C11582E5D807FD
:100DD00008F5C11591E5D90708F07DC0CE0174E092
:100DE000969587957A95E1F783709C2F937021E013
:100DF00030E002C0220F331F9A95E2F73C68382B8F
:100E0000CF70C695C69580E2C89FE0011124C22B21
:100E1000D32B91C09E01237033278C2F8695869506
:100E2000C115D34508F05CC0C1E0D0E002C0CC0FD2
:100E3000DD1F2A95E2F720E2829FC0011124C82B12
:100E4000D92BDC6878C0C11529E5D207A0F4C115FB
:100E500088E5D80708F058C0C11596E5D90708F00D
:100E600068C08C2F0E9433088F71C82FD0E0DC2F10
:100E7000CC27D06260C0C1152AE5D20708F449C06A
:100E8000CE0190568115904208F053C08D2F8F717E
:100E90000E943308DD27D0628F71D82B4CC0C55A11
:100EA000D0E0CB5ADE4FC881D0E0D06444C0CE0140
:100EB000805C91090E948506EC013DC0CE01992716
:100EC000D3FF03C0EC01D86C36C0EC01D06C33C04A
:100ED000DF70D06A30C0DC2FCC27C16FD06A2BC046
:100EE000C1E0D0E002C0CC0FDD1F2A95E2F720E27E
:100EF000829FC0011124C82BD92BDA681CC0DC2FBB
:100F0000CC27C46FD06A17C0DC2FCC27C06FD06A43
:100F100012C08C2F8F700E94330894E0D695C7952D
:100F20009A95E1F7CF70D0E0DC2FCC27D069C82BA1
:100F300002C0C0E0D0E0CE01DF91CF9108958238A9
:100F4000910569F1B0F48133910509F46DC048F45D
:100F50008932910509F463C08A32910509F469C0A8
:100F600008958533910509F455C089339105B9F089
:100F70000895833E910569F138F4803E9105B1F002
:100F8000823E910509F10895863E9105A9F1873EBB
:100F90009105B9F1843E910509F064C023C0209108
:100FA0007D0320FD4FC021FD4DC0089580917D033C
:100FB00080FD44C080917E0380FF44C080917D030A
:100FC00084FD42C083EE4DC080917D0382FF38C016
:100FD000F5CF80917D0382FD33C080917E0380FD3B
:100FE00031C0ECCF80917E0381FF32C080917D03C0
:100FF00084FD2AC087EE35C080917D0383FF26C023
:10100000F5CF80917D0383FD21C080917E0381FD1A
:101010001FC0ECCF80917D0385FD1CC01DC0809159
:101020007D0385FD19C016C080917D0386FD16C025
:1010300017C080917D0386FD13C010C089E311C0E5
:1010400082EE0FC080EE0DC080E00BC086EE09C0BE
:1010500084EE07C089E205C085E303C08AE201C0CF
:1010600081E390E0089590917D0392FF0DC0282FB9
:101070002871283019F4877F846006C0282F2471D6
:10108000243011F48B7F886093FF0DC0282F2871C6
:10109000283119F4877E846106C0282F24712431F9
:1010A00011F48B7E886120917E0320FF0DC0382FC4
:1010B0003871383019F4877F816006C0382F31715C
:1010C000313011F48E7F886021FF0DC0282F2871E8
:1010D000283119F4877E816106C0282F21712131C2
:1010E00011F48E7E886194FD877E0895E82FF0E0EC
:1010F000EE0FFF1FE05DFC4F808191810895089500
:1011000080EA8A95F1F7089508950C9484080C9468
:1011100085080C9484080C948908CF93DF93A6E685
:10112000B1E04DE651E061E070E08D91E82FE2958D
:10113000EF70F0E021A18F70EB0102C0CC0FDD1F3A
:101140008A95E2F7CE019C2F9095922391A392A1CC
:10115000892B82A34A175B0741F7A8E5B1E046E671
:1011600051E061E070E08D91E82FE295EF70F0E0E2
:1011700021A18F70EB0102C0CC0FDD1F8A95E2F731
:10118000CE019C2F9095922391A392A1892B82A3AB
:101190004A175B0741F7E2E2F3E0A0E3B3E080E344
:1011A00093E0119211921D921D928E179F07C9F71D
:1011B00087E00E947C09DF91CF910C9403062F9267
:1011C0003F924F925F926F927F928F929F92AF92D7
:1011D000BF92CF92DF92EF92FF920F931F93CF9324
:1011E000DF9386E6C82E81E0D82E02E213E090E37A
:1011F000492E93E0592E312C88248394912C580148
:10120000D8016D907C9011971D921C92F6018191EE
:101210006F01C82FC295CF70D0E099A18F70740173
:1012200001C0EE0C8A95EAF7892F8E2989A38AA13D
:101230002E2C209482218AA30E948008E8E5F1E008
:1012400020E030E06191A62FA295AF70B0E09096BB
:101250008C91D8014D915C9190E06F7002C0959592
:1012600087956A95E2F780FD08C0C401022E02C08E
:10127000880F991F0A94E2F702C080E090E0482BA3
:10128000592BD8014D935C932F5F3F4F2E30310582
:10129000C9F689A1282229A28AA1E82AEAA20E5F1A
:1012A0001F4F81E0F501208131812615370509F4B2
:1012B00080E0382A4016510609F0A1CF232D47E0DF
:1012C00060E373E082E293E00E947D090E940B06D6
:1012D000832DDF91CF911F910F91FF90EF90DF90C1
:1012E000CF90BF90AF909F908F907F906F905F90C6
:1012F0004F903F902F9008950895FF920F931F9362
:10130000CF93DF93F82E092F162FD72FC42F222328
:1013100049F081E08093CC010E94E2219093CB01BF
:101320008093CA018091CC018823D9F08091CA01B1
:101330009091CB010E94EE21499798F0EF2DF02F6C
:10134000A12FBD2F80E090E04C2F50E0841795072F
:1013500034F4219131912D933D930196F7CF109262
:10136000CC01DF91CF911F910F91FF900895EF92E3
:10137000FF920F931F93CF93DF93F62E472FE82F03
:10138000F0E0711106C0E852F84F6491762F862F75
:1013900072C0272F30E0E852F84FE4910E2F10E092
:1013A00056E0659FC0011124CFEFD0E0BE010E943E
:1013B000C82A5BEA5603C001579F900D11248F0D78
:1013C000911D8F0D911D982F990F890F7E01E21AA3
:1013D000F30AE09ED001E19EB00DF09EB00D112405
:1013E000489FA0011124452F55277E01E41AF50AD4
:1013F000E09EA001E19E500DF09E500D11247E0153
:10140000E81AF108E29EC001E39E900DF29E900D55
:101410001124892F9927C81BD90BC09FC001C19FD8
:10142000900DD09F900D11246230710591F048F419
:1014300061157105E1F061307105A9F48B2F752FED
:1014400019C06430710561F038F06630710579F0CB
:101450000AC0892F7B2F0EC08E2F7B2FE52F0AC04D
:101460008E2F792F02C0852F7E2FEB2F03C08B2F5D
:101470007E2FE92F6E2FDF91CF911F910F91FF905B
:10148000EF9008950895CF93DF93762FE901682FA9
:10149000842F0E94B709798368838A83DF91CF9173
:1014A0000895453508F044E50C94430A80913E03C5
:1014B000282F269530E02115310519F481708260BE
:1014C00005C02B32310524F08170846580933E0382
:1014D00080914103853518F084E580934103089598
:1014E00088E090E00C94702BCF92DF92EF92FF9205
:1014F0006B017C010E94560AB701A60188E090E0CA
:10150000FF90EF90DF90CF900C948E2BEEE3F3E002
:1015100083E0808311828FEF828384E5838314824A
:1015200060817181828193810C94740A80913E0361
:1015300080FF02C08695089580E00895809142035F
:10154000833018F48F5F8093420360913E03709163
:101550003F0380914003909141030C94740A809161
:101560004203882319F081508093420360913E0327
:1015700070913F0380914003909141030C94740A51
:1015800021E030E001C0220F8A95EAF780913A020B
:10159000282381E009F480E0089570E00C940F1294
:1015A0008F929F92AF92BF92CF92DF92EF92FF9273
:1015B0000F931F93CF93DF9300D000D01F92CDB72E
:1015C000DEB790900701A0902F02B0903002A114D6
:1015D000B10429F480913E0380FF68C04AC0812C89
:1015E000882D0E94C00A882309F43BC0F501C590EC
:1015F000D490C114D10471F345E050E0B601CE019E
:1016000001960E94522B09810F3F59F110E08A8107
:101610009801280F311DC9012331310514F082E1F1
:1016200090E07C01EE0CFF1C8E0D9F1D9C012D5B3C
:101630003C4F7901C801880F991F080F191F0D5BD6
:101640001C4F0E151F0548F498014D816C818B814C
:101650000E94510A0D5F1F4FF4CF35E0C30ED11C1D
:10166000CBCF82E0A80EB11C839428E08212B8CFC1
:10167000B1CF8091060133E0839FC0011124692D11
:101680008D5B9C4F0E94CD0A0F900F900F900F9092
:101690000F90DF91CF911F910F91FF90EF90DF900E
:1016A000CF90BF90AF909F908F9008958091080148
:1016B000909109018917E8F6E82FF0E09F01220FC9
:1016C000331FE20FF31FED5BFC4F11821082128279
:1016D0008F5FF0CF90913E0390FF16C0909108016C
:1016E00020910901921770F4E92FF0E0DF01AA0FB1
:1016F000BB1FEA0FFB1FED5BFC4F818360834283BE
:101700009F5FF0CF0C94D00A0895CF93DF9300D061
:101710001F92CDB7DEB790913E0390FF0AC09E01A5
:101720002F5F3F4F0E94510A4B8169818A810E943D
:101730006A0B0F900F900F90DF91CF910895CF9388
:10174000DF93EC01EC81F0E0ED52F94F4491EEE3D0
:10175000F3E0628181810E94850B8C818F5F8C8395
:10176000DF91CF910895CF93DF93EC01EEE3F3E0A7
:10177000438162818C810E94850B8C818F5F8C8379
:10178000DF91CF9108950F931F93CF93DF9300D0F4
:101790001F92CDB7DEB78C018091CD0181110AC0B7
:1017A0009E012F5F3F4F44E56FEF0E94510A8A81EF
:1017B0008093CD01F8018481813051F028F082308E
:1017C00061F44091CD010AC08091CD0140E007C095
:1017D0006091CD0140E080E003C040E080E060E047
:1017E0000E946A0BF801848190E0019663E070E04A
:1017F0000E94DC2A84830F900F900F90DF91CF918D
:101800001F910F910895AF92BF92CF92DF92EF9206
:10181000FF920F931F93CF93DF9300D01F92CDB70A
:10182000DEB7182FF62E042FE22E90913E0390FF84
:101830006DC0E92FE695AE2FB0E0A359BE4F8C9155
:10184000809338029E7F923061F49E012F5F3F4F5C
:10185000812F0E94510A4B8169818A810E946A0B03
:1018600043C0823019F4009141033EC0863019F420
:1018700010913F0339C08930D9F38931A9F5E95175
:101880008E2F8170D82EE695F0E0ED52F84FA5909E
:10189000B490C12CBB2460910A01C61618F52C2DFA
:1018A00030E0A29EC001A39E900DB29E900D112427
:1018B00070E00E94C82A812FD11002C0860F01C09B
:1018C000861B90910801290F311DA901440F551F56
:1018D000240F351F2D5B3C4F402F6F2D0E94510A66
:1018E000C394D9CF0E94D00A10933F03F0924003D3
:1018F00000934103EE2051F060913E0370913F034D
:1019000080914003909141030E94740A0F900F90C0
:101910000F90DF91CF911F910F91FF90EF90DF908B
:10192000CF90BF90AF900895EEE3F3E09181282F20
:101930004381628180E1890F0C94030C81E00C9457
:10194000940CEEE3F3E09181282F4381628180EFD4
:10195000890F0C94030C81E00C94A10CEEE3F3E0EE
:10196000628120E2620F08F46FEF282F43818181AA
:101970000C94030C81E00C94AE0CEEE3F3E0628176
:1019800020E2621B08F460E0282F438181810C94DF
:10199000030C81E00C94BD0CEEE3F3E0438125E100
:1019A000420F08F44FEF282F628181810C94030CC1
:1019B00081E00C94CC0CEEE3F3E0438125E1421B83
:1019C00008F440E0282F628181810C94030C81E0AF
:1019D0000C94DB0C20E00C94030CFF920F931F93EC
:1019E000CF93DF93EC01F12C0FEF10E060910A012F
:1019F000F616F0F4809108012F2D30E0280F311DEC
:101A0000C901880F991F280F391F2D5B3C4F70E0CB
:101A1000C8010E94DC2A962F8C814091410360917D
:101A20004003F99E800D11240E94510AF394DECFE9
:101A30000E94D00A9A818C8190FF02C08F5F01C002
:101A400081508C83DF91CF911F910F91FF9008956A
:101A5000AF92BF92CF92DF92EF92FF920F931F93BC
:101A6000CF93DF93FC01828180FF02C00FEF01C0A2
:101A700001E010E042E1A42E80910A01181708F05D
:101A800043C080910801C12ED12CE601C80FD11DA1
:101A9000CE01880F991FC80FD91FCD5BDC4F19826B
:101AA00018821A8234E0E32EF12CB12C8091CF0100
:101AB0008B0D83312CF06A2D0E94BA2A892F05C024
:101AC00087FF03C090910A01890F082E000C990B23
:101AD000C816D90691F4809141038E9DA0018F9D77
:101AE000500D112455954795559547959E01609148
:101AF000400380913F030E94510AB00EF1E0EF1ABB
:101B0000F108A1F61F5FB8CF0E94D00A8091CF01E3
:101B1000013031F4811102C080910A01815007C067
:101B200090E0019660910A0170E00E94DC2A8093A7
:101B3000CF01DF91CF911F910F91FF90EF90DF9038
:101B4000CF90BF90AF900895CF938091080190916E
:101B50000901891770F4E82FF0E09F01220F331F6D
:101B6000E20FF31FED5BFC4F1182108212828F5F38
:101B7000F0CFC0E060910A01C617C0F5EC2FF0E08D
:101B800070E0CF010E94DC2A20910801820F209191
:101B9000CE01022E000C330B90E0E217F307CCF0DD
:101BA00020910501022E000C330B2E173F078CF0FD
:101BB0009C01220F331F820F931F9C012D5B3C4F12
:101BC000409141036091400380913F030E94510A7C
:101BD0000BC0FC01EE0FFF1F8E0F9F1FFC01ED5B82
:101BE000FC4F118210821282CF5FC4CF0E94D00AB4
:101BF000209104018091CE01820F8093CE019091BB
:101C00000501920F9093050119165CF4082E000C43
:101C1000990B40910A0150E04150510984179507F2
:101C20001CF0219520930401CF9108950F931F93E9
:101C3000CF93DF938C01FC018481958101968170A3
:101C4000992795838483C0E0D5E580910A01C81760
:101C500000F5809108012C2F30E0280F311DC901BB
:101C6000880F991F280F391F2D5B3C4F4C2F46952D
:101C7000F80184819581840F911D81704091410309
:101C8000609140038D9F802D11240E94510ACF5FE7
:101C9000DCCFDF91CF911F910F910C94D00A0F935D
:101CA0001F93CF93DF93EC0100E010E080910A01D5
:101CB000282F30E00217130724F5909108019801AE
:101CC000290F311DA901440F551F240F351F2D5B0E
:101CD0003C4F869590E04C81081719071CF444236B
:101CE00031F002C0411103C04091410301C040E006
:101CF0006091400380913F030E94510A0F5F1F4F84
:101D0000D5CF0E94D00A8C8190E0019681709927EE
:101D10008C83DF91CF911F910F9108958F929F92A5
:101D2000AF92BF92CF92DF92EF92FF920F931F93E9
:101D3000CF93DF93FC01B280948081E0848300E044
:101D400015E05BE4A52E88248394EE24EA94F12C1C
:101D50007BE4C72ED12C80910A01081708F08FC0B0
:101D6000C02FD0E01C9FF0011D9FF00D1124E05307
:101D7000FE4F911003C01382128267C02381222379
:101D800089F1215023833481332319F09A2D921B3A
:101D900001C0922F809141031C9FF0011D9FF00D07
:101DA0001124E053FE4F899FC0011124B6010E9407
:101DB000C82A6283211104C0332311F01482A38244
:101DC00022E02B1508F441C01C9FF0011D9FF00D6F
:101DD0001124E053FE4F80913F03808380914003A4
:101DE000818333C00E94422B8230914074F582E09F
:101DF0008B1530F40E94422BB7010E94DC2A02C0EE
:101E000080913F031C9FF0011D9FF00D1124E053B2
:101E1000FE4F808322E02B1558F40E94422B209124
:101E200040032695622F70E00E94DC2A820F02C0D8
:101E3000809140031C9FF0011D9FF00D1124E05381
:101E4000FE4F81831282A3828482809108019E01C9
:101E5000280F311DC901880F991F280F391F2D5BCD
:101E60003C4F1C9FF0011D9FF00D1124E053FE4FCD
:101E70004281618180810E94510A0F5F6CCFDF91A6
:101E8000CF911F910F91FF90EF90DF90CF90BF9077
:101E9000AF909F908F900C94D00AEEE3F3E0808196
:101EA0008E7F808360817181828193810E94740A18
:101EB000109239022FEF80E792E02150804090404D
:101EC000E1F700C000000C94D00AEEE3F3E080815B
:101ED0008E7F8083109239022FEF80E792E02150AD
:101EE00080409040E1F700C000000C94D00A60915F
:101EF0003E03669570E04BE050E08BE091E00E947D
:101F00005B2B892B19F481E0809339020E94E22136
:101F10009093320280933102089590913E0390FF96
:101F200035C09170811102C0926006C08B3210F0F2
:101F3000946502C0880F982B90933E03662351F05E
:101F400060913E0370913F03809140039091410363
:101F50000E94740A60913E03669570E04BE050E089
:101F60008BE091E00E945B2B892B19F010923902D3
:101F700002C00E94770F81E08093340240914103B8
:101F80006091400380913F030C94EA0C0895682F00
:101F900090913E03969581E0890F8B3208F081E0A5
:101FA0000C948D0F81E00C94C70F682F90913E0325
:101FB00096958FEF890F09F48AE20C948D0F81E0DA
:101FC0000C94D50F61E00C948D0FEEE3F3E080816B
:101FD0008160808386950C94E20F80913E0380FDA2
:101FE0000C944D0F0C94E50F60E00C948D0F8091D4
:101FF000370281112EC00E94CF1F811104C00E94A0
:1020000079200E94860A0E94700A60933E037093B2
:102010003F0380934003909341036E7F61F40E94DD
:10202000860A0E94700A60933E0370933F03809378
:102030004003909341030E94560A10923902809106
:102040003E0380FF03C086950E94F40F81E08093D9
:1020500037020895EEE3F3E0808181608083869506
:102060000C94F40F21E030E0A90102C0440F551F89
:102070008A95E2F7CA0120913A02662311F0822B79
:1020800002C08095822380933A02809139028111A7
:1020900005C080913E0386950C94F40F08950F932C
:1020A0001F93CF93C82F8B0161E00E94321081E013
:1020B00090E001C0880FCA95EAF790912E02892B13
:1020C00080932E020E94E22190932B0280932A0299
:1020D00010932D0200932C02CF911F910F91089520
:1020E000CF93DF9380912E02882321F180912A02E1
:1020F00090912B020E94EE2120912C0230912D0212
:1021000028173907B8F4C0E0D0E080912E0290E0A3
:102110000C2E02C0959587950A94E2F780FF04C0C3
:1021200060E08C2F0E9432102196C830D10569F7EB
:1021300010922E02DF91CF910895109239020895E6
:102140000F931F93CF93DF9380913902882309F473
:1021500098C080913802E0913E03E695E81BE09339
:102160003302823049F4F0E0E153F94FE491CE2F8D
:10217000D0E00FE91BE059C0863049F4F0E0E453A9
:10218000F94FE491CE2FD0E003EB1BE04EC0893035
:1021900051F4E695F0E0E753F94FE491CE2FD0E00B
:1021A0000DEE1CE042C08F3051F4E695F0E0EA53AA
:1021B000F94FE491CE2FD0E008E21DE036C0853122
:1021C00049F4F0E0ED53F94FE491CE2FD0E004EA6A
:1021D0001DE02BC08831D9F0833239F4E1ECF6E010
:1021E000C591D49103EC1BE020C08432A9F0853264
:1021F000C1F48E2F63E00E94AE2AE92FF0E0E25492
:10220000F94FE491CE2FD0E00EE81EE00EC0C8EEEC
:10221000D3E006E11EE009C0C4EFD1E00FE41EE008
:1022200004C0C0EDD7E002E41AE0809134028823B4
:1022300089F0109234020E94E2219E01209530958F
:10224000820F931F909332028093310210923602D4
:102250001092350280913102909132020E94EE215B
:102260008C179D0770F0E0913102F0913202CE0F91
:10227000DF1FD0933202C093310281E392E0F80174
:102280000995DF91CF911F910F910C9470108823C5
:1022900011F0FA0101C0FB010994CF93DF93C82F1D
:1022A000D62F0E94960A8C1740F00E94960A8D172E
:1022B00020F4DF91CF910C94D20F8C2FDF91CF912E
:1022C0000C94E20F0F931F93CF93FB01C281CC2399
:1022D00009F463C08C010E941E1F8272F801E25C47
:1022E000FC45E431F10508F059C0EA5AFF4F0C945F
:1022F000F02A0E94ED0F06C04FED5FE062ED7FE037
:102300000E944711C0E04AC042ED5FE06FED7FE000
:10231000F7CF4BEA5CE06EE97CE0F2CF4EE95CE09F
:102320006BEA7CE0EDCF49EC5CE06AEB7CE0E8CF67
:102330004AEB5CE069EC7CE0E3CF47EE5CE068ED03
:102340007CE0DECF48ED5CE067EE7CE0D9CF4FEA81
:102350005AE06EE97AE0D4CF4EE95AE06FEA7AE0CB
:10236000CFCF81E017C065E082E010C068E086E072
:102370000DC06EE089E00AC064E18FE007C067E14C
:1023800085E104C088E106C062E289E10E944D1146
:10239000B9CF83E20E94E20FB5CFC1E08C2FCF917D
:1023A0001F910F9108955AB1E42FEF7021E030E0B2
:1023B00001C0220FEA95EAF7352F322B3AB9429540
:1023C0004F70E42FF0E032A1422F4095342342A118
:1023D000242B4FB7F894FC01CB01880F991F680F8D
:1023E000791F6E0F7F1FE617F70789F0819198E03C
:1023F0002BB9000000C087FF3BB9880F000000C068
:1024000000C000C03BB900C09A9591F7ECCF4FBF18
:1024100087EC90E00197F1F700C00000089546E9CD
:102420000C94D3110F931F93CF93DF93C62FD42F08
:10243000122FFC0182818823C9F060933D020E9423
:10244000E22190933C0280933B0280E28C0F883023
:1024500008F057C0C77081E001C0880FCA95EAF73D
:10246000DF91CF911F910F910C94A11680913D02A5
:10247000681330C080913B0290913C020E94EE2193
:102480008E3A910538F500E20D0FCD17B9F080E2D4
:102490008C0F883040F4C77081E001C0880FCA9566
:1024A000EAF70E94A816083028F581E09D2F977062
:1024B00001C0880F9A95EAF70E94A116812F0E9409
:1024C0008E160830F0F4D77081E001C0880FDA95DD
:1024D000EAF70AC080E28C0F883098F4C77081E078
:1024E00001C0880FCA95EAF7DF91CF911F910F9134
:1024F0000C94A816812FDF91CF911F910F910C940E
:102500008E16DF91CF911F910F9108959C01CB0101
:10251000233F4CE53407F9F078F4283DFCE53F070C
:10252000B9F0293D4CE5340711F1273D3C4531F523
:1025300026E241EE61EE1EC0253FFCE53F0799F023
:1025400070F0263F3C45D1F427E245EE66EE12C01E
:1025500027E245EE0EC026E241EE60EE0BC027E218
:1025600045EE64EE07C026E241EE62EE03C028E2CB
:1025700041E065EE0E94121280E00895FC01828124
:10258000882319F010923D02089581E00895CF93B9
:10259000DF93EC01FB018281882309F41FC1C23063
:1025A000FCE5DF0708F41BC1C6319CE5D90738F00C
:1025B0009E012A5F3C452930310508F010C10E9478
:1025C000EC1F90937E0380937D03C031ECE5DE0722
:1025D00009F4C3C008F041C0C8308CE5D80709F43D
:1025E0009AC0F0F4C430ECE5DE0709F487C068F463
:1025F000C2308CE5D80709F477C0C330DC4509F058
:10260000E3C080917D03826076C0C630ECE5DE07D2
:1026100009F46EC008F07BC080917D0388606BC0B8
:10262000CC308CE5D80709F485C068F4CA30ECE5F5
:10263000DE0709F474C008F079C00E941319809174
:102640007D03806858C0CE308CE5D80709F476C089
:1026500008F07FC080917D038BC0CB3FECE5DE07A7
:1026600009F44FC018F5C3318CE5D80709F47DC0D3
:1026700078F4C131ECE5DE0709F473C0C231DC4502
:1026800009F0A2C00E94131980917D038F7733C097
:10269000C5318CE5D80709F472C008F486C0CA3F7A
:1026A000DC4509F091C080917E033EC0CF3FFCE540
:1026B000DF0709F45FC058F4CD3F9CE5D90709F462
:1026C00044C008F43FC080917E0382602DC0C130B9
:1026D000FDE5DF0709F475C008F45DC0C230DD45D3
:1026E00009F072C080E06EC080917D03816003C0FC
:1026F00080917D03806180937D0366C080917D031E
:1027000011C080917E03826080937E035DC08091C2
:102710007D038062F0CF80917D038064ECCF809157
:102720007D0388608460E7CF8160EECF80917D0378
:102730008E7FE1CF80917D038D7FDDCF80917D0302
:10274000877FD9CF80917E0318C080917E038D7FD3
:10275000DBCF80917D038F7ECECF80917D038F7DF7
:10276000CACF80917D038F7BC6CF80917D03877F09
:102770008B7FC1CF80917E038D7F8E7FC5CF80916F
:102780007D0382FB222720F991E0922790FB82F9BA
:1027900090FB83F9B0CF80917E03982F9095917034
:1027A0008E7F892B90FB81F9AFCF0E941319809106
:1027B0007D0387FB222720F991E0922790FB87F980
:1027C0009ACF81E00E947B2080917D0390917E03CF
:1027D0000E94FD1F0E94131980E001C081E0DF917B
:1027E000CF910895CF93DF9386319C4541F5EB015E
:1027F0000E941E1F982F8A81209116013091170187
:10280000882379F09A7A81E009F480E080933E028F
:10281000911102C069E201C065E3C9010E9416215D
:102820000AC080913E02811102C069E201C065E3E5
:10283000C9010E9421210E946C1F80E001C081E03B
:10284000DF91CF91089590934402809343020895BD
:10285000E0914302F0914402309721F00190F08121
:10286000E02D099480E00895E0914302F091440244
:10287000309799F020912201222359F020917D0375
:1028800027FF07C0DC012C9111962C93119725E0AE
:102890002C930280F381E02D099408952091410248
:1028A000309142022817390771F0909342028093C9
:1028B0004102E0914302F0914402309721F00680FA
:1028C000F781E02D0994089520913F023091400254
:1028D0002817390771F09093400280933F02E091EE
:1028E0004302F0914402309721F00084F185E02DFD
:1028F0000994089585B7806885BF85B7806885BFCE
:10290000089508950C9481140C9482140C948114ED
:102910000C9424050E947A140E9486140C9484144A
:1029200081E008950C9490140E94D9210E948D0892
:102930000E94A1220E94F70FEDE7F3E080818068FA
:10294000808380917D0390917E030E94FD1F0C94F3
:1029500088147F928F929F92AF92BF92CF92DF9214
:10296000EF92FF920F931F93CF93DF93CDB7DEB714
:102970002A970FB6F894DEBF0FBECDBF0E94DF08C6
:102980000E949214811111C08FEF89838A831B8268
:102990000E94E2218160782F9D838C8349815A8136
:1029A0006B818D810E9459154FC046E4A42E42E0F0
:1029B000B42E00E010E0702E802F0E9476086C018B
:1029C000F501819091905F018826992681149104E8
:1029D00031F40F5F1F4F0730110569F7D5CF809194
:1029E000FB0281FD0E947F0880E0EE24E394F12C3D
:1029F00094012E213F21232B09F18E837F82CE204B
:102A0000DF2081E0CD2809F480E088870E94E22160
:102A10008160782F9A8789874E815F8168858A8552
:102A20000E945915000F111FF801EA5BFD4F8081CC
:102A30009181E826F926F182E08206C08F5FEE0CD4
:102A4000FF1C8E30A9F6C5CF0E94A0100E9428144A
:102A5000909145028917C9F00E942814809345027D
:102A60002A960FB6F894DEBF0FBECDBFDF91CF918F
:102A70001F910F91FF90EF90DF90CF90BF90AF909C
:102A80009F908F907F900C9412062A960FB6F89420
:102A9000DEBF0FBECDBFDF91CF911F910F91FF9091
:102AA000EF90DF90CF90BF90AF909F908F907F90EE
:102AB0000895CF93DF93CDB7DEB72B970FB6F89479
:102AC000DEBF0FBECDBF4F83588769877A878B875C
:102AD000DE01119686E0FD0111928A95E9F785E005
:102AE000FE01379601900D928A95E1F749815A814E
:102AF0006B817C818D819E810E94EB1B2B960FB692
:102B0000F894DEBF0FBECDBFDF91CF910895FC01D9
:102B1000808191810E94DF1E0895CF93882309F45C
:102B20009CC0C82F8238C1F40E94281481FD95C032
:102B300069E380911601909117010E9416210E946D
:102B40006C1F2FEF81EE94E0215080409040E1F720
:102B500000C0000069E319C0833801F50E94281401
:102B600080FD7BC063E580911601909117010E9462
:102B700016210E946C1F2FEF81EE94E021508040BF
:102B80009040E1F700C0000063E58091160190914C
:102B900017010E942121CF910C946C1F8438C1F43D
:102BA0000E94281482FD59C067E48091160190911B
:102BB00017010E9416210E946C1F2FEF81EE94E0F6
:102BC000215080409040E1F700C0000067E4DDCF75
:102BD0008CEF8C0F813AD0F46C2F8091160190917C
:102BE00017010E949620882349F06C2F80911601CE
:102BF000909117010E9421210E946C1F6C2F8091DF
:102C00001601909117010E941621C5CF80E28C0F0A
:102C1000883048F4C77081E001C0880FCA95EAF790
:102C20000E94211FB8CFEBE5EC0FE33040F4F0E059
:102C3000EA53FE4F808190E0CF910C944E14C85A15
:102C4000C73158F4EC2FF0E0EE0FFF1FE856FE4FAF
:102C500080819181CF910C946414CF910895882341
:102C600009F45BC0682F823879F40E94281481FF30
:102C700054C069E380911601909117010E941621BA
:102C80000E946C1F69E310C08338B1F40E942814BD
:102C900080FF43C063E580911601909117010E9467
:102CA00016210E946C1F63E5809116019091170117
:102CB0000E9421210C946C1F843879F40E942814FE
:102CC00082FF2BC067E480911601909117010E944A
:102CD00016210E946C1F67E4E7CF8CEF860F813AC4
:102CE00018F380E2860F883048F4677081E001C0F5
:102CF000880F6A95EAF70E94271FDCCF8BE5860FC5
:102D0000833020F480E090E00C944E14685A6731D0
:102D100020F480E090E00C9464140895CF93C82FC1
:102D20000E948D15C93349F42FEF87EE93E02150AF
:102D300080409040E1F700C000008C2FCF910C94B0
:102D40002F16882321F00E94211F0C946C1F0895D8
:102D5000882321F00E94271F0C946C1F0895CF92A6
:102D6000DF92EF92FF920F931F93CF93DF937C013B
:102D7000062FC72FFC01158112951F70D281D1112A
:102D80000E943E1F0E94171F882379F0DD2369F0FF
:102D900080E2800F883048F082E00E94B61F0E94D7
:102DA000171F91E0D82ED92601C0D12CCC2EC29469
:102DB0008FE0C8228C2D90E0FC01E659FF4F0C9467
:102DC000F02A8C2F807FCF70882311F0C295C07FAE
:102DD000DD2399F0CC2309F482C180E2800F883092
:102DE00010F0011104C08C2F0E94211F03C08C2FF2
:102DF0000E94311F0E946C1F72C1802F0E942F16EB
:102E0000CC2309F491C180E2800F883010F00111C9
:102E100004C08C2F0E94271F03C08C2F0E94371FD5
:102E20000E946C1F81C18C2F807FCF70803211F087
:102E3000C295C07F002319F00130C9F022C0DD2304
:102E400071F0112341F0113031F40E94511F8C2B8D
:102E50000E94591F69C10E94511F8C2B1DC0112354
:102E600019F0113009F460C10E94621F25C0DD23F2
:102E700021F0163008F058C10EC0153008F054C1CA
:102E80001BC0DD2361F0112331F0F701858180FF44
:102E900026C18F7085838C2F0E94A11645C11123F6
:102EA00059F0093309F02CC1FFEF27EE83E0F15010
:102EB00020408040E1F722C18C2F0E94A81634C127
:102EC0008C2F86958695837019F0813061F02CC126
:102ED000DD2321F0802F9C2F937002C080E090E0D2
:102EE0000E944E1429C1DD2321F0802F9C2F937066
:102EF00002C080E090E00E9464141EC18C2F837099
:102F000009F045C0D11114C1402F42954695477034
:102F1000440F440F602F6F70862F90E0A0E0B0E068
:102F2000042E04C0880F991FAA1FBB1F0A94D2F752
:102F300004FF10C00FE010E020E030E004C0000FFC
:102F4000111F221F331F4A95D2F700951095209527
:102F5000309503C000E010E09801C695C695C37097
:102F6000BC01CD01602B712B822B932BC23049F019
:102F700058F4C13019F00E943C1DDAC00E942A1D8D
:102F8000D7C00E944E1DD4C00E94281DD1C0DD2391
:102F900019F08C2F817001C08695882309F4C8C070
:102FA000402F429546954770440F440F602F6F7035
:102FB000862F90E0A0E0B0E0042E04C0880F991F97
:102FC000AA1FBB1F0A94D2F704FF10C00FE010E045
:102FD00020E030E004C0000F111F221F331F4A956C
:102FE000D2F7009510952095309503C000E010E0D1
:102FF0009801C695C695C370BC01CD01602B712B9D
:10300000822B932BC23049F058F4C13019F00E9442
:10301000211E8EC00E940F1E8BC00E94331E88C0CE
:103020000E94621D85C0CF70DD2339F08C2F0E9475
:10303000A81D802F0E94A1167BC0802F0E94A81679
:103040008C2F0E94C91D74C0023F01F128F4003F7B
:1030500041F0013FA1F03FC0033FF9F0043F39F1D7
:103060003AC0DD2341F0153008F05EC08C2F8F711F
:103070000E94EE1D59C0163008F056C0F7CFDD2370
:1030800039F08C2F8F710E94A81D4EC0DD23C9F32B
:103090008C2F8F710E94C91D47C0DD2329F08C2F12
:1030A0008F710E94931D40C00E946E1D3DC0DD23A4
:1030B00049F0CF718C2F0E94A81D63E08C2F0E94D5
:1030C000A11F32C081E00E94B61F123068F182E079
:1030D0000E94B61F29C0DD2331F0112391F2802F09
:1030E0000E948D1521C0112399F2093349F49FEFF5
:1030F000E7EEF3E09150E040F040E1F700C000005F
:10310000802F0E942F1610C04C2F4F70602FC701C8
:103110000E946E060E94991C0FC04C2F4F70602FAA
:10312000C7010E94710608C088EF8C0D843020F41E
:103130000E9428140E941206DD20C9F00E94131F6D
:1031400080FD15C0F70112820E940D1F0E94A81D6C
:10315000C7010E94D8180E940D1FDF91CF911F91C7
:103160000F91FF90EF90DF90CF900C94C91DDF91ED
:10317000CF911F910F91FF90EF90DF90CF90089526
:103180000F931F93CF93DF93EC01688179818A813C
:103190000E94EA1E8C010E94451E0E94161DB80165
:1031A000CE010E94AF16DF91CF911F910F9108952C
:1031B000CF93DF93FC019081818123813481232B84
:1031C00031F08F3F31F481E09F3F19F403C081E07B
:1031D00001C080E080FD0EC0EF01CF010E942B06F0
:1031E000882341F0CE010E94C018CE01DF91CF911B
:1031F0000C94F805DF91CF9108950E943E1F0E9424
:103200004E1F0E946C1F80E090E00E944E1480E0F0
:1032100090E00C94641480911601909117010E9423
:103220002C210C94FD180E942E1F0C940B19E92FD1
:10323000E295EF704E2F50E0FA013297EE30F10533
:10324000B0F4E658FF4F0C94F02A803F91F018F448
:10325000883E68F40EC0843F51F40BC0883E48F0AD
:10326000813F29F406C093FB882780F9089580E008
:10327000089581E008950E94DF1E0E9417190895A5
:10328000CF93DF9300D000D01F92CDB7DEB70F9061
:103290000F900F900F900F90DF91CF910895CF93E3
:1032A000DF9300D000D000D0CDB7DEB726960FB6A2
:1032B000F894DEBF0FBECDBFDF91CF9108951F936D
:1032C000CF93DF93C091550216E080915602C81744
:1032D00099F0D0E01C9FF0011D9FF00D1124E95AD8
:1032E000FD4F4081518162817381848195810E946B
:1032F0004F192196C770E9CFDF91CF911F910895A3
:1033000040918702509188026091890270918A02EF
:1033100080918B0290918C020C944F192091550250
:103320009091560256E02917A9F030E0529FF00123
:10333000539FF00D1124E95AFD4F7181761306C099
:103340007081781303C07281741306C02F5F3F4FE2
:103350002770E9CF80E0089581E008950F931F93CF
:10336000CF93DF9380918C0282958F7009F05DC0BE
:1033700080918902882309F458C0809155021091E8
:1033800056026091870270918802C0918A02D091A2
:103390008B0291E06F3F09F090E0292F06E0811742
:1033A00009F443C0209721F07F3F21F030E003C0B3
:1033B00031E001C0322F90E030FD34C0089FF001B1
:1033C000099FF00D1124DF01A95ABD4F11963C91C0
:1033D0001197371327C03C91361324C012963C91A5
:1033E000129731111FC013964D915C9114974C1B8D
:1033F0005D0B4E3A5105B0F480918C028F70806164
:1034000080938C02E45AFD4F80818F7080618083AD
:1034100087E892E00E94D818DF91CF911F910F9119
:103420000C945F1901968770BACFDF91CF911F91ED
:103430000F9108958F929F92AF92BF92CF92DF9299
:10344000EF92FF920F931F93CF93DF93CDB7DEB729
:1034500061970FB6F894DEBF0FBECDBF7C0185E04B
:10346000F701DE011D9601900D928A95E1F7D701D3
:10347000DC9011960C9111971296CC909091870246
:103480002091880240918A0250918B02411551058A
:1034900031F02F3F31F481E09F3F19F403C081E008
:1034A00001C080E080FD66C1F7018380948087E8D9
:1034B000A82E82E0B82E10918902B401641B750B0E
:1034C000112309F423C180918C02382F307F6E3A8A
:1034D000710508F0DCC031118AC0021314C0D91282
:1034E00012C01C2DC1100FC08F70806180938C02A0
:1034F0000E948019C5010E94D81880918C02D701C2
:1035000015968C9354C18114910439F00F3F39F40E
:1035100081E0BFEFDB1203C003C081E001C080E0A7
:1035200080FD03C081E08C2502C080E090E080FF38
:1035300010C04C2D602F8D2D0E948E19882349F0CC
:1035400087E892E00E94D818E7E8F2E086E0DF0121
:10355000AFC0892839F00F3F39F481E0BFEFDB12AB
:1035600003C003C081E001C080E080FD03C081E0B2
:103570008C2502C080E090E0E82FE170BE2E80FF35
:103580002CC04C2D602F8D2D0E948E19182F81116B
:1035900024C0DD860E878D859E850E94DF1E292F23
:1035A00022952F70223018F0243090F405C09F70BF
:1035B00059F0811109C0FBC09F7031F0D7011596F9
:1035C0009C91907F09F4F3C0805E883008F4EFC0CE
:1035D000C7010E94D8181B2DEAC01C2DCC2009F46D
:1035E000E6C080918C02816080938C0266C00213D9
:1035F00012C0D91210C0C1100EC0F7018583C701D7
:103600000E94D81886E0F701A7E8B2E001900D9279
:103610008A95E1F7CAC0DD860E878D859E850E945A
:103620003B19882379F1CC2069F120918C02822FFB
:1036300082958F7090E0029774F08091870290914C
:10364000880298878F8319869B868A862C87CE016D
:1036500007960E94D81886E0F701A7E8B2E001902B
:103660000D928A95E1F70E94AE190E9480190DC053
:10367000021729F1DD860E878D859E850E943B19F4
:1036800081112CC0C7010E94D81811E090C03111DF
:10369000EFCF782D998A888A4D2D502F6C2D8989EE
:1036A0000E94401987E892E00E94D81886E0D50170
:1036B0001D928A95E9F70E94801910E078C0D9120E
:1036C000D9CFC110D7CFF7018583C7010E94D81881
:1036D00086E0D5011D928A95E9F769C0CC2091F268
:1036E00020918C02822F82958F7090E002970CF4CB
:1036F000B2CF80918702909188029A8389831B823E
:103700009D828C822E83CE010196A3CF6E3A7105E5
:1037100010F51C2DCC2009F4B5CF02130BC0D91223
:1037200009C086E0F701A7E8B2E001900D928A9502
:10373000E1F73DC0DD860E878D859E850E943B1991
:10374000811189CF80918C02816080938C02C701A6
:103750000E94D8182CC0782D998A888A4D2D502F18
:103760006C2D89890E94401986E0F50111928A9595
:10377000E9F71BC0CC2009F485CFDD860E878D8547
:103780009E850E943B19182F882309F47BCF86E081
:10379000F701A7E8B2E001900D928A95E1F787E87A
:1037A00092E00E9487150E94AE190E948019812F15
:1037B00061960FB6F894DEBF0FBECDBFDF91CF91FB
:1037C0001F910F91FF90EF90DF90CF90BF90AF903F
:1037D0009F908F9008951F93CF93DF93CDB7DEB75F
:1037E0002C970FB6F894DEBF0FBECDBF4F8358871E
:1037F00069877A878B879C87CE0107960E941A1A61
:103800008823D1F09F8188852A853B85232B31F041
:103810008F3F31F481E09F3F19F403C081E001C084
:1038200080E080FD47C04F81588569857A858B850A
:103830009C850E944F193EC086E0FE013796DE014E
:10384000119601900D928A95E1F7FF81E8856A85CE
:103850007B856115710531F0EF3F31F481E0FF3F69
:1038600019F403C081E001C080E080FD23C02091F5
:10387000560230E0C90101968770992740915502A0
:1038800050E084179507F1F1F983EA837D836C8317
:1038900096E0929FD001939FB00D1124A95ABD4F7D
:1038A000FE01319601900D929A95E1F780935602B0
:1038B0000E945F1916E08091550290915602891777
:1038C00071F1189FC0011124895A9D4F0E941A1A44
:1038D000882329F1E09155021E9FF0011124E95A35
:1038E000FD4F4081518162817381848195810E9465
:1038F0004F198091550290E0019687709927809327
:103900005502D9CF0E9413191092560210925502F7
:10391000E7E8F2E086E0DF011D928A95E9F72C9650
:103920000FB6F894DEBF0FBECDBFDF91CF911F91D0
:103930000895EF92FF920F931F93CF93DF938C0123
:10394000892B09F46CC0F12CEE24E394E801219654
:10395000F8018491843740F4843008F051C08130FC
:1039600081F0823019F15BC0853709F444C0A8F1B9
:103970009CE7980F903708F052C08F770E942F165F
:1039800041C00E5F1F4FFE01849190E2980F983066
:1039900050F48770FE2D01C0FF0F8A95EAF78F2F34
:1039A0000E94411F14C00E948D152DC00E5F1F4F35
:1039B000FE01849190E2980F983060F48770FE2D9C
:1039C00001C0FF0F8A95EAF78F2F0E94471F0E94C0
:1039D0006C1F19C00E942F1616C00E5F1F4FFE01EC
:1039E000C491CC2381F08FE99FE00197F1F700C0EB
:1039F0000000C150F6CF0E5F1F4FFE01F49003C0D0
:103A00000E948D158E018F2D882309F49FCFEFE939
:103A1000FFE03197F1F700C000008150F5CFDF9152
:103A2000CF911F910F91FF90EF9008950895089501
:103A30000C94171D0C94181D0E941A1D6093D2023D
:103A40007093D3028093D4029093D5020C94FD1806
:103A50000C941C1D0F931F930091D2021091D3025E
:103A60002091D4023091D502602B712B822B932BA5
:103A70001F910F910C941C1D0F931F930091D20264
:103A80001091D3022091D4023091D502602371238A
:103A9000822393231F910F910C941C1D0F931F934E
:103AA0000091D2021091D3022091D4023091D5021C
:103AB00060277127822793271F910F910C941C1D5B
:103AC0000C9487050E94601D6093CE027093CF0214
:103AD0008093D0029093D1020C94FD1860E070E0C6
:103AE000CB010C94621D611571058105910529F4C6
:103AF00081E0442361F080E00895DC01CB0104C043
:103B0000B695A795979587954A95D2F781700895B0
:103B1000482F6091CE027091CF028091D002909197
:103B2000D1020C94731D0F931F9341E050E060E0AD
:103B300070E08A019B0104C0000F111F221F331F78
:103B40008A95D2F7C901B8011F910F910C94621D9B
:103B50000F931F9341E050E060E070E004C0440F19
:103B6000551F661F771F8A95D2F78091CE029091DC
:103B7000CF02A091D002B091D1028A019B01082B03
:103B8000192B2A2B3B2BC901B8011F910F910C94C3
:103B9000621D0F931F9341E050E060E070E004C0AD
:103BA000440F551F661F771F8A95D2F74095509591
:103BB000609570958091CE029091CF02A091D00235
:103BC000B091D1028A019B01082319232A233B23A8
:103BD000C901B8011F910F910C94621D0F931F939F
:103BE00041E050E060E070E004C0440F551F661FE4
:103BF000771F8A95D2F78091CE029091CF02A09143
:103C0000D002B091D1028A019B01082719272A27E7
:103C10003B27C901B8011F910F910C94621D0F93AE
:103C20001F930091CE021091CF022091D0023091CB
:103C3000D102602B712B822B932B1F910F910C942F
:103C4000621D0F931F930091CE021091CF0220911D
:103C5000D0023091D10260237123822393231F91DC
:103C60000F910C94621D0F931F930091CE0210913F
:103C7000CF022091D0023091D10260277127822794
:103C800093271F910F910C94621D08952EE0929F2F
:103C9000800D1124E82FE695E695E695877051E0B2
:103CA00001C0550F8A95EAF785E0E89FF0011124DD
:103CB000E357FD4F20E030E070E04081CB01022E61
:103CC00002C0969587950A94E2F7817081958427C2
:103CD0008523842781932F5F3F4F2530310569F776
:103CE00008952EE0929F800D1124682F66956695A9
:103CF0006695982F977085E0689FB001112440E089
:103D000050E080E0FB01E40FF51FE357FD4F2081F9
:103D100030E0092E02C0369527950A94E2F721700B
:103D20003327042E01C0220F0A94EAF7822B4F5F3B
:103D30005F4F4530510531F70895BF92CF92DF9222
:103D4000EF92FF920F931F93CF93DF938C01C0905C
:103D5000CE02D090CF02E090D002F090D1028091BC
:103D6000D2029091D302A091D402B091D502C82A78
:103D7000D92AEA2AFB2ACFE1D0E0D701C6010C2ECE
:103D800004C0B695A795979587950A94D2F780FDBC
:103D900004C0219790F7B12C07C0BC2EB8018C2F1E
:103DA0000E948D060197A9F38B2DDF91CF911F9172
:103DB0000F91FF90EF90DF90CF90BF900895CF9339
:103DC000DF93EC010E949D1EBE010E948D06DF91D3
:103DD000CF9108951F93CF93DF93EB0190915402FD
:103DE000992321F0CB010E94DF1E13C0882349F0E4
:103DF000CB010E949D1E182F682FCE010E94461EE7
:103E000004C0CB010E94711E182FBE01812F0E9499
:103E10008D06DF91CF911F9108958091D6028595EF
:103E20008595859508958091D60287700895909123
:103E3000D602977081E009F480E008958091FA023B
:103E400008959091FA02892B8093FA020895809543
:103E50009091FA0289238093FA0208951092FA024F
:103E600008959091F902892B8093F9020895809525
:103E70009091F90289238093F90208951092F90232
:103E800008959091F802892B8093F8020895809507
:103E90009091F80289238093F80208951092F80215
:103EA00008958091D702089508950C94541F0C949E
:103EB000551F9091D702981721F08093D7020C9448
:103EC000571F08958091D702882329F01092D702B6
:103ED00080E00C94571F0895E0911601F0911701AE
:103EE0008091FA028083E0911601F0911701908190
:103EF0008091F902892B8083E0911601F0911701DE
:103F000090818091F802892B80838091D702882349
:103F100081F0E0911601F09117019081892B808347
:103F200080911601909117010E94802081110E94BA
:103F3000621F80911601909117010C9434140C9417
:103F4000800598E0899F90011124262B2093D602AA
:103F50000E94A81D8091D6028595859585950C9423
:103F60009F1F1092D60280E00C949F1F2091D602D2
:103F7000809582238093D602982F977079F430E051
:103F8000482F082E000C550B2417350739F085955E
:103F9000859585950E94C91D0C94B11F089580E0F8
:103FA00090E00E94762B21E08C3E9E4F09F020E0AD
:103FB000822F089582E090E00C94682B682F82E0B5
:103FC00090E00C947C2B83E090E00C94682B682F9D
:103FD00083E090E00C947C2BCF9384E090E00E94EF
:103FE000682BC82F81E290E00E94682B2C2F30E0D4
:103FF000A901582BCA01CF910895CF93C92F682FDB
:1040000084E090E00E947C2B6C2F81E290E0CF91C5
:104010000C947C2BAB01BC018FE090E00C948E2BB8
:10402000AB01BC0183E190E00C948E2B60E070E06A
:10403000CB010C94102060E070E0CB010E940A20BC
:104040000C9416206CEE7EEF80E090E00E949A2B9C
:1040500060E082E090E00E947C2B60E083E090E0F2
:104060000E947C2B1092D2021092D3021092D402A2
:104070001092D50260E084E090E00E947C2B60E02A
:1040800081E290E00E947C2B60E085E090E00E945D
:104090007C2B60E086E090E00E947C2B6FEF87E055
:1040A00090E00E947C2B40E050E0BA0188E090E074
:1040B0000E948E2B60E08DE090E00E947C2B40E01F
:1040C00050E0BA0188E190E00E948E2B60E087E129
:1040D00090E00E947C2B40E050E0BA018CE190E03F
:1040E0000E948E2B60E080E290E00E947C2B0C947A
:1040F0001B200C942220682F8EE090E00C947C2BE7
:10410000FC01329680912201882331F080917D0359
:1041100087FF02C09EE101C096E080E0915028F048
:1041200021912223D9F38F5FF9CF0895662351F1AE
:10413000209122012223E9F020917D0327FF19C05D
:10414000462F4695469546954E31E0F4677021E03E
:1041500030E002C0220F331F6A95E2F7FC01E40F42
:10416000F11D828190E02823392381E0232B69F41B
:1041700009C0FC01329608962191621729F0E817D0
:10418000F907D1F780E0089581E008959C01FC01D2
:1041900032969FEF80E04191461789F09F3F19F4D6
:1041A000411101C0982F8F5F8630A9F79F3F39F0EA
:1041B000F901E90FF11D97FDFA95628308950895BD
:1041C0009C012A5F3F4FFC014281461301C01282CD
:1041D000019682179307B9F70895262F26952695FD
:1041E00026952E3168F4FC01E20FF11D677021E085
:1041F00030E001C0220F6A95EAF78281282B2283E2
:104200000895262F2695269526952E3170F4FC01CB
:10421000E20FF11D677021E030E001C0220F6A95C6
:10422000EAF7209582812823228308952091220194
:10423000222329F020917D0327FD0C94ED200C947E
:10424000C62020912201222329F020917D0327FD01
:104250000C9401210C94E02020912201FC01329663
:10426000222331F080917D0387FF02C08EE101C0DF
:1042700086E0DF011D928A95E9F7089508950C9470
:104280003E210C943E21CF930E9441210E94DF08E1
:104290000E943F21C0E08C2F0E947608892B29F4D0
:1042A000CF5FC730C1F780E001C081E0CF910895B2
:1042B0000C943E210C9458210E945A218091830332
:1042C000843009F439C01092FC0220E488E190E0C7
:1042D0000FB6F894A895809360000FBE20936000FD
:1042E00080E00E9412060E949D108091FD028111C3
:1042F0000AC081E08093FD0280913E03817080932B
:10430000FE020E94650F0E945A2183B7817F84605C
:1043100083BF83B7816083BF7894889583B78E7F8E
:1043200083BF0FB6F894A895809160008861809350
:104330006000109260000FBE08950C943E210E9410
:1043400013190E9428140E9412061092FD028091F7
:10435000FE0281110E942A100E94770F0C949D2169
:104360001F920F920FB60F9211248F939F93AF93CA
:10437000BF938091FC02811113C0809179039091C9
:104380007A03A0917B03B0917C034196A11DB11DDE
:104390008093790390937A03A0937B03B0937C037B
:1043A000BF91AF919F918F910F900FBE0F901F9073
:1043B000189582E084BD93E095BD9AEF97BD8093F8
:1043C0006E0008952FB7F8948091790390917A0345
:1043D000A0917B03B0917C032FBF08959C014FB740
:1043E000F8948091790390917A03A0917B03B09126
:1043F0007C034FBF821B930B089578941F920F92FA
:104400000FB60F9211248F939F93AF93BF93809118
:10441000790390917A03A0917B03B0917C0301967C
:10442000A11DB11D8093790390937A03A0937B0320
:10443000B0937C03BF91AF919F918F910F900FBE6E
:104440000F901F901895F89481E08093E00080E22F
:104450008093D800E9ECF0E010828FE19EE40197B0
:10446000F1F700C000001DBA109268001CBC10BE1D
:104470001FBA10927A0010926E0010926F00109284
:104480007100109272001082ECEBF0E0108214B810
:1044900017B81AB81DB810BA108215B818B81BB8DA
:1044A0001EB811BA0C94003F0895AF92BF92CF92FC
:1044B000DF92EF92FF920F931F93CF93C0E0CC2433
:1044C000C394D12CE82EF12C8C2F0E9476085C012D
:1044D00000E010E0C601002E02C0880F991F0A9468
:1044E000E2F78A219B21892B31F40F5F1F4F0E3099
:1044F000110581F70AC0602F7C2F80E00E947206B0
:10450000E816F90691F781E004C0CF5FC730E1F605
:1045100080E0CF911F910F91FF90EF90DF90CF90AF
:10452000BF90AF900895CF93C82F8CE20E94552280
:10453000882321F08C2FCF910C94552280E0CF91CD
:104540000895CF930E94CF1F811102C00E9479204D
:10455000C5E6C15049F00E94DF088FE39CE901974E
:10456000F1F700C00000F5CF89E20E94932281118B
:1045700020C18AE20E94932281110E94792085E065
:104580000E94932281110E9423220E94DA1F8093AD
:10459000FB0287E00E9493228823A9F18BE10E940D
:1045A0009322882351F08091FB0281FB222720F97E
:1045B00091E0922790FB81F90EC08EE00E94932239
:1045C000882361F08091FB0282FB222720F991E091
:1045D000922790FB82F98093FB0215C080E10E9434
:1045E00093229091FB02882341F093FB222720F92C
:1045F00081E0822780FB93F904C0892F809580FB9E
:1046000090F99093FB028091FB020E94DE1F0E94B2
:10461000EC1F90937E0380937D0380EE0E94932293
:10462000882341F080917D03982F909590FB80F92D
:1046300080937D0389E30E949322882359F080911F
:104640007D0381FB222720F991E0922790FB81F9DD
:1046500080937D0382EE0E949322882359F08091FB
:104660007D0382FB222720F991E0922790FB82F9BB
:1046700080937D0386EE0E949322882359F08091D7
:104680007D0383FB222720F991E0922790FB83F999
:1046900080937D0383EE0E949322882359F08091BA
:1046A0007D0384FB222720F991E0922790FB84F977
:1046B00080937D0385E30E949322882359F08091A3
:1046C0007D0385FB222720F991E0922790FB85F955
:1046D00080937D0381E30E949322882359F0809187
:1046E0007D0386FB222720F991E0922790FB86F933
:1046F00080937D0381E10E949322882359F0809169
:104700007D0387FB222720F991E0922790FB87F910
:1047100080937D0380917D0390917E030E94FD1F15
:1047200087E20E949322C82F8EE10E94932281117A
:10473000C2608FE10E9493228111C46080E20E94D6
:1047400093228111C86081E20E9493228111C0618D
:1047500082E20E9493228111C06283E20E9493222E
:104760008111C06484E20E949322882311F0C06802
:1047700002C0CC2329F08C2F0E94E71F6C2F03C0AE
:104780000E94E31F682F70E080E090E00E94281DE7
:104790008FE00E949322882319F081E00E947B2001
:1047A00085E10E949322882321F080E0CF910C9430
:1047B0007B20CF91089580911F0308950895CF9392
:1047C000DF9300D01F92CDB7DEB790918303943072
:1047D00019F589837B836A8382E08093E9008FEFF8
:1047E0009091E800815095FD06C095ED9A95F1F7FE
:1047F00000008111F5CF8091E80085FF0DC040E0F9
:1048000050E063E070E0CE0101960E941026809196
:10481000E8008E778093E8000F900F900F90DF9163
:10482000CF910895CF93DF93EC010E94F32582305E
:1048300011F0843031F4BE0184E0DF91CF910C940B
:10484000DF23DF91CF910895BC0183E00C94DF2337
:10485000CF93DF93EC010E94F325823011F0843076
:10486000D9F580912201882339F080917D0387FF5B
:1048700003C060E282E002C068E081E08093E9006A
:104880008FEF9091E800815095FD06C095ED9A95C7
:10489000F1F700008111F5CF8091E80085FF1CC081
:1048A00080912201811105C040E050E068E070E095
:1048B00003C070E040E050E0CE010E9410268091DD
:1048C000E8008E778093E80080E2FE01AFEFB2E06F
:1048D00001900D928A95E1F7DF91CF910895809133
:1048E0008203811109C00E94A1270E94FE278091A6
:1048F000E20084608093E20008951092820308959C
:10490000089508950C949F2142E061EC81E00E949B
:104910001A2742E261EC82E00C941A278091850309
:10492000833009F460C030F4813071F0823009F4D2
:1049300099C008958A3009F485C08B3009F46BC0A2
:10494000893009F0A7C020C080918403813A09F022
:10495000A1C08091E800877F8093E8008091880360
:1049600090918903892B21F460E28FEF92E003C0DC
:1049700060E080E090E070E00E945B268091E800BB
:104980008B778093E800089580918403813209F049
:1049900081C08091880390918903029708F07AC0C2
:1049A0008091E800877F8093E8008091E80082FD95
:1049B00005C0809183038111F8CF6CC02091F30072
:1049C0008091F20090E0922B029729F48091F100FF
:1049D0008B7F813021F48091F10080931F038091BF
:1049E000E8008B7753C080918403813A09F052C06C
:1049F0008091880390918903892B09F04BC08091A5
:104A0000E800877F8093E8008091E80080FFFCCF7A
:104A10008091220136C0809184038132D9F5809142
:104A2000880390918903892BA9F58091E800877FFD
:104A30008093E8000E944F27809186038093220193
:104A40000C94131980918403813221F58091E80040
:104A5000877F8093E8000E944F278091870380938F
:104A60002003089580918403813AA1F48091E800A5
:104A7000877F8093E8008091E80080FFFCCF8091E1
:104A800020038093F1008091E8008E778093E80006
:104A90000C944F27089584B7877F84BF0FB6F8948E
:104AA000A8958091600088618093600010926000FA
:104AB0000FBE90E080E80FB6F89480936100909369
:104AC00061000FBE0E948A140E94A1270E94FE2747
:104AD0008091E20084608093E20078940E94932A9F
:104AE0000E94941488E191E00E9423148091830332
:104AF000853069F40E945C21809181038823B1F3A1
:104B00000E944321882391F30E94FA25EFCF0E944F
:104B1000A914ECCF0C948C25292F33272330310591
:104B2000C9F060F42130310581F02230310509F0FF
:104B30004AC08BE390E020E139E049C021323105E1
:104B400011F12232310579F13EC082E190E02BE48F
:104B500039E03DC099278130910561F040F0823005
:104B6000910559F0039779F5E8EDF8E008C0ECE01D
:104B7000F9E005C0EEEEF8E002C0EEEDF8E0849159
:104B800090E09F0124C06115710541F0613071050D
:104B9000D1F489E090E02BE339E019C089E090E09E
:104BA00022E239E014C06115710541F061307105F0
:104BB00051F48DE690E02DE539E009C080E490E005
:104BC0002AEC39E004C080E090E020E030E0FA0117
:104BD00031832083089580918303843011F081E034
:104BE000089582E0089580912103811102C00C9400
:104BF000EB25089580E189BD82E189BD09B400FEFD
:104C0000FDCF8091D8008F7D8093D8008091E00007
:104C100082608093E0008091E00081FDFCCF0895E8
:104C2000CF92DF92EF92FF920F931F93CF93DF9378
:104C3000EC018B017A010E946E27811133C0E114CF
:104C4000F10439F0F70180819181081B190BC80F1D
:104C5000D91FC12CD12C0115110519F18091E80043
:104C600085FD16C08091E8008E778093E800E114FE
:104C7000F10449F0F70180819181C80ED91ED182DB
:104C8000C08285E00FC00E946E27882321F30AC0EE
:104C900089918093F10001501109FFEFCF1ADF0ACB
:104CA000DACF80E0DF91CF911F910F91FF90EF90CD
:104CB000DF90CF90089520918A0330918B032617BF
:104CC000370748F06115710539F42091E8002E7717
:104CD0002093E80001C0B901FC0120E061157105D5
:104CE00079F1809183038823F1F18530F1F180918E
:104CF000E80083FD3CC08091E80082FD2EC08091D9
:104D0000E80080FFEBCF2091F3008091F20090E06B
:104D1000922B6115710551F08830910538F421917D
:104D20002093F100615071090196F3CF21E00897BB
:104D300009F020E08091E8008E778093E800CECFE4
:104D40002111CFCF0AC080918303882361F0853081
:104D500061F08091E80083FD0AC08091E80082FF45
:104D6000F2CF80E0089582E0089583E0089581E025
:104D7000089520918A0330918B032617370748F056
:104D80006115710539F42091E8002E772093E80031
:104D900001C0B901FC0120E06115710591F180911C
:104DA0008303882309F440C0853009F43FC0809113
:104DB000E80083FD3DC08091E80082FD2FC0809116
:104DC000E80080FFE9CF2091F3008091F20090E0AD
:104DD000922B6115710559F08830910540F42491AA
:104DE0002093F1003196615071090196F2CF21E0D4
:104DF000089709F020E08091E8008E778093E80022
:104E0000CBCF2111CCCF0AC080918303882361F0DE
:104E1000853061F08091E80083FD0AC08091E80050
:104E200082FFF2CF80E0089582E0089583E0089544
:104E300081E00895982F973068F59093E9009817CE
:104E400039F07091EC002091ED005091F00003C01A
:104E5000242F762F50E021FD02C09F5FECCF3091D0
:104E6000EB003E7F3093EB003091ED003D7F3093BF
:104E7000ED003091EB0031603093EB007093EC006B
:104E80002093ED005093F0002091EE0027FDE5CF38
:104E900080E008958F708093E90081E0089580910B
:104EA000840387FF11C08091E80082FD05C08091D6
:104EB00083038111F8CF11C08091E8008B770BC07C
:104EC00080918303882349F08091E80080FFF8CF28
:104ED0008091E8008E778093E80008952091E400A7
:104EE0003091E50095E64091EC00842F817040FF01
:104EF00023C08091E80080FD1DC08091830388233A
:104F000099F0853099F08091EB0085FD11C04091BA
:104F1000E4005091E5002417350729F3915011F072
:104F20009A01E1CF84E0089582E0089583E0089536
:104F300081E0089580E008954091E80042FFDDCFD0
:104F400008950E940F280E941728E0EEF0E080816B
:104F500081608083E8EDF0E080818F77808319BCE9
:104F6000A7EDB0E08C918E7F8C9380818F7E8083C3
:104F70001092820308950F931F93CF93DF930E94A3
:104F80000F280E941728C8EDD0E088818F7788838A
:104F900088818068888388818F7D888319BC10927E
:104FA000830310927F03109281031092800300EE1E
:104FB00010E0F80180818B7F808388818160888305
:104FC00042E060E080E00E941A27E1EEF0E080819C
:104FD0008E7F8083E2EEF0E080818160808380813B
:104FE00088608083F80180818E7F808388818061E2
:104FF0008883DF91CF911F910F910895E8EDF0E044
:1050000080818F7E8083E7EDF0E080818160808306
:1050100084E082BF81E0809382030C94BB27E8ED9B
:10502000F0E080818E7F80831092E20008951092DC
:10503000DA001092E10008951F920F920FB60F92BE
:1050400011242F933F934F935F936F937F938F938D
:105050009F93AF93BF93EF93FF938091E10082FF03
:105060000BC08091E20082FF07C08091E1008B7F3E
:105070008093E1000E94922A8091DA0080FF1FC095
:105080008091D80080FF1BC08091DA008E7F8093D2
:10509000DA008091D90080FF0DC080E189BD82E1F6
:1050A00089BD09B400FEFDCF81E0809383030E9497
:1050B0006F2405C019BC109283030E947D24809147
:1050C000E10080FF19C08091E20080FF15C080914F
:1050D000E2008E7F8093E2008091E2008061809305
:1050E000E2008091D80080628093D80019BC85E0EE
:1050F000809383030E9481248091E10084FF30C06B
:105100008091E20084FF2CC080E189BD82E189BDED
:1051100009B400FEFDCF8091D8008F7D8093D80028
:105120008091E1008F7E8093E1008091E2008F7E8C
:105130008093E2008091E20081608093E2008091A0
:105140007F03882311F084E007C08091E30087FD8E
:1051500002C081E001C083E0809383030E94822427
:105160008091E10083FF29C08091E20083FF25C088
:105170008091E100877F8093E10082E08093830348
:1051800010927F038091E1008E7F8093E1008091F7
:10519000E2008E7F8093E2008091E2008061809344
:1051A000E20042E060E080E00E941A278091F00077
:1051B00088608093F0000E948024FF91EF91BF915E
:1051C000AF919F918F917F916F915F914F913F919F
:1051D0002F910F900FBE0F901F9018951F920F9256
:1051E0000FB60F9211242F933F934F935F936F93BA
:1051F0007F938F939F93AF93BF93CF93DF93EF935F
:10520000FF93C091E900CF708091EC00D82FD1704E
:1052100080FDD0E81092E9008091F000877F8093B4
:10522000F00078940E9432291092E9008091F000F9
:1052300088608093F000CD2BCF70C093E900FF9180
:10524000EF91DF91CF91BF91AF919F918F917F911E
:105250006F915F914F913F912F910F900FBE0F90E3
:105260001F9018951F93CF93DF93CDB7DEB7AA9702
:105270000FB6F894DEBF0FBECDBFE4E8F3E0809137
:10528000F100819323E0EC38F207C9F70E948E24E5
:105290008091E80083FF2EC1809184039091850363
:1052A000492F50E04A30510508F024C1FA01E8576F
:1052B000FF4F0C94F02A803821F0823809F01AC18F
:1052C00008C08091800390918103992389F08260C6
:1052D0000FC0809188038F70873008F00BC18093D6
:1052E000E9008091EB0085FB882780F91092E900A6
:1052F0009091E800977F9093E8008093F1001092DE
:10530000F100D1C0282F2D7F09F0F4C0882319F0B7
:10531000823061F0EFC080918603813009F0EAC0ED
:10532000933009F080E0809381032EC08091860342
:1053300081112AC0809188038F702FEF280F2630AB
:1053400008F0D8C08093E9002091EB0020FF1CC03A
:10535000933021F48091EB00806214C09091EB00B7
:1053600090619093EB0021E030E0A90102C0440F6E
:10537000551F8A95E2F74093EA001092EA00809167
:10538000EB0088608093EB001092E9008091E800C8
:10539000877F8093E8000E944F27ACC08111AAC08C
:1053A000109186031F778091E3008078812B809392
:1053B000E3008091E800877F8093E8000E944F27F8
:1053C0008091E80080FFFCCF8091E30080688093AB
:1053D000E300111102C082E001C083E080938303E7
:1053E00089C08058823008F085C0809186039091F2
:1053F00087038C3D53E0950779F583E08A838AE241
:1054000089834FB7F894DE01139620E03EE051E225
:10541000E32FF0E050935700E49120FF03C0E295A2
:10542000EF703F5FEF708E2F90E0EA3010F0C7967C
:1054300001C0C0968D939D932F5F243149F74FBFD4
:105440008091E800877F8093E8006AE270E0CE01F7
:1054500001960E945B2616C06091880370918903B3
:10546000AE014F5F5F4F0E948A25BC01892B09F472
:1054700041C09091E800977F9093E80089819A81DC
:105480000E94B9268091E8008B778093E80032C0B3
:10549000803881F58091E800877F8093E8008091D3
:1054A0007F038093F1008091E8008E7772CF8111A5
:1054B00021C0809186039091870399270297D4F4A5
:1054C0008091E800877F8093E80080918603809335
:1054D0007F030E944F2780917F03811106C0809136
:1054E000E30087FD02C081E001C084E08093830374
:1054F0000E9484248091E80083FF0AC08091E80024
:10550000877F8093E8008091EB0080628093EB00BE
:10551000AA960FB6F894DEBF0FBECDBFDF91CF9134
:105520001F9108950895CF93809183038823A1F05C
:10553000C091E900CF709091EC00892F817090FDAF
:1055400080E8C82B1092E9008091E80083FD0E945A
:105550003229CF70C093E900CF910895991B79E06B
:1055600004C0991F961708F0961B881F7A95C9F7F3
:105570008095089587FB082E062687FD819567FD97
:1055800061950E94AE2A0EF4919507FC81950895CD
:10559000AA1BBB1B51E107C0AA1FBB1FA617B70759
:1055A00010F0A61BB70B881F991F5A95A9F7809575
:1055B0009095BC01CD01089597FB072E16F4009439
:1055C00007D077FD09D00E94C82A07FC05D03EF419
:1055D000909581959F4F0895709561957F4F08959F
:1055E000EE0FFF1F0590F491E02D09948F929F928A
:1055F000AF92BF92CF92DF92EF92FF92CF93DF9361
:10560000EC01688179818A819B8161157105810531
:10561000910521F464E279ED8BE597E02DE133EF1C
:1056200041E050E00E94B02B49015A019B01AC01BE
:10563000A7EAB1E40E94CF2B6B017C01ACEEB4EF82
:10564000A50194010E94DD2BDC01CB018C0D9D1D79
:10565000AE1DBF1DB7FF03C00197A109B0488883E5
:105660009983AA83BB839F77DF91CF91FF90EF90BF
:10567000DF90CF90BF90AF909F908F9008950E9441
:10568000F62A089580E091E00E94F62A0895A0E0AD
:10569000B0E08093000190930101A0930201B093C8
:1056A00003010895FB01DC0102C005900D924150F9
:1056B0005040D8F70895FC014150504030F001901F
:1056C0000616D1F73197CF010895882799270895B5
:1056D000F999FECF92BD81BDF89A992780B50895BA
:1056E000A6E1B0E044E050E00C94A22BA8E1B0E0C9
:1056F00042E050E00C94A22B262FF999FECF92BDE8
:1057000081BDF89A019700B4021639F01FBA20BD86
:105710000FB6F894FA9AF99A0FBE08950396272FB8
:105720000E947D2B0E947C2B252F0E947D2B242FF5
:105730000C947D2B0196272F0E947D2B0C947C2BA3
:10574000DC01CB01FC01F999FECF06C0F2BDE1BD41
:10575000F89A319600B40D9241505040B8F7089530
:10576000052E97FB1EF400940E94C72B57FD07D00F
:105770000E94E22B07FC03D04EF40C94C72B5095EB
:105780004095309521953F4F4F4F5F4F089590952D
:105790008095709561957F4F8F4F9F4F08950E9420
:1057A000042CA59F900DB49F900DA49F800D911D7A
:1057B00011240895B7FF0C94CF2B0E94CF2B821B8E
:1057C000930B0895A1E21A2EAA1BBB1BFD010DC06D
:1057D000AA1FBB1FEE1FFF1FA217B307E407F507A1
:1057E00020F0A21BB30BE40BF50B661F771F881F7D
:1057F000991F1A9469F760957095809590959B0113
:10580000AC01BD01CF010895A29FB001B39FC001BB
:10581000A39F700D811D1124911DB29F700D811DDC
:0A5820001124911D0895F894FFCFA4
:10582A00010000000102001200121201191A1B1CC9
:10583A001D1E1F202122D802DB232824DE23242434
:10584A0012240103000400E200E900EA00B500B6F0
:10585A0000B700CD008301CC008A01920194012196
:10586A0002230224022502260227022A02B300B4D6
:10587A00006F007000818283929366679734353691
:10588A00F7F6F5F4F1F03031323337909100010236
:10589A000202020606060909090909090F0F0F0F74
:1058AA000F0F15151518191919191919191919197F
:1058BA002324252525252525E200E900EA00B5004F
:1058CA00B600B700CD008301CC008A019201940191
:1058DA002102230224022502260227022A02B300F9
:0A58EA00B4006F007000818283009B
:00000001FF
