:100000000C94A7030C94C4030C94C4030C94C40371
:100010000C94C4030C94C4030C94C4030C94C40344
:100020000C94C4030C94C4030C94E42A0C94B62BD3
:100030000C94A9210C94C4030C94C4030C94C40321
:100040000C94C4030C94C4030C94C4030C94C40314
:100050000C94C4030C94F6210C94C4030C94C403B4
:100060000C94C4030C94C4030C94C4030C94C403F4
:100070000C94C4030C94C4030C94C4030C94C403E4
:100080000C94C4030C94C4030C94C4030C94C403D4
:100090000C94C4030C94C4030C94C4030C94C403C4
:1000A0000C94C4030C94C4030C94C403FD0F0010FF
:1000B00008100D10121017101C10211026102B10F4
:1000C0003010351037103A103D10401043104610D4
:1000D00048104D10C716C716F916F91646176417BB
:1000E000BC18BC18A6173B184C184C18AC18BC18F8
:1000F000BC18B5185F195F19711971196819711950
:10010000711971195F195F196D19711971196D19CB
:10011000232C4A2C422D4A2C422D962CB92C422DB0
:10012000102D1F2D400136012C0100000701D5FFC5
:10013000FFFF0000000005012BFFFFFF0000000093
:10014000060180FFFFFF0000000029003A003B008D
:100150003C003D003E003F004000410042004300A3
:10016000440045004C0035001E001F002000210007
:100170002200230024002500260027002D002E0049
:100180002A0031002B0014001A0008001500170087
:100190001C0018000C00120013002F00300011503A
:1001A000390004001600070009000A000B000D00CA
:1001B0000E000F003300340028000254E1001D003F
:1001C0001B00060019000500110010003600370062
:1001D0003800E5004600E300E0004A004B004D0017
:1001E0002C00000000002C00500052004F00E400E2
:1001F000E6000000000000004E000000E200E10008
:10020000E5002A000000510000000000000001008D
:1002100001000100010001000100010001000100D6
:100220000100010001000100010000800180028046
:100230005F00600061000380010001000100010017
:100240000100010001000100010004805C005D006C
:100250005E000580010001000100010001000100B5
:10026000010001000100560059005A005B005400D3
:100270000100010001000100010001000100010076
:100280000100570006806300620055000100010074
:100290000100010001000100010001000100010056
:1002A0000100010001000000000001000100010048
:1002B000010001000100000000000000010000003A
:1002C0002A005800010001000000010000000000A9
:1002D00000004C0045004400430042004100400043
:1002E00001000100010001004700480049002A0008
:1002F0002E002D002700260025002400010001000B
:100300000100010001000100010030002F00130076
:1003100012000C0018001C00010001000100010087
:100320000100010001002800340033000F000E001E
:100330000D000B000100010001000100010001009F
:1003400001000100C35C38003700360010001100C6
:10035000010001000100010001000100005CCA5C15
:10036000C95C500052004F00C55C00000000AE00A8
:10037000AC00A900AB006500010000000000000017
:1003800051000000C85CC75CAF00A8000000AA00D4
:1003900000000000000023000000240000002800EE
:1003A000000029000000250000005E0000002C0075
:1003B000000032190A00047F3F1F643214643214B3
:1003C000783C1E1E140A052223252628292A2C2DB6
:1003D0002F3032333536383A3B3D3E404243454775
:1003E000494A4C4E5051535557595A5C5E606264AD
:1003F0006668696B6D6F71737577797B7D7F8183BB
:100400008587898A8C8E90929496989A9C9E9FA1BB
:10041000A3A5A7A8AAACAEAFB1B3B4B6B8B9BBBCDC
:10042000BEBFC1C2C3C5C6C7C9CACBCCCDCED0D151
:10043000D2D2D3D4D5D6D7D7D8D9D9DADADBDBDB49
:10044000DCDCDCDCDCDDDDDDDDDCDCDCDCDCDBDBEA
:10045000DBDADAD9D9D8D7D7D6D5D4D3D2D2D1D03E
:10046000CECDCCCBCAC9C7C6C5C3C2C1BFBEBCBB3B
:10047000B9B8B6B4B3B1AFAEACAAA8A7A5A3A19FB3
:100480009E9C9A98969492908E8C8A898785838177
:100490007F7D7B79777573716F6D6B696866646258
:1004A000605E5C5A5957555351504E4C4A49474526
:1004B0004342403E3D3B3A3836353332302F2D2CC7
:1004C0002A292826252322FFAA7F55400001010161
:1004D0000101010101010202020202020202020301
:1004E00003030303030303040404040404040505D1
:1004F0000505050606060606070707070708080894
:1005000008090909090A0A0A0B0B0B0C0C0C0D0D42
:100510000D0E0E0E0F0F0F101011111112121313DA
:100520001414151516161717181819191A1A1B1B53
:100530001C1D1D1E1E1F20202122222324242526AF
:1005400026272829292A2B2C2D2D2E2F30313232E7
:10055000333435363738393A3B3C3D3E3F404142F3
:10056000434445464748494A4C4D4E4F50515354D9
:10057000555658595A5B5D5E5F616264656668698D
:100580006B6C6D6F7072737577787A7B7D7E80820D
:10059000838587888A8C8E8F91939596989A9C9E56
:1005A000A0A2A3A5A7A9ABADAFB1B3B5B7BABCBE66
:1005B000C0C2C4C6C9CBCDCFD1D4D6D8DBDDDFE233
:1005C000E4E7E9EBEEF0F3F5F8FAFDFF04033000A1
:1005D00000000E03670072006900640038003800F4
:1005E00000001C037100690061006E006C00610076
:1005F0006E00670020006300680065006E00000068
:100600000403090409023B00020100A0FA090400E6
:10061000000103010100092111010001224000072E
:1006200005810308000A0904010001030000000914
:10063000211101000122BC000705820320000A12DB
:1006400001100100000008EDFE010001000102039D
:100650000105010902A10185020901A1000509198D
:100660000129051500250195057501810295017582
:100670000381010501093009311581257F95027536
:1006800008810609381581257F95017508810605C1
:100690000C0A38021581257F950175088106C0C0B6
:1006A00005010980A101850319012AB7001501265A
:1006B000B700950175108100C0050C0901A10185E5
:1006C0000419012AA002150126A0029501751081C6
:1006D00000C005010906A1018505050719E029E704
:1006E000150025019508750181020507190029EFFC
:1006F0001500250195F075018102050819012905EC
:10070000950575019102950175039101C0050109D7
:1007100006A101050719E029E715002501950875CF
:100720000181029501750881010507190029FF154E
:100730000026FF00950675088100050819012905A6
:10074000950575019102950175039101C000112471
:100750001FBECFEFDAE0DEBFCDBF11E0A0E0B1E019
:10076000EAEBFDE502C005900D92AE3CB107D9F76A
:1007700023E0AEECB1E001C01D92AF3CB207E1F75F
:100780000E9413280C94DB2E0C940000813120E58C
:10079000920721F081159C45D9F025C04091EB02CC
:1007A0005091EC026091ED027091EE02427055277B
:1007B0006627772780914B0390E0A0E0B0E04817D0
:1007C00059076A077B0779F483E50E9474160BC00A
:1007D000FB018281882339F00E942E1F91E0823232
:1007E00019F090E001C091E0892F089584E291E032
:1007F00090934D0280934C020895CF92DF92EF9236
:10080000FF926B017C0141E00E948E1D682F81E008
:100810000E94040F42E0C701B6010E948E1D682F9E
:1008200082E00E94040FC701B601FF90EF90DF90B5
:10083000CF90089581FB662760F980E00E94040F45
:1008400081E008959C013A9521153F4138F5DC017E
:10085000AA27B270AC01442754709C01222738703B
:1008600094FF0FC090FF02C080E101C080E0AB2B7D
:1008700009F08062452B09F08064232B69F08068C1
:100880000BC0892F8170AB2B09F08260452B09F0DA
:100890008460232B09F08860FB0109940895CF93AD
:1008A000DF93EC01805E9109089710F0209719F40E
:1008B00067E876E102C065E279E1CE010E94220498
:1008C0008C2FDF91CF910C946215CF93DF93EC01C5
:1008D0000E940C16CE01805E9109089710F02097B7
:1008E00019F46EE876E102C06CE279E1CE01DF91A5
:1008F000CF910C942204CF93DF93EC010E944F041C
:10090000CE01DF91CF910C94650481E008950C94A1
:10091000C60308950C9489041F93CF93DF9300D0EE
:1009200000D01F92CDB7DEB749835A836B833091D5
:10093000710289819A81311114C0662359F02223F2
:1009400049F00E94AD1E182F682F89819A810E945C
:10095000561E03C00E94811E182F69817A81812F43
:1009600004C00E94AD1E69817A810F900F900F9094
:100970000F900F90DF91CF911F910C945805FC01BF
:10098000262F408151816281738184810C948C0473
:10099000CF93DF93EC0160E00E94BF04BE01DF91C2
:1009A000CF910C948A040E94E21F811102C00E9420
:1009B0008C200E9417110C9477070C947307282F32
:1009C0002F7041F0822F90E02A3010F44D96089558
:1009D0000697089587E290E0089508950C94ED0439
:1009E0000C941A04CF93C82F0E94EE048C2F0E94FF
:1009F000F004CF91089508950E944D190E94FB04C0
:100A00002FEF84E39CE0215080409040E1F700C04C
:100A100000000C941C220F931F93CF93DF93EC01E3
:100A200061E00E94BF048C01BE010E9487048823FC
:100A3000A9F1BE01C8010E94C411882379F1BE0149
:100A4000C8010E945612882349F1BE01C8010E94C4
:100A50009712882319F1BE01C8010E94C21388238E
:100A6000E9F0BE01C8010E94E60F8823B9F08A812F
:100A7000882369F001158CE5180731F00E3D1C45FF
:100A800031F40E948C200AC00E94FC0407C0CE01F1
:100A9000DF91CF911F910F910C94850480E0DF913D
:100AA000CF911F910F91089580E090E008950895EF
:100AB00022E6829FC0011124FC012EE0729FE00D0E
:100AC000F11D1124E60FF11DEE0FFF1FE65BFE4F37
:100AD000859194910895880F991FFC01EE54FC4F65
:100AE000859194910895CF93DF930E9458050E94B9
:100AF0008B06EC018115904508F041C0C11580E4DA
:100B0000D80708F0D1C0C83ED10510F5C03ED105C8
:100B100008F0FDC0C83AD10578F4C53AD10508F00F
:100B2000A2C0C130D10509F4F2C008F4EEC0C4304F
:100B3000D10508F0ECC0E9C0CF3BD10508F49BC05B
:100B4000C03CD10508F4E1C0CE01805C91099EC093
:100B5000C11590E2D90758F4C11521E0D20708F079
:100B6000D6C0C03FD10508F4D0C0D065D0C0C115F3
:100B700080E3D80708F08EC0CE019F7087C0C115F2
:100B800095E5D90708F043C0C11524E5D20708F060
:100B9000A2C0C11582E5D80708F5C11591E5D907AE
:100BA00008F085C0CE0174E0969587957A95E1F7B7
:100BB00083709C2F937021E030E002C0220F331F1E
:100BC0009A95E2F73C68382BCF70C695C69580E2BF
:100BD000C89FE0011124C22BD32B99C09E01237022
:100BE00033278C2F86958695C115D34508F064C0B0
:100BF000C1E0D0E002C0CC0FDD1F2A95E2F720E271
:100C0000829FC0011124C82BD92BDC6880C0C1157C
:100C100029E5D207A0F4C11588E5D80708F060C01F
:100C2000C11596E5D90708F070C08C2F0E941F07E8
:100C30008F71C82FD0E0DC2FCC27D06268C0C115DF
:100C40002AE5D20708F451C0CE0190568115904292
:100C500008F05BC08D2F8F710E941F07DD27D062C7
:100C60008F71D82B54C0C55AD0E0C75ADE4FC88107
:100C7000D0E0D0644CC0C85AD0E0CC0FDD1FC55DB9
:100C8000DE4F0990D881C02DD46441C00E946B050D
:100C9000EC013DC0CE019927D3FF03C0EC01D86C15
:100CA00036C0EC01D06C33C0DF70D06A30C0DC2FAE
:100CB000CC27C16FD06A2BC0C1E0D0E002C0CC0FFE
:100CC000DD1F2A95E2F720E2829FC0011124C82B84
:100CD000D92BDA681CC0DC2FCC27C46FD06A17C0B0
:100CE000DC2FCC27C06FD06A12C08C2F8F700E946F
:100CF0001F0794E0D695C7959A95E1F7CF70D0E09D
:100D0000DC2FCC27D069C82B02C0C0E0D0E0CE01D8
:100D1000DF91CF9108958238910569F1B0F4813364
:100D2000910509F46DC048F48932910509F463C056
:100D30008A32910509F469C008958533910509F453
:100D400055C089339105B9F00895833E910569F145
:100D500038F4803E9105B1F0823E910509F1089585
:100D6000863E9105A9F1873E9105B9F1843E910532
:100D700009F064C023C02091C00320FD4FC021FDB5
:100D80004DC008958091C00380FD44C08091C1038F
:100D900080FF44C08091C00384FD42C083EE4DC0FB
:100DA0008091C00382FF38C0F5CF8091C00382FDDF
:100DB00033C08091C10380FD31C0ECCF8091C1036D
:100DC00081FF32C08091C00384FD2AC087EE35C008
:100DD0008091C00383FF26C0F5CF8091C00383FDBF
:100DE00021C08091C10381FD1FC0ECCF8091C00361
:100DF00085FD1CC01DC08091C00385FD19C016C0B3
:100E00008091C00386FD16C017C08091C00386FD87
:100E100013C010C089E311C082EE0FC080EE0DC078
:100E200080E00BC086EE09C084EE07C089E205C0F1
:100E300085E303C08AE201C081E390E008959091C8
:100E4000C00392FF0DC0282F2871283019F4877F26
:100E5000846006C0282F2471243011F48B7F8860B1
:100E600093FF0DC0282F2871283119F4877E8461E3
:100E700006C0282F2471243111F48B7E88612091C3
:100E8000C10320FF0DC0382F3871383019F4877F27
:100E9000816006C0382F3171313011F48E7F886047
:100EA00021FF0DC0282F2871283119F4877E816118
:100EB00006C0282F2171213111F48E7E886194FDA6
:100EC000877E0895E82FF0E0EE0FFF1FE65AFC4FF3
:100ED000808191810895089580EA8A95F1F70895B7
:100EE00008950C9470070C9471070C9470070C947F
:100EF0007507CF93DF93AAE6B1E041E751E061E0E7
:100F000070E08D91E82FE295EF70F0E021A18F70F5
:100F1000EB0102C0CC0FDD1F8A95E2F7CE019C2FBA
:100F20009095922391A392A1892B82A34A175B07E4
:100F300041F7ACE5B1E04AE651E061E070E08D9147
:100F4000E82FE295EF70F0E021A18F70EB0102C075
:100F5000CC0FDD1F8A95E2F7CE019C2F909592234E
:100F600091A392A1892B82A34A175B0741F7ECE476
:100F7000F3E0AAE5B3E08AE593E0119211921D92A5
:100F80001D928E179F07C9F787E00E946808DF91BE
:100F9000CF910C94D3042F923F924F925F926F9215
:100FA0007F928F929F92AF92BF92CF92DF92EF92F9
:100FB000FF920F931F93CF93DF938AE6C82E81E0B1
:100FC000D82E0CE413E09AE5492E93E0592E312CEB
:100FD00088248394912C5801D8016D907C901197AE
:100FE0001D921C92F60181916F01C82FC295CF709E
:100FF000D0E099A18F70740101C0EE0C8A95EAF7D8
:10100000892F8E2989A38AA12E2C209482218AA33C
:101010000E946C07ECE5F1E020E030E06191A62F42
:10102000A295AF70B0E090968C91D8014D915C91F3
:1010300090E06F7002C0959587956A95E2F780FD04
:1010400008C0C401022E02C0880F991F0A94E2F75B
:1010500002C080E090E0482B592BD8014D935C935F
:101060002F5F3F4F2E303105C9F689A1282229A2D2
:101070008AA1E82AEAA20E5F1F4F81E0F5012081D4
:1010800031812615370509F480E0382A40165106CB
:1010900009F0A1CF232D47E06AE573E08CE493E0EB
:1010A0000E9469080E94DD04832DDF91CF911F917A
:1010B0000F91FF90EF90DF90CF90BF90AF909F90F7
:1010C0008F907F906F905F904F903F902F900895FA
:1010D0000895FF920F931F93CF93DF93F82E092F5C
:1010E000162FD72FC42F222349F081E08093D001FF
:1010F0000E94DB219093CF018093CE018091D0019B
:101100008823D9F08091CE019091CF010E94E721F0
:10111000499798F0EF2DF02FA12FBD2F80E090E0A0
:101120004C2F50E08417950734F4219131912D9381
:101130003D930196F7CF1092D001DF91CF911F918F
:101140000F91FF900895EF92FF920F931F93CF930B
:10115000DF93F62E472FE82FF0E0711106C0E4531D
:10116000FB4F6491762F862F72C0272F30E0E45317
:10117000FB4FE4910E2F10E056E0659FC001112453
:10118000CFEFD0E0BE010E94902D5BEA5603C00174
:10119000579F900D11248F0D911D8F0D911D982F2C
:1011A000990F890F7E01E21AF30AE09ED001E19EB9
:1011B000B00DF09EB00D1124489FA0011124452FC1
:1011C00055277E01E41AF50AE09EA001E19E500D2C
:1011D000F09E500D11247E01E81AF108E29EC00134
:1011E000E39E900DF29E900D1124892F9927C81B24
:1011F000D90BC09FC001C19F900DD09F900D1124AD
:101200006230710591F048F461157105E1F06130CB
:101210007105A9F48B2F752F19C06430710561F029
:1012200038F06630710579F00AC0892F7B2F0EC027
:101230008E2F7B2FE52F0AC08E2F792F02C0852F8E
:101240007E2FEB2F03C08B2F7E2FE92F6E2FDF9188
:10125000CF911F910F91FF90EF9008950895CF9334
:10126000DF93762FE901682F842F0E94A3087983EA
:1012700068838A83DF91CF910895453508F044E56E
:101280000C942F0980916803282F269530E02115B2
:10129000310519F48170826005C02B32310524F0CC
:1012A000817084658093680380916B03853518F0A5
:1012B00084E580936B03089588E090E00C94382EC9
:1012C000CF92DF92EF92FF926B017C010E94420964
:1012D000B701A60188E090E0FF90EF90DF90CF90FB
:1012E0000C94562EE8E6F3E083E0808311828FEFC2
:1012F000828384E5838314826081718182819381FA
:101300000C9460098091680380FF02C0869508955F
:1013100080E0089580916C03833018F48F5F809390
:101320006C03609168037091690380916A039091E6
:101330006B030C94600980916C03882319F0815031
:1013400080936C03609168037091690380916A03D4
:1013500090916B030C94600921E030E001C0220FF2
:101360008A95EAF780915702282381E009F480E00A
:10137000089570E00C9493108F929F92AF92BF9259
:10138000CF92DF92EF92FF920F931F93CF93DF9351
:1013900000D000D01F92CDB7DEB790900701A0908B
:1013A0004C02B0904D02A114B10429F4809168035D
:1013B00080FF68C04AC0812C882D0E94AC09882318
:1013C00009F43BC0F501C590D490C114D10471F368
:1013D00045E050E0B601CE0101960E941A2E098127
:1013E0000F3F59F110E08A819801280F311DC90182
:1013F0002931310514F088E190E07C01EE0CFF1CEE
:101400008E0D9F1D9C0123593C4F7901C801880F07
:10141000991F080F191F03591C4F0E151F0548F47B
:1014200098014D816C818B810E943D090D5F1F4F9A
:10143000F4CF35E0C30ED11CCBCF82E0A80EB11C97
:10144000839428E08212B8CFB1CF8091060133E0B7
:10145000839FC0011124692D83599C4F0E94B909B3
:101460000F900F900F900F900F90DF91CF911F91E1
:101470000F91FF90EF90DF90CF90BF90AF909F9033
:101480008F90089580910801909109018917E8F6DD
:10149000E82FF0E09F01220F331FE20FF31FE35903
:1014A000FC4F1182108212828F5FF0CF90916803FF
:1014B00090FF16C09091080120910901921770F4D5
:1014C000E92FF0E0DF01AA0FBB1FEA0FFB1FE35972
:1014D000FC4F8183608342839F5FF0CF0C94BC09F3
:1014E0000895CF93DF9300D01F92CDB7DEB79091D0
:1014F000680390FF0AC09E012F5F3F4F0E943D0985
:101500004B8169818A810E94560A0F900F900F903B
:10151000DF91CF910895CF93DF93EC01EC81F0E060
:10152000E953FC4F4491E8E6F3E0628181810E9437
:10153000710A8C818F5F8C83DF91CF910895CF9357
:10154000DF93EC01E8E6F3E0438162818C810E9445
:10155000710A8C818F5F8C83DF91CF9108950F93F7
:101560001F93CF93DF9300D01F92CDB7DEB78C01CE
:101570008091D10181110AC09E012F5F3F4F44E548
:101580006FEF0E943D098A818093D101F801848127
:10159000813051F028F0823061F44091D1010AC0CD
:1015A0008091D10140E007C06091D10140E080E02E
:1015B00003C040E080E060E00E94560AF8018481A8
:1015C00090E0019663E070E00E94A42D84830F9068
:1015D0000F900F90DF91CF911F910F910895AF92CF
:1015E000BF92CF92DF92EF92FF920F931F93CF9310
:1015F000DF9300D01F92CDB7DEB7182FF62E042F41
:10160000E22E9091680390FF6DC0E92FE695AE2F12
:10161000B0E0AF58BE4F8C91809355029E7F9230C0
:1016200061F49E012F5F3F4F812F0E943D094B8146
:1016300069818A810E94560A43C0823019F4009160
:101640006B033EC0863019F41091690339C08930AC
:10165000D9F38931A9F5E9518E2F8170D82EE695FD
:10166000F0E0E953FB4FA590B490C12CBB246091EE
:101670000A01C61618F52C2D30E0A29EC001A39ECB
:10168000900DB29E900D112470E00E94902D812F3C
:10169000D11002C0860F01C0861B90910801290F4E
:1016A000311DA901440F551F240F351F23593C4FED
:1016B000402F6F2D0E943D09C394D9CF0E94BC09D1
:1016C00010936903F0926A0300936B03EE2051F0CC
:1016D000609168037091690380916A0390916B0334
:1016E0000E9460090F900F900F90DF91CF911F9192
:1016F0000F91FF90EF90DF90CF90BF90AF90089543
:10170000E8E6F3E09181282F4381628180E1890F2F
:101710000C94EF0A81E00C94800BE8E6F3E09181F1
:10172000282F4381628180EF890F0C94EF0A81E0BA
:101730000C948D0BE8E6F3E0628120E2620F08F47E
:101740006FEF282F438181810C94EF0A81E00C9484
:101750009A0BE8E6F3E0628120E2621B08F460E0A5
:10176000282F438181810C94EF0A81E00C94A90B0E
:10177000E8E6F3E0438125E1420F08F44FEF282F1C
:10178000628181810C94EF0A81E00C94B80BE8E649
:10179000F3E0438125E1421B08F440E0282F6281F9
:1017A00081810C94EF0A81E00C94C70B20E00C942B
:1017B000EF0AFF920F931F93CF93DF93EC01F12C6D
:1017C0000FEF10E060910A01F616F0F48091080125
:1017D0002F2D30E0280F311DC901880F991F280FC8
:1017E000391F23593C4F70E0C8010E94A42D962F49
:1017F0008C8140916B0360916A03F99E800D1124E6
:101800000E943D09F394DECF0E94BC099A818C812D
:1018100090FF02C08F5F01C081508C83DF91CF9118
:101820001F910F91FF900895AF92BF92CF92DF92D8
:10183000EF92FF920F931F93CF93DF93FC0182816E
:1018400080FF02C00FEF01C001E010E048E1A42ECC
:1018500080910A01181708F043C080910801C12E39
:10186000D12CE601C80FD11DCE01880F991FC80FDA
:10187000D91FC359DC4F198218821A8234E0E32E33
:10188000F12CB12C8091D3018B0D89312CF06A2D74
:101890000E94822D892F05C087FF03C090910A0105
:1018A000890F082E000C990BC816D90691F4809167
:1018B0006B038E9DA0018F9D500D1124559547956A
:1018C000559547959E0160916A03809169030E9436
:1018D0003D09B00EF1E0EF1AF108A1F61F5FB8CF95
:1018E0000E94BC098091D301013031F4811102C002
:1018F00080910A01815007C090E0019660910A0131
:1019000070E00E94A42D8093D301DF91CF911F91AD
:101910000F91FF90EF90DF90CF90BF90AF90089520
:10192000CF938091080190910901891770F4E82FF5
:10193000F0E09F01220F331FE20FF31FE359FC4F2A
:101940001182108212828F5FF0CFC0E060910A0195
:10195000C617C0F5EC2FF0E070E0CF010E94A42D77
:1019600020910801820F2091D201022E000C330B2E
:1019700090E0E217F307CCF020910501022E000C55
:10198000330B2E173F078CF09C01220F331F820F61
:10199000931F9C0123593C4F40916B0360916A0354
:1019A000809169030E943D090BC0FC01EE0FFF1FEF
:1019B0008E0F9F1FFC01E359FC4F1182108212828F
:1019C000CF5FC4CF0E94BC09209104018091D20155
:1019D000820F8093D20190910501920F909305019F
:1019E00019165CF4082E000C990B40910A0150E086
:1019F00041505109841795071CF02195209304014B
:101A0000CF9108950F931F93CF93DF938C01FC0127
:101A10008481958101968170992795838483C0E0A4
:101A2000D5E580910A01C81700F5809108012C2F97
:101A300030E0280F311DC901880F991F280F391F69
:101A400023593C4F4C2F4695F80184819581840F92
:101A5000911D817040916B0360916A038D9F802D71
:101A600011240E943D09CF5FDCCFDF91CF911F9100
:101A70000F910C94BC090F931F93CF93DF93EC014C
:101A800000E010E080910A01282F30E002171307D0
:101A900024F5909108019801290F311DA901440FE7
:101AA000551F240F351F23593C4F869590E04C81DC
:101AB000081719071CF4442331F002C0411103C078
:101AC00040916B0301C040E060916A03809169031B
:101AD0000E943D090F5F1F4FD5CF0E94BC098C812A
:101AE00090E00196817099278C83DF91CF911F91AF
:101AF0000F9108958F929F92AF92BF92CF92DF92F3
:101B0000EF92FF920F931F93CF93DF93FC01B2806C
:101B1000948081E0848300E015E05BE4A52E8824B6
:101B20008394EE24EA94F12C7BE4C72ED12C80918F
:101B30000A01081708F08FC0C02FD0E01C9FF001E9
:101B40001D9FF00D1124EC52FE4F911003C0138223
:101B5000128267C02381222389F12150238334819B
:101B6000332319F09A2D921B01C0922F80916B03A1
:101B70001C9FF0011D9FF00D1124EC52FE4F899F18
:101B8000C0011124B6010E94902D6283211104C06E
:101B9000332311F01482A38222E02B1508F441C0F4
:101BA0001C9FF0011D9FF00D1124EC52FE4F8091FF
:101BB0006903808380916A03818333C00E940A2E67
:101BC0008230914074F582E08B1530F40E940A2E29
:101BD000B7010E94A42D02C0809169031C9FF001EF
:101BE0001D9FF00D1124EC52FE4F808322E02B1537
:101BF00058F40E940A2E20916A032695622F70E005
:101C00000E94A42D820F02C080916A031C9FF001E4
:101C10001D9FF00D1124EC52FE4F81831282A3828E
:101C20008482809108019E01280F311DC901880F0F
:101C3000991F280F391F23593C4F1C9FF0011D9FEE
:101C4000F00D1124EC52FE4F4281618180810E948F
:101C50003D090F5F6CCFDF91CF911F910F91FF90E6
:101C6000EF90DF90CF90BF90AF909F908F900C94AB
:101C7000BC09E8E6F3E080818E7F8083608171811A
:101C8000828193810E946009109256022FEF80E7B3
:101C900092E0215080409040E1F700C000000C9499
:101CA000BC0960916803669570E04BE050E08BE002
:101CB00091E00E94232E892B19F481E08093560233
:101CC0000E94DB2190934F0280934E0208959091E1
:101CD000680390FF35C09170811102C0926006C008
:101CE0008B3210F0946502C0880F982B9093680394
:101CF000662351F0609168037091690380916A03D3
:101D000090916B030E94600960916803669570E092
:101D10004BE050E08BE091E00E94232E892B19F0DC
:101D20001092560202C00E94510E81E0809351022F
:101D300040916B0360916A03809169030C94D60B08
:101D40000895682F90916803969581E0890F8B32F2
:101D500008F081E00C94670E81E00C94A10E682FCE
:101D60009091680396958FEF890F09F48AE20C949D
:101D7000670E81E00C94AF0E61E00C94670EE8E60C
:101D8000F3E080818160808386950C94BC0E809105
:101D9000680380FD0C94390E0C94BF0E60E00C9427
:101DA000670E8091540281112EC00E94E21F8111A2
:101DB00004C00E948C200E9472090E945C096093FA
:101DC00068037093690380936A0390936B036E7F3B
:101DD00061F40E9472090E945C0960936803709329
:101DE000690380936A0390936B030E9442091092E7
:101DF00056028091680380FF03C086950E94CE0E34
:101E000081E080935402089521E030E0A90102C0EE
:101E1000440F551F8A95E2F7CA01209157026623A5
:101E200011F0822B02C0809582238093570280910B
:101E30005602811105C08091680386950C94CE0EE0
:101E400008950F931F93CF93DF93809156028823B9
:101E500009F49CC080915502E0916803E695E81B67
:101E6000E0935002823049F4F0E0ED53FC4FE491EE
:101E7000CE2FD0E00BE81AE059C0863049F4F0E0EC
:101E8000E054FC4FE491CE2FD0E00FE91AE04EC0B1
:101E9000893051F4E695F0E0E354FC4FE491CE2F05
:101EA000D0E009ED1BE042C08F3051F4E695F0E040
:101EB000E654FC4FE491CE2FD0E004E11CE036C0A4
:101EC000853149F4F0E0E954FC4FE491CE2FD0E0A5
:101ED00000E91CE02BC08831D9F0833239F4E5EBFE
:101EE000F3E0C591D4910FEA1AE020C08432A9F042
:101EF0008532C1F48E2F63E00E94762DE92FF0E049
:101F0000EE54FC4FE491CE2FD0E00AE71DE00EC066
:101F1000C8EED3E002E01DE009C0C4EFD1E00BE35E
:101F20001DE004C0C0EDD7E00EE219E0809151023F
:101F3000882389F0109251020E94DB219E01209596
:101F40003095820F931F90934F0280934E02109210
:101F500053021092520280914E0290914F020E94C1
:101F6000E7218C179D0790F0E0914E02F0914F020F
:101F7000CE0FDF1FD0934F02C0934E028EE492E04B
:101F8000F801DF91CF911F910F910994DF91CF91CB
:101F90001F910F910895882311F0FA0101C0FB01F0
:101FA0000994CF93DF93C82FD62F0E9482098C17F4
:101FB00040F00E9482098D1720F4DF91CF910C949C
:101FC000AC0E8C2FDF91CF910C94BC0E0F931F930E
:101FD000CF93FB01C281CC2309F463C08C010E9422
:101FE0002E1F8272F801E25CFC45E431F10508F035
:101FF00059C0EA5AFF4F0C94B82D0E94C70E06C074
:1020000049EB5EE06CEA7EE00E94CB0FC0E04AC084
:102010004CEA5EE069EB7EE0F7CF47E95BE06AE817
:102020007BE0F2CF4AE85BE067E97BE0EDCF45EB90
:102030005BE066EA7BE0E8CF46EA5BE065EB7BE0ED
:10204000E3CF43ED5BE064EC7BE0DECF44EC5BE0B0
:1020500063ED7BE0D9CF4BE959E06AE879E0D4CF72
:102060004AE859E06BE979E0CFCF81E017C065E03D
:1020700082E010C068E086E00DC06EE089E00AC032
:1020800064E18FE007C067E185E104C088E106C034
:1020900062E289E10E94D10FB9CF83E20E94BC0EB7
:1020A000B5CFC1E08C2FCF911F910F9108955AB1F8
:1020B000E42FEF7021E030E001C0220FEA95EAF74B
:1020C000352F322B3AB942954F70E42FF0E032A110
:1020D000422F4095342342A1242B4FB7F894FC01A2
:1020E000CB01880F991F680F791F6E0F7F1FE617AE
:1020F000F70789F0819198E02BB9000000C087FFB5
:102100003BB9880F000000C000C000C03BB900C050
:102110009A9591F7ECCF4FBF87EC90E00197F1F7DC
:1021200000C00000089546E90C9457101F93CF9308
:10213000DF93811520EC9207B8F0EC01D05C809120
:10214000B903827211E009F410E00E94F813869539
:102150008170181729F0CC0FCD2FCC1FDD0BD19536
:10216000CE018F77992701C09058DF91CF911F91B1
:102170000895CF92DF92EF92FF9297FF52C0FB013A
:102180002281222309F44DC07C010E943011C70135
:102190000E949610880F991F880F991FFC01EA561C
:1021A000FC4FC590D590E590F4900E942711C11482
:1021B000D104F1E1EF06F10440F4C114D10491E03F
:1021C000E906F10440F1823019F40E94711129C02E
:1021D000811121C0E1E0EE1AF108D701C60188277C
:1021E0009C7FAF70BB272AE0B695A79597958795FA
:1021F0002A95D1F7BC01CD0178528F4F9F4F0E9495
:102200008511F3E0DF22EE24FF24C701B6017452EA
:102210008F4F9F4F02C0C701B6010E9485110E94D7
:102220005A1181E0FF90EF90DF90CF9008958CE0FD
:1022300090E00E94302E90E0A0E0B0E08093B503E3
:102240009093B603A093B703B093B8030895809119
:10225000B50308956091B5038CE090E00C94442E92
:102260000E942E1F8093B9030E94411F8091B503E5
:10227000813071F048F0823081F08430A1F486EE34
:102280000E94741688E10DC082EE0E9462150BC098
:1022900088E193E00E947B0406C082EE0E946215F2
:1022A00087E50E9474168FE39CE90197F1F700C05F
:1022B000000008958091B503813039F040F08230FC
:1022C00031F0843051F488E206C08CE204C082EE22
:1022D0000E940C1602C00E9474168091B9030C94DF
:1022E0003E1F8091B503813029F040F0823031F0FB
:1022F000843039F489E20E94741603C082EE0E9491
:102300000C168091B9030C943E1FBF92CF92DF92BE
:10231000EF92FF920F931F93CF93DF936B017C019A
:10232000C7E0D0E00CE110E0BB24B394D701C601B4
:10233000002E04C0B695A795979587950A94D2F775
:102340008F7039F4B1100AC00E94DF040E94741625
:1023500005C00E94DF040E947416B12C219704501E
:102360001109CF3F8FEFD80729F0C430D105F4F61B
:10237000B12CDCCFDF91CF911F910F91FF90EF90A7
:10238000DF90CF90BF9008950F931F93CF93DF936B
:10239000EC018B01FB018281882361F00E942E1FDA
:1023A000CE01815E9C458530910520F48093B50374
:1023B0000E942A11B801CE01DF91CF911F910F9198
:1023C0000C94B9100F931F93CF93DF93C62FD42F84
:1023D000122FFC0182818823C9F060935A020E9467
:1023E000DB21909359028093580280E28C0F883051
:1023F00008F057C0C77081E001C0880FCA95EAF79E
:10240000DF91CF911F910F910C94871680915A0202
:10241000681330C080915802909159020E94E721C0
:10242000883C910538F500E20D0FCD17B9F080E238
:102430008C0F883040F4C77081E001C0880FCA95C6
:10244000EAF70E948E16083028F581E09D2F9770DC
:1024500001C0880F9A95EAF70E948716812F0E9483
:1024600074160830F0F4D77081E001C0880FDA9557
:10247000EAF70AC080E28C0F883098F4C77081E0D8
:1024800001C0880FCA95EAF7DF91CF911F910F9194
:102490000C948E16812FDF91CF911F910F910C9488
:1024A0007416DF91CF911F910F9108959C01CB017C
:1024B000233F4CE53407F9F078F4283DFCE53F076D
:1024C000B9F0293D4CE5340711F1273D3C4531F584
:1024D00026E241EE61EE1EC0253FFCE53F0799F084
:1024E00070F0263F3C45D1F427E245EE66EE12C07F
:1024F00027E245EE0EC026E241EE60EE0BC027E279
:1025000045EE64EE07C026E241EE62EE03C028E22B
:1025100041E065EE0E94E21180E00895FC018281B5
:10252000882319F010925A02089581E00895CF93FC
:10253000DF93EC01FB018281882309F41FC1C230C3
:10254000FCE5DF0708F41BC1C6319CE5D90738F06C
:102550009E012A5F3C452930310508F010C10E94D8
:10256000FF1F9093C1038093C003C031ECE5DE07E9
:1025700009F4C3C008F041C0C8308CE5D80709F49D
:102580009AC0F0F4C430ECE5DE0709F487C068F4C3
:10259000C2308CE5D80709F477C0C330DC4509F0B8
:1025A000E3C08091C003826076C0C630ECE5DE07F0
:1025B00009F46EC008F07BC08091C00388606BC0D6
:1025C000CC308CE5D80709F485C068F4CA30ECE556
:1025D000DE0709F474C008F079C00E944D1980919B
:1025E000C003806858C0CE308CE5D80709F476C0A7
:1025F00008F07FC08091C0038BC0CB3FECE5DE07C5
:1026000009F44FC018F5C3318CE5D80709F47DC033
:1026100078F4C131ECE5DE0709F473C0C231DC4562
:1026200009F0A2C00E944D198091C0038F7733C07A
:10263000C5318CE5D80709F472C008F486C0CA3FDA
:10264000DC4509F091C08091C1033EC0CF3FFCE55D
:10265000DF0709F45FC058F4CD3F9CE5D90709F4C2
:1026600044C008F43FC08091C10382602DC0C130D6
:10267000FDE5DF0709F475C008F45DC0C230DD4533
:1026800009F072C080E06EC08091C003816003C019
:102690008091C00380618093C00366C08091C003B5
:1026A00011C08091C10382608093C1035DC080919D
:1026B000C0038062F0CF8091C0038064ECCF809132
:1026C000C00388608460E7CF8160EECF8091C00353
:1026D0008E7FE1CF8091C0038D7FDDCF8091C003DD
:1026E000877FD9CF8091C10318C08091C1038D7FAE
:1026F000DBCF8091C0038F7ECECF8091C0038F7DD2
:10270000CACF8091C0038F7BC6CF8091C003877FE3
:102710008B7FC1CF8091C1038D7F8E7FC5CF80918C
:10272000C00382FB222720F991E0922790FB82F9D7
:1027300090FB83F9B0CF8091C103982F9095917051
:102740008E7F892B90FB81F9AFCF0E944D1980912C
:10275000C00387FB222720F991E0922790FB87F99D
:102760009ACF81E00E948E208091C0039091C10396
:102770000E9410200E944D1980E001C081E0DF918D
:10278000CF910895CF93DF9386319C4541F5EB01BE
:102790000E942E1F982F8A812091160130911701D7
:1027A000882379F09A7A81E009F480E080935B02D3
:1027B000911102C069E201C065E3C9010E942921AB
:1027C0000AC080915B02811102C069E201C065E329
:1027D000C9010E9434210E947F1F80E001C081E076
:1027E000DF91CF91089590936102809360020895E4
:1027F000E0916002F0916102309721F00190F08148
:10280000E02D099480E00895E0916002F09161026A
:10281000309799F020912A01222359F02091C0038A
:1028200027FF07C0DC012C9111962C93119725E00E
:102830002C930280F381E02D09940895E0916002C9
:10284000F0916102309739F022E0DC012C93048092
:10285000F581E02D0994089520915E0230915F0288
:102860002817390771F090935F0280935E02E09120
:102870006002F0916102309721F00680F781E02D2F
:102880000994089520915C0230915D022817390760
:1028900071F090935D0280935C02E0916002F09190
:1028A0006102309721F00084F185E02D09940895AC
:1028B00085B7806885BF85B7806885BF089508950E
:1028C0000C945F140C9460140C945F140C94F60335
:1028D0000E9458140E9464140C94621481E00895BC
:1028E0000C946E140E94D2210E9479070E949A22B1
:1028F0000E94D10E0C9466147F928F929F92AF9299
:10290000BF92CF92DF92EF92FF920F931F93CF93DC
:10291000DF93CDB7DEB72A970FB6F894DEBF0FBEB0
:10292000CDBF0E94CB070E947014811111C08FEFA0
:1029300089838A831B820E94DB218160782F9D839B
:102940008C8349815A816B818D810E942E154FC0E5
:1029500043E6A42E42E0B42E00E010E0702E802F5B
:102960000E9462076C01F501819091905F018826B9
:1029700099268114910431F40F5F1F4F0730110520
:1029800069F7D5CF8091180381FD0E946B0780E025
:10299000EE24E394F12C94012E213F21232B09F105
:1029A0008E837F82CE20DF2081E0CD2809F480E075
:1029B00088870E94DB218160782F9A8789874E81E2
:1029C0005F8168858A850E942E15000F111FF8010E
:1029D000ED59FD4F80819181E826F926F182E08250
:1029E00006C08F5FEE0CFF1C8E30A9F6C5CF0E948B
:1029F000210F0E944E250E94F813909162028917C0
:102A0000C9F00E94F813809362022A960FB6F894D8
:102A1000DEBF0FBECDBFDF91CF911F910F91FF9011
:102A2000EF90DF90CF90BF90AF909F908F907F906E
:102A30000C94F2042A960FB6F894DEBF0FBECDBFF9
:102A4000DF91CF911F910F91FF90EF90DF90CF908A
:102A5000BF90AF909F908F907F900895CF93DF931A
:102A6000CDB7DEB72B970FB6F894DEBF0FBECDBF44
:102A70004F83588769877A878B87DE01119686E0B6
:102A8000FD0111928A95E9F785E0FE0137960190E4
:102A90000D928A95E1F749815A816B817C818D8104
:102AA0009E810E94061C2B960FB6F894DEBF0FBEC7
:102AB000CDBFDF91CF910895FC01808191810E946B
:102AC000EF1E0895CF93882309F4A4C0C82F82383D
:102AD000C1F40E94F81381FD9DC069E38091160145
:102AE000909117010E9429210E947F1F2FEF81EEF4
:102AF00094E0215080409040E1F700C0000069E37D
:102B000019C0833801F50E94F81380FD83C063E586
:102B100080911601909117010E9429210E947F1F28
:102B20002FEF81EE94E0215080409040E1F700C00B
:102B3000000063E580911601909117010E943421F5
:102B4000CF910C947F1F8438C1F40E94F81382FD4A
:102B500061C067E480911601909117010E942921BC
:102B60000E947F1F2FEF81EE94E021508040904023
:102B7000E1F700C0000067E4DDCF8CEF8C0F813AF5
:102B8000D0F46C2F80911601909117010E94A9201A
:102B9000882349F06C2F80911601909117010E94B3
:102BA00034210E947F1F6C2F809116019091170194
:102BB0000E942921C5CF80E28C0F883048F4C7706D
:102BC00081E001C0880FCA95EAF70E94311FB8CF93
:102BD000EBE5EC0FE33040F4F0E0E653FE4F80818C
:102BE00090E0CF910C942C14E8E5EC0FE73150F411
:102BF000F0E0EE0FFF1FE456FE4F80819181CF91F0
:102C00000C944214C03F30F08C2F0E945624CF9178
:102C10000C944325CF910895882309F464C0823829
:102C200079F40E94F81381FF5EC069E38091160178
:102C3000909117010E9429210E947F1F69E310C013
:102C40008338B1F40E94F81380FF4DC063E5809192
:102C50001601909117010E9429210E947F1F63E5B0
:102C600080911601909117010E9434210C947F1FCE
:102C7000843879F40E94F81382FF35C067E48091AC
:102C80001601909117010E9429210E947F1F67E47D
:102C9000E7CF9CEF980F913A10F4682FE1CF90E2C4
:102CA000980F983050F4877091E001C0990F8A9581
:102CB000EAF7892F0E94371FD9CF9BE5980F9330F1
:102CC00020F480E090E00C942C1498E5980F973154
:102CD00020F480E090E00C944214803F20F00E94A9
:102CE000BE240C9443250895CF93C82F0E946215EB
:102CF000C93349F42FEF87EE93E021508040904094
:102D0000E1F700C000008C2FCF910C940C168823A3
:102D100021F00E94311F0C947F1F0895882321F019
:102D20000E94371F0C947F1F0895CF92DF92EF927D
:102D3000FF920F931F93CF93DF937C01062FC72F32
:102D4000FC01158112951F70D281D1110E94511F73
:102D50000E94271F882379F0DD2369F080E2800F2D
:102D6000883048F082E00E94C91F0E94271F91E02E
:102D7000D82ED92601C0D12CCC2EC2948FE0C822E7
:102D80008C2D90E0FC01E659FF4F0C94B82D8C2F50
:102D9000807FCF70882311F0C295C07FDD2399F02A
:102DA000CC2309F4C4C180E2800F883010F00111F7
:102DB00004C08C2F0E94311F03C08C2F0E94441F1F
:102DC0000E947F1FB4C1802F0E940C16CC2309F4EF
:102DD000D3C180E2800F883010F0011104C08C2F25
:102DE0000E94371F03C08C2F0E944A1F0E947F1F22
:102DF000C3C18C2F807FCF70803211F0C295C07F0D
:102E0000002319F00130C9F022C0DD2371F0112335
:102E100041F0113031F40E94641F8C2B0E946C1F12
:102E2000ABC10E94641F8C2B1DC0112319F01130FF
:102E300009F4A2C10E94751F25C0DD2321F01630C0
:102E400008F09AC10EC0153008F096C11BC0DD23F2
:102E500061F0112331F0F701858180FF68C18F7027
:102E600085838C2F0E94871687C1112359F009335F
:102E700009F06EC1FFEF27EE83E0F1502040804063
:102E8000E1F764C18C2F0E948E1676C18C2F869537
:102E90008695837019F0813061F06EC1DD2321F0D9
:102EA000802F9C2F937002C080E090E00E942C1431
:102EB0006BC1DD2321F0802F9C2F937002C080E036
:102EC00090E00E94421460C1DD23F9F0053F51F00B
:102ED000063F71F0043FA9F48091BA039091BB03BF
:102EE00081600BC08091BA039091BB03826005C0E2
:102EF0008091BA039091BB0384609093BB0380934D
:102F0000BA03802F0E9456241EC0053F51F0063F91
:102F100071F0043FA9F48091BA039091BB038E7FB6
:102F20000BC08091BA039091BB038D7F05C0809147
:102F3000BA039091BB038B7F9093BB038093BA033A
:102F4000802F0E94BE240E9443251EC18C2F8370B7
:102F500009F045C0D11114C1402F429546954770E4
:102F6000440F440F602F6F70862F90E0A0E0B0E018
:102F7000042E04C0880F991FAA1FBB1F0A94D2F702
:102F800004FF10C00FE010E020E030E004C0000FAC
:102F9000111F221F331F4A95D2F7009510952095D7
:102FA000309503C000E010E09801C695C695C37047
:102FB000BC01CD01602B712B822B932BC23049F0C9
:102FC00058F4C13019F00E94571DDAC00E94451D07
:102FD000D7C00E94691DD4C00E94431DD1C0DD230B
:102FE00019F08C2F817001C08695882309F4C8C020
:102FF000402F429546954770440F440F602F6F70E5
:10300000862F90E0A0E0B0E0042E04C0880F991F46
:10301000AA1FBB1F0A94D2F704FF10C00FE010E0F4
:1030200020E030E004C0000F111F221F331F4A951B
:10303000D2F7009510952095309503C000E010E080
:103040009801C695C695C370BC01CD01602B712B4C
:10305000822B932BC23049F058F4C13019F00E94F2
:10306000311E8EC00E941F1E8BC00E94431E88C04E
:103070000E947D1D85C0CF70DD2339F08C2F0E940A
:10308000B81D802F0E9487167BC0802F0E948E164D
:103090008C2F0E94D91D74C0023F01F128F4003F1B
:1030A00041F0013FA1F03FC0033FF9F0043F39F187
:1030B0003AC0DD2341F0153008F05EC08C2F8F71CF
:1030C0000E94FE1D59C0163008F056C0F7CFDD2310
:1030D00039F08C2F8F710E94B81D4EC0DD23C9F3CB
:1030E0008C2F8F710E94D91D47C0DD2329F08C2FB2
:1030F0008F710E94A31D40C00E94891D3DC0DD2329
:1031000049F0CF718C2F0E94B81D63E08C2F0E9474
:10311000B41F32C081E00E94C91F123068F182E002
:103120000E94C91F29C0DD2331F0112391F2802FA5
:103130000E94621521C0112399F2093349F49FEFCF
:10314000E7EEF3E09150E040F040E1F700C000000E
:10315000802F0E940C1610C04C2F4F70602FC7019B
:103160000E9454050E94B41C0FC04C2F4F70602F5A
:10317000C7010E94570508C088EF8C0D843020F4E9
:103180000E94F8130E94F204DD20C9F00E94231F60
:1031900080FD15C0F70112820E941D1F0E94B81DFC
:1031A000C7010E9400190E941D1FDF91CF911F913E
:1031B0000F91FF90EF90DF90CF900C94D91DDF918D
:1031C000CF911F910F91FF90EF90DF90CF900895D6
:1031D0000F931F93CF93DF93EC01688179818A81EC
:1031E0000E94FA1E8C010E94551E0E94311DB801DA
:1031F000CE010E949516DF91CF911F910F910895F6
:10320000CF93DF93FC019081818123813481232B33
:1032100031F08F3F31F481E09F3F19F403C081E02A
:1032200001C080E080FD0EC0EF01CF010E940B05C0
:10323000882341F0CE010E94E818CE01DF91CF91A2
:103240000C94C804DF91CF910895882321F00E9447
:10325000441F0C947F1F0895882321F00E944A1F69
:103260000C947F1F08950E94511F0E94611F0E94AD
:103270007F1F0E946D260E94432580E090E00E94FF
:103280002C1480E090E00C944214809116019091EF
:1032900017010E943F210C9433190E94411F0C9486
:1032A0004519E92FE295EF704E2F50E0FA01329761
:1032B000EE30F105B0F4E658FF4F0C94B82D803F86
:1032C00091F018F4883E68F40EC0843F51F40BC0AE
:1032D000883E48F0813F29F406C093FB882780F997
:1032E000089580E0089581E008950E94EF1E0E94F5
:1032F00051190895CF93DF9300D000D01F92CDB71E
:10330000DEB70F900F900F900F900F90DF91CF913D
:103310000895CF93DF9300D000D000D0CDB7DEB7B3
:1033200026960FB6F894DEBF0FBECDBFDF91CF91CA
:1033300008951F93CF93DF93C091720216E080919E
:103340007302C81799F0D0E01C9FF0011D9FF00D8B
:103350001124EC58FD4F4081518162817381848139
:1033600095810E9489192196C770E9CFDF91CF918D
:103370001F9108954091A4025091A5026091A60268
:103380007091A7028091A8029091A9020C948919CA
:103390000F931F93CF93DF938091A90282958F7033
:1033A00009F05DC08091A602882309F458C080917D
:1033B0007202109173026091A4027091A502C091F3
:1033C000A702D091A80291E06F3F09F090E0292F69
:1033D00006E0811709F443C0209721F07F3F21F0D8
:1033E00030E003C031E001C0322F90E030FD34C046
:1033F000089FF001099FF00D1124DF01AC58BD4F6B
:1034000011963C911197371327C03C91361324C075
:1034100012963C91129731111FC013964D915C91F9
:1034200014974C1B5D0B483C5105B0F48091A902E8
:103430008F7080618093A902E758FD4F80818F7063
:103440008061808384EA92E00E940019DF91CF912D
:103450001F910F910C94991901968770BACFDF9143
:10346000CF911F910F9108959F92AF92BF92CF92EB
:10347000DF92EF92FF920F931F93CF93DF93CDB71D
:10348000DEB761970FB6F894DEBF0FBECDBF8C01DB
:1034900085E0F801DE011D9601900D928A95E1F715
:1034A000F80140815181E2809091A4026091A502CF
:1034B0002091A7023091A8022115310531F06F3F0C
:1034C00031F481E09F3F19F403C081E001C080E046
:1034D000F82FF1709F2E80FD46C1F801A380B480C3
:1034E00084EAC82E82E0D82EF090A602F501E21BF5
:1034F000F30BFF2009F4DFC08091A902E83CF1053D
:1035000008F09BC0282F207F09F052C0561313C02B
:10351000491311C0FE2CE1100EC08F7080618093A2
:10352000A9020E94BA19C6010E9400198091A9023D
:10353000F801858358C1AB2831F05F3F31F481E059
:103540004F3F19F403C081E001C080E080FD03C05B
:1035500081E08E2502C080E090E0F82FF170FF2E10
:1035600080FF1CC0809172022091730236E08217A6
:1035700009F417C190E0389FF001399FF00D112434
:10358000EC58FD4F6181561306C06081461303C09D
:103590006281E61203C001968770E9CFFE2CEE200F
:1035A00009F421C18091A90281608093A9025AC0C7
:1035B000561306C0491304C0E11002C0F8019FC0B1
:1035C0004D875E878D859E850E947519882379F1C8
:1035D000EE2069F12091A902822F82958F7090E0F0
:1035E000029774F08091A4029091A50298878F832E
:1035F0001986BB86AA862C87CE0107960E940019E1
:1036000086E0F801A4EAB2E001900D928A95E1F714
:103610000E94C8190E94BA190DC0561729F14D878A
:103620005E878D859E850E94751981112CC0C80109
:103630000E940019FF24F394D6C0282F207F69F739
:103640007A2DB98AA88A6E2D89890E947A1984EA0E
:1036500092E00E94001986E0F60111928A95E9F73E
:103660000E94BA19F12CBFC04913D9CFE110D7CFAE
:10367000F8018583C8010E94001986E0F6011192C5
:103680008A95E9F7B0C0EE2091F22091A902822F2D
:1036900082958F7090E002970CF4B2CF8091A402D3
:1036A0009091A5029A8389831B82BD82AC822E836E
:1036B000CE010196A3CFE83CF10508F047C0FE2CEF
:1036C000EE2009F4B4CF561330C049132EC0209118
:1036D000A90220FD21C0822F82958F70482F50E0D3
:1036E00041155105C9F0F80125834F30510541F0CE
:1036F0008F5F982F9295907F822F8F70892B858373
:10370000C8010E94001986E0F801A4EAB2E0019025
:103710000D928A95E1F742C086E0F801A4EAB2E092
:1037200001900D928A95E1F75EC04D875E878D8589
:103730009E850E947519811163CF8091A9028160D5
:103740008093A902C8010E9400194DC07A2DB98A40
:10375000A88A6E2D89890E947A1986E0F601119255
:103760008A95E9F71BC0EE2009F461CF4D875E878B
:103770008D859E850E947519F82E882309F457CFF0
:1037800086E0F801A4EAB2E001900D928A95E1F793
:1037900084EA92E00E945C150E94C8190E94BA193E
:1037A00022C04D875E878D859E850E94EF1E292F42
:1037B00022952F70223028F49F7039F0811105C0B6
:1037C0000BC0243028F49F7049F4805E883020F0CC
:1037D000C8010E9400199F2CF92C05C0F8019581A1
:1037E000907F99F7F9CF8F2D61960FB6F894DEBFD1
:1037F0000FBECDBFDF91CF911F910F91FF90EF9042
:10380000DF90CF90BF90AF909F9008951F93CF937C
:10381000DF93CDB7DEB72C970FB6F894DEBF0FBE9F
:10382000CDBF4F83588769877A878B879C87CE0166
:1038300007960E94341A8823D1F09F8188852A85B3
:103840003B85232B31F08F3F31F481E09F3F19F40A
:1038500003C081E001C080E080FD47C04F815885F2
:1038600069857A858B859C850E9489193EC086E092
:10387000FE013796DE01119601900D928A95E1F7CF
:10388000FF81E8856A857B856115710531F0EF3F21
:1038900031F481E0FF3F19F403C081E001C080E012
:1038A00080FD23C02091730230E0C901019687702A
:1038B00099274091720250E084179507F1F1F9833E
:1038C000EA837D836C8396E0929FD001939FB00D35
:1038D0001124AC58BD4FFE01319601900D929A957E
:1038E000E1F7809373020E94991916E080917202A9
:1038F00090917302891771F1189FC00111248C589F
:103900009D4F0E94341A882329F1E09172021E9F74
:10391000F0011124EC58FD4F408151816281738187
:10392000848195810E9489198091720290E00196AC
:103930008770992780937202D9CF0E944D191092F7
:10394000730210927202E4EAF2E086E0DF011D9257
:103950008A95E9F72C960FB6F894DEBF0FBECDBF5F
:10396000DF91CF911F910895EF92FF920F931F93D4
:10397000CF93DF938C01892B09F46CC0F12CEE24DA
:10398000E394E8012196F8018491843740F484306F
:1039900008F051C0813081F0823019F15BC0853769
:1039A00009F444C0A8F19CE7980F903708F052C082
:1039B0008F770E940C1641C00E5F1F4FFE0184914D
:1039C00090E2980F983050F48770FE2D01C0FF0FE1
:1039D0008A95EAF78F2F0E94541F14C00E94621527
:1039E0002DC00E5F1F4FFE01849190E2980F98301A
:1039F00060F48770FE2D01C0FF0F8A95EAF78F2FC4
:103A00000E945A1F0E947F1F19C00E940C1616C0E8
:103A10000E5F1F4FFE01C491CC2381F08FE99FE020
:103A20000197F1F700C00000C150F6CF0E5F1F4FA5
:103A3000FE01F49003C00E9462158E018F2D882331
:103A400009F49FCFEFE9FFE03197F1F700C00000E4
:103A50008150F5CFDF91CF911F910F91FF90EF90A3
:103A60000895089508950C94321D0C94331D0E94FE
:103A7000351D6093EF027093F0028093F1029093F2
:103A8000F2020C9433190C94371D0F931F9300917D
:103A9000EF021091F0022091F1023091F202602BBE
:103AA000712B822B932B1F910F910C94371D0F9329
:103AB0001F930091EF021091F0022091F1023091DA
:103AC000F20260237123822393231F910F910C94A0
:103AD000371D0F931F930091EF021091F002209178
:103AE000F1023091F20260277127822793271F91FC
:103AF0000F910C94371D0C94FD030E947B1D609365
:103B0000EB027093EC028093ED029093EE020C9422
:103B1000331960E070E0CB010C947D1D61157105D7
:103B20008105910529F481E0442361F080E0089546
:103B3000DC01CB0104C0B695A795979587954A956A
:103B4000D2F7817008950F931F9341E050E060E039
:103B500070E08A019B0104C0000F111F221F331F58
:103B60008A95D2F7C901B8011F910F910C947D1D60
:103B70000F931F9341E050E060E070E004C0440FF9
:103B8000551F661F771F8A95D2F78091EB0290919F
:103B9000EC02A091ED02B091EE028A019B01082B8C
:103BA000192B2A2B3B2BC901B8011F910F910C94A3
:103BB0007D1D0F931F9341E050E060E070E004C072
:103BC000440F551F661F771F8A95D2F74095509571
:103BD000609570958091EB029091EC02A091ED02BE
:103BE000B091EE028A019B01082319232A233B236B
:103BF000C901B8011F910F910C947D1D0F931F9364
:103C000041E050E060E070E004C0440F551F661FC3
:103C1000771F8A95D2F78091EB029091EC02A091E8
:103C2000ED02B091EE028A019B01082719272A278D
:103C30003B27C901B8011F910F910C947D1D0F9373
:103C40001F930091EB021091EC022091ED02309154
:103C5000EE02602B712B822B932B1F910F910C94F2
:103C60007D1D0F931F930091EB021091EC022091A8
:103C7000ED023091EE0260237123822393231F9182
:103C80000F910C947D1D0F931F930091EB021091E7
:103C9000EC022091ED023091EE026027712782271D
:103CA00093271F910F910C947D1D08952EE0929FF4
:103CB000800D1124E82FE695E695E695877051E092
:103CC00001C0550F8A95EAF785E0E89FF0011124BD
:103CD000E655FD4F20E030E070E04081CB01022E40
:103CE00002C0969587950A94E2F7817081958427A2
:103CF0008523842781932F5F3F4F2530310569F756
:103D000008952EE0929F800D1124682F6695669588
:103D10006695982F977085E0689FB001112440E068
:103D200050E080E0FB01E40FF51FE655FD4F2081D8
:103D300030E0092E02C0369527950A94E2F72170EB
:103D40003327042E01C0220F0A94EAF7822B4F5F1B
:103D50005F4F4530510531F70895BF92CF92DF9202
:103D6000EF92FF920F931F93CF93DF938C01C0903C
:103D7000EB02D090EC02E090ED02F090EE02809128
:103D8000EF029091F002A091F102B091F202C82AE4
:103D9000D92AEA2AFB2ACFE1D0E0D701C6010C2EAE
:103DA00004C0B695A795979587950A94D2F780FD9C
:103DB00004C0219790F7B12C07C0BC2EB8018C2FFE
:103DC0000E9473050197A9F38B2DDF91CF911F916D
:103DD0000F91FF90EF90DF90CF90BF900895CF9319
:103DE000DF93EC010E94AD1EBE010E947305DF91BE
:103DF000CF9108951F93CF93DF93EB0190917102C0
:103E0000992321F0CB010E94EF1E13C0882349F0B3
:103E1000CB010E94AD1E182F682FCE010E94561EA6
:103E200004C0CB010E94811E182FBE01812F0E9469
:103E30007305DF91CF911F9108958091F3028595CD
:103E40008595859508958091F302877008959091E6
:103E5000F302977081E009F480E0089580911703E0
:103E6000089590911703892B8093170308958095E7
:103E70009091170389238093170308958093170364
:103E8000089510921703089590911603892B80933B
:103E90001603089580959091160389238093160345
:103EA000089510921603089590911503892B80931D
:103EB0001503089580959091150389238093150328
:103EC00008951092150308958091F40208950895BD
:103ED0000C94671F0C94681F9091F402981721F0BE
:103EE0008093F4020C946A1F08958091F402882351
:103EF00029F01092F40280E00C946A1F0895E0917A
:103F00001601F0911701809117038083E09116014B
:103F1000F0911701908180911603892B8083E091A5
:103F20001601F0911701908180911503892B8083F0
:103F30008091F402882381F0E0911601F09117013D
:103F40009081892B808380911601909117010E94A6
:103F5000932081110E94751F809116019091170185
:103F60000C9404140C94671F98E0899F900111240D
:103F7000262B2093F3020E94B81D8091F3028595B1
:103F8000859585950C94B21F1092F30280E00C94F5
:103F9000B21F2091F302809582238093F302982F21
:103FA000977079F430E0482F082E000C550B241739
:103FB000350739F08595859585950E94D91D0C9416
:103FC000C41F089580E090E00E943E2E21E08C3EC8
:103FD0009E4F09F020E0822F089582E090E00C943B
:103FE000302E682F82E090E00C94442E83E090E025
:103FF0000C94302E682F83E090E00C94442ECF93E5
:1040000084E090E00E94302EC82F81E290E00E9470
:10401000302E2C2F30E0A901582BCA01CF910895E2
:10402000CF93C92F682F84E090E00E94442E6C2F1C
:1040300081E290E0CF910C94442EAB01BC018FE063
:1040400090E00C94562EAB01BC0183E190E00C94FF
:10405000562E60E070E0CB010C94232060E070E00D
:10406000CB010E941D200C9429206CEE7EEF80E095
:1040700090E00E94622E60E082E090E00E94442E78
:1040800060E083E090E00E94442E1092EF021092D4
:10409000F0021092F1021092F20260E084E090E0EF
:1040A0000E94442E60E081E290E00E94442E60E095
:1040B00085E090E00E94442E60E086E090E00E945F
:1040C000442E6FEF87E090E00E94442E40E050E0E5
:1040D000BA0188E090E00E94562E60E08DE090E00A
:1040E0000E94442E40E050E0BA0188E190E00E9436
:1040F000562E60E087E190E00E94442E40E050E0C0
:10410000BA018CE190E00E94562E60E080E290E0DF
:104110000E94442E0C942E200C943520682F8EE0A3
:1041200090E00C94442EFC01329680912A01882361
:1041300031F08091C00387FF02C09EE101C096E08C
:1041400080E0915028F021912223D9F38F5FF9CF9D
:104150000895662351F120912A012223E9F020914C
:10416000C00327FF19C0462F4695469546954E3108
:10417000E0F4677021E030E002C0220F331F6A953F
:10418000E2F7FC01E40FF11D828190E0282339233E
:1041900081E0232B69F409C0FC0132960896219135
:1041A000621729F0E817F907D1F780E0089581E058
:1041B00008959C01FC0132969FEF80E041914617E3
:1041C00089F09F3F19F4411101C0982F8F5F86300D
:1041D000A9F79F3F39F0F901E90FF11D97FDFA9515
:1041E0006283089508959C012A5F3F4FFC0142813C
:1041F000461301C01282019682179307B9F70895FA
:10420000262F2695269526952E3168F4FC01E20F7F
:10421000F11D677021E030E001C0220F6A95EAF7D6
:104220008281282B22830895262F26952695269570
:104230002E3170F4FC01E20FF11D677021E030E0D7
:1042400001C0220F6A95EAF72095828128232283F4
:10425000089520912A01222329F02091C00327FDEF
:104260000C9400210C94D92020912A01222329F0BA
:104270002091C00327FD0C9414210C94F32020916D
:104280002A01FC013296222331F08091C00387FF7E
:1042900002C08EE101C086E0DF011D928A95E9F738
:1042A000089508950C9451210C945121CF930E94AC
:1042B00054210E94CB070E945221C0E08C2F0E9403
:1042C0006207892B29F4CF5FC730C1F780E001C0B6
:1042D00081E0CF9108950C9451210C946B210E94A0
:1042E0006D218091C603843049F11092190320E4B6
:1042F00088E190E00FB6F894A895809360000FBE17
:104300002093600080E00E94F2040E946D2183B738
:10431000817F846083BF83B7816083BF78948895F1
:1043200083B78E7F83BF0FB6F894A8958091600005
:10433000886180936000109260000FBE08950C9415
:1043400051210E944D190E94F8130E94F2040C940E
:104350009F211F920F920FB60F9211248F939F935C
:10436000AF93BF9380911903811113C08091BC0357
:104370009091BD03A091BE03B091BF034196A11DD2
:10438000B11D8093BC039093BD03A093BE03B09373
:10439000BF03BF91AF919F918F910F900FBE0F9070
:1043A0001F90189582E084BD93E095BD9AEF97BD6C
:1043B00080936E0008952FB7F8948091BC0390917C
:1043C000BD03A091BE03B091BF032FBF08959C0110
:1043D0004FB7F8948091BC039091BD03A091BE03A8
:1043E000B091BF034FBF821B930B089578941F9227
:1043F0000F920FB60F9211248F939F93AF93BF9399
:104400008091BC039091BD03A091BE03B091BF0306
:104410000196A11DB11D8093BC039093BD03A09391
:10442000BE03B093BF03BF91AF919F918F910F9047
:104430000FBE0F901F901895F89481E08093E000D4
:1044400080E28093D800E9ECF0E010828FE19EE4F6
:104450000197F1F700C000001DBA109268001CBC63
:1044600010BE1FBA10927A0010926E0010926F0068
:1044700010927100109272001082ECEBF0E010824A
:1044800014B817B81AB81DB810BA108215B818B8F1
:104490001BB81EB811BA0C94003F0895AF92BF929A
:1044A000CF92DF92EF92FF920F931F93CF93C0E0D2
:1044B000CC24C394D12CE82EF12C8C2F0E946207BF
:1044C0005C0100E010E0C601002E02C0880F991FB9
:1044D0000A94E2F78A219B21892B31F40F5F1F4F49
:1044E0000E30110581F70AC0602F7C2F80E00E94FA
:1044F0005805E816F90691F781E004C0CF5FC73090
:10450000E1F680E0CF911F910F91FF90EF90DF9047
:10451000CF90BF90AF900895CF93C82F8CE20E94A8
:104520004E22882321F08C2FCF910C944E2280E0D4
:10453000CF910895CF930E94E21F811102C00E9483
:104540008C20C5E6C15049F00E94CB078FE39CE95F
:104550000197F1F700C00000F5CF89E20E948C229C
:10456000811120C18AE20E948C2281110E948C203C
:1045700085E00E948C2281110E941C220E94ED1F66
:104580008093180387E00E948C228823A9F18BE195
:104590000E948C22882351F08091180381FB2227EE
:1045A00020F991E0922790FB81F90EC08EE00E94E5
:1045B0008C22882361F08091180382FB222720F946
:1045C00091E0922790FB82F98093180315C080E157
:1045D0000E948C2290911803882341F093FB22279C
:1045E00020F981E0822780FB93F904C0892F809510
:1045F00080FB90F990931803809118030E94F11F9B
:104600000E94FF1F9093C1038093C00380EE0E941D
:104610008C22882341F08091C003982F909590FBC5
:1046200080F98093C00389E30E948C22882359F08B
:104630008091C00381FB222720F991E0922790FB13
:1046400081F98093C00382EE0E948C22882359F066
:104650008091C00382FB222720F991E0922790FBF2
:1046600082F98093C00386EE0E948C22882359F041
:104670008091C00383FB222720F991E0922790FBD1
:1046800083F98093C00383EE0E948C22882359F023
:104690008091C00384FB222720F991E0922790FBB0
:1046A00084F98093C00385E30E948C22882359F00B
:1046B0008091C00385FB222720F991E0922790FB8F
:1046C00085F98093C00381E30E948C22882359F0EE
:1046D0008091C00386FB222720F991E0922790FB6E
:1046E00086F98093C00381E10E948C22882359F0CF
:1046F0008091C00387FB222720F991E0922790FB4D
:1047000087F98093C0038091C0039091C1030E94F8
:10471000102087E20E948C22C82F8EE10E948C22FA
:104720008111C2608FE10E948C228111C46080E2FD
:104730000E948C228111C86081E20E948C2281112A
:10474000C06182E20E948C228111C06283E20E94D9
:104750008C228111C06484E20E948C22882311F093
:10476000C06802C0CC2329F08C2F0E94FA1F6C2F46
:1047700003C00E94F61F682F70E080E090E00E9466
:10478000431D8FE00E948C22882319F081E00E9453
:104790008E2085E10E948C22882321F080E0CF9139
:1047A0000C948E20CF9108958091210380FF0BC03F
:1047B00060911D0185E0689FB00111247595679592
:1047C000759567952BC081FF09C060911D0185E03B
:1047D000689FB00111247595679520C082FF07C0BE
:1047E00060911D0185E0689FB001112417C0909170
:1047F00020039923D1F060911C01961788F720912E
:104800001D0185E0289F90011124929FA001939F94
:10481000500D112470E0CA010E94A42D603871056A
:1048200040F46115710519F406C065E070E0862F4B
:1048300008958FE7089581E008958091210380FF16
:1048400008C06091190170E0759567957595679539
:1048500021C081FF06C06091190170E075956795D0
:1048600019C082FF04C06091190170E010C09091DE
:104870002003992399F0609118019617A0F7809171
:104880001901899FC001112470E00E94A42D603895
:10489000710540F46115710519F406C061E070E01E
:1048A000862F08958FE7089581E00895803F21F4D1
:1048B0000E94D423819504C0813F29F40E94D4230F
:1048C000809325030895823F21F40E94D42381958B
:1048D00004C0833F29F40E94D423809324030895C5
:1048E000893F19F40E941D2405C08A3F31F40E94BB
:1048F0001D2481958093260308958B3F21F40E9407
:104900001D24819504C08C3F29F40E941D248093AE
:1049100027030895843F21F480912303816017C009
:10492000853F21F480912303826011C0863F21F4EA
:104930008091230384600BC0873F21F4809123037F
:10494000886005C0883F31F48091230380618093A3
:10495000230308958D3F21F48091210381600BC0D2
:104960008E3F21F480912103826005C08F3F29F49E
:10497000809121038460809321030895803F39F45E
:104980008091250387FF6CC01092250369C0813F89
:1049900029F4809125031816BCF362C0909124037A
:1049A000823F29F497FF5CC01092240359C0833FD3
:1049B00019F41916CCF354C0893F41F480912603B1
:1049C00018160CF04DC0109226034AC08A3F29F4F5
:1049D0008091260387FF44C0F6CF8B3F39F4809146
:1049E000270387FF3DC0109227033AC08C3F29F46C
:1049F000809127031816BCF333C0843F21F48091C3
:104A000023038E7F17C0853F21F4809123038D7F80
:104A100011C0863F21F4809123038B7F0BC0873F19
:104A200021F480912303877F05C0883F31F4809172
:104A300023038F7E8093230313C08D3F21F4809145
:104A400021038E7F0BC08E3F21F4809121038D7F47
:104A500005C08F3F29F4809121038B7F8093210330
:104A60008091240381110EC08091250381110AC019
:104A700080912603811106C080912703811102C015
:104A800010922003089582E293E00E941E140E9477
:104A9000DB2190931F0380931E030895CF93DF9330
:104AA00000D000D000D0CDB7DEB786E0E2E2F3E080
:104AB000DE01119601900D928A95E1F78091240311
:104AC000811105C080912503882309F47AC0809163
:104AD0001C0390911D030E94E721AC0190912003DB
:104AE000992339F020911E0130E02417350758F042
:104AF00068C020911F018AE0289F9001112424178B
:104B0000350718F05EC09F3F19F09F5F9093200318
:104B1000109226031092270380912403181624F480
:104B20000E94D423809324038091240387FF05C02F
:104B30000E94D42381958093240380912503181625
:104B400024F40E94D423809325038091250387FFBA
:104B500005C00E94D42381958093250330912403BE
:104B60003323E1F0209125032223C1F045EB3403E8
:104B7000C0011124992319F09093240303C081E00C
:104B80008093240335EB2303C0011124992319F0EA
:104B90009093250303C081E0809325030E94432561
:104BA00080911E0390911F0390931D0380931C031B
:104BB00086E0FE013196A2E2B3E001900D928A9563
:104BC000E1F780912603811105C080912703882396
:104BD00009F47AC080911A0390911B030E94E72187
:104BE000AC0190912003992339F020911A0130E013
:104BF0002417350758F068C020911B018AE0289FD0
:104C0000900111242417350718F05EC09F3F19F05A
:104C10009F5F9093200310922403109225038091AC
:104C20002603181624F40E941D24809326038091E5
:104C3000260387FF05C00E941D24819580932603CB
:104C400080912703181624F40E941D2480932703C3
:104C50008091270387FF05C00E941D2481958093C2
:104C60002703309126033323E1F0209127032223E9
:104C7000C1F045EB3403C0011124992319F090933E
:104C8000260303C081E08093260335EB2303C00194
:104C90001124992319F09093270303C081E0809396
:104CA00027030E94432580911E0390911F03909338
:104CB0001B0380931A0386E0FE013196A2E2B3E063
:104CC00001900D928A95E1F726960FB6F894DEBF13
:104CD0000FBECDBFDF91CF910895E2E2F3E086E011
:104CE000DF011D928A95E9F71092200310922103AB
:104CF0000895809148030895CF93DF9300D01F92C9
:104D0000CDB7DEB79091C603943019F589837B83C4
:104D10006A8382E08093E9008FEF9091E8008150F0
:104D200095FD06C095ED9A95F1F700008111F5CF3C
:104D30008091E80085FF0DC040E050E063E070E046
:104D4000CE0101960E94D8288091E8008E7780934A
:104D5000E8000F900F900F90DF91CF910895CF93BF
:104D6000DF93EC010E94BB28823011F0843031F4D3
:104D7000BE0184E0DF91CF910C947C26DF91CF912E
:104D80000895BC0183E00C947C26CF93DF93EC0163
:104D90000E94BB28823011F08430F9F482E08093C5
:104DA000E9008FEF9091E800815095FD06C095EDE8
:104DB0009A95F1F700008111F5CF8091E80085FF09
:104DC0000CC040E050E066E070E0CE010E94D828C0
:104DD0008091E8008E778093E800DF91CF9108956D
:104DE000CF93DF93EC010E94BB28823011F0843016
:104DF000D9F580912A01882339F08091C00387FF7B
:104E000003C060E282E002C068E081E08093E900D4
:104E10008FEF9091E800815095FD06C095ED9A9531
:104E2000F1F700008111F5CF8091E80085FF1CC0EB
:104E300080912A01811105C040E050E068E070E0F7
:104E400003C070E040E050E0CE010E94D82880917D
:104E5000E8008E778093E80080E2FE01A8E2B3E0EC
:104E600001900D928A95E1F7DF91CF91089580919D
:104E7000C503811109C00E94692A0E94C62A809137
:104E8000E20084608093E20008951092C5030895C3
:104E9000089508950C94A12142E061EC81E00E9404
:104EA000E22942E261EC82E00C94E2298091C8039D
:104EB000833009F460C030F4813071F0823009F43D
:104EC00099C008958A3009F485C08B3009F46BC00D
:104ED000893009F0A7C020C08091C703813A09F04A
:104EE000A1C08091E800877F8093E8008091CB0388
:104EF0009091CC03892B21F460E288E293E003C017
:104F000060E080E090E070E00E9423298091E8005A
:104F10008B778093E80008958091C703813209F070
:104F200081C08091CB039091CC03029708F07AC0A6
:104F30008091E800877F8093E8008091E80082FDFF
:104F400005C08091C6038111F8CF6CC02091F30099
:104F50008091F20090E0922B029729F48091F10069
:104F60008B7F813021F48091F10080934803809100
:104F7000E8008B7753C08091C703813A09F052C093
:104F80008091CB039091CC03892B09F04BC0809189
:104F9000E800877F8093E8008091E80080FFFCCFE5
:104FA00080912A0136C08091C7038132D9F5809162
:104FB000CB039091CC03892BA9F58091E800877FE2
:104FC0008093E8000E94172A8091C90380932A01E8
:104FD0000C944D198091C703813221F58091E8002E
:104FE000877F8093E8000E94172A8091CA038093EC
:104FF000490308958091C703813AA1F48091E800A4
:10500000877F8093E8008091E80080FFFCCF80914B
:1050100049038093F1008091E8008E778093E80047
:105020000C94172A089584B7877F84BF0FB6F8942D
:10503000A895809160008861809360001092600064
:105040000FBE90E080E80FB6F894809361009093D3
:1050500061000FBE0E9468140E94692A0E94C62A3D
:105060008091E20084608093E20078940E945B2D3E
:105070000E94721480E291E00E94F3138091C603B3
:10508000853069F40E946F218091C4038823B1F3B5
:105090000E945621882391F30E94C228EFCF0E94DC
:1050A0007C14ECCF0C945428292F3327233031055E
:1050B000C9F060F42130310581F02230310509F06A
:1050C0004AC08BE390E024E036E049C0213231054C
:1050D00011F12232310579F13EC082E190E02FE3F7
:1050E00036E03DC099278130910561F040F0823073
:1050F000910559F0039779F5ECECF5E008C0E0E094
:10510000F6E005C0E2EEF5E002C0E2EDF5E08491E4
:1051100090E09F0124C06115710541F06130710577
:10512000D1F489E090E02FE236E019C089E090E008
:1051300026E136E014C06115710541F0613071055A
:1051400051F48CEB90E021E536E009C080E490E07A
:105150002DE037E004C080E090E020E030E0FA018C
:105160003183208308958091C603843011F081E05B
:10517000089582E0089580914A03811102C00C9441
:10518000B328089580E189BD82E189BD09B400FE9C
:10519000FDCF8091D8008F7D8093D8008091E00072
:1051A00082608093E0008091E00081FDFCCF089553
:1051B000CF92DF92EF92FF920F931F93CF93DF93E3
:1051C000EC018B017A010E94362A811133C0E1146F
:1051D000F10439F0F70180819181081B190BC80F88
:1051E000D91FC12CD12C0115110519F18091E800AE
:1051F00085FD16C08091E8008E778093E800E11469
:10520000F10449F0F70180819181C80ED91ED18245
:10521000C08285E00FC00E94362A882321F30AC08D
:1052200089918093F10001501109FFEFCF1ADF0A35
:10523000DACF80E0DF91CF911F910F91FF90EF9037
:10524000DF90CF9008952091CD033091CE032617A3
:10525000370748F06115710539F42091E8002E7781
:105260002093E80001C0B901FC0120E0611571053F
:1052700079F18091C6038823F1F18530F1F18091B5
:10528000E80083FD3CC08091E80082FD2EC0809143
:10529000E80080FFEBCF2091F3008091F20090E0D6
:1052A000922B6115710551F08830910538F42191E8
:1052B0002093F100615071090196F3CF21E0089726
:1052C00009F020E08091E8008E778093E800CECF4F
:1052D0002111CFCF0AC08091C603882361F08530A9
:1052E00061F08091E80083FD0AC08091E80082FFB0
:1052F000F2CF80E0089582E0089583E0089581E090
:1053000008952091CD033091CE032617370748F03A
:105310006115710539F42091E8002E772093E8009B
:1053200001C0B901FC0120E06115710591F1809186
:10533000C603882309F440C0853009F43FC080913A
:10534000E80083FD3DC08091E80082FD2FC0809180
:10535000E80080FFE9CF2091F3008091F20090E017
:10536000922B6115710559F08830910540F4249114
:105370002093F1003196615071090196F2CF21E03E
:10538000089709F020E08091E8008E778093E8008C
:10539000CBCF2111CCCF0AC08091C603882361F006
:1053A000853061F08091E80083FD0AC08091E800BB
:1053B00082FFF2CF80E0089582E0089583E00895AF
:1053C00081E00895982F973068F59093E900981739
:1053D00039F07091EC002091ED005091F00003C085
:1053E000242F762F50E021FD02C09F5FECCF30913B
:1053F000EB003E7F3093EB003091ED003D7F30932A
:10540000ED003091EB0031603093EB007093EC00D5
:105410002093ED005093F0002091EE0027FDE5CFA2
:1054200080E008958F708093E90081E00895809175
:10543000C70387FF11C08091E80082FD05C08091FD
:10544000C6038111F8CF11C08091E8008B770BC0A3
:105450008091C603882349F08091E80080FFF8CF4F
:105460008091E8008E778093E80008952091E40011
:105470003091E50095E64091EC00842F817040FF6B
:1054800023C08091E80080FD1DC08091C603882361
:1054900099F0853099F08091EB0085FD11C0409125
:1054A000E4005091E5002417350729F3915011F0DD
:1054B0009A01E1CF84E0089582E0089583E00895A1
:1054C00081E0089580E008954091E80042FFDDCF3B
:1054D00008950E94D72A0E94DF2AE0EEF0E0808142
:1054E00081608083E8EDF0E080818F77808319BC54
:1054F000A7EDB0E08C918E7F8C9380818F7E80832E
:105500001092C50308950F931F93CF93DF930E94CA
:10551000D72A0E94DF2AC8EDD0E088818F77888360
:1055200088818068888388818F7D888319BC1092E8
:10553000C6031092C2031092C4031092C30300EE7C
:1055400010E0F80180818B7F80838881816088836F
:1055500042E060E080E00E94E229E1EEF0E080813C
:105560008E7F8083E2EEF0E08081816080838081A5
:1055700088608083F80180818E7F8083888180614C
:105580008883DF91CF911F910F910895E8EDF0E0AE
:1055900080818F7E8083E7EDF0E080818160808371
:1055A00084E082BF81E08093C5030C94832AE8EDF8
:1055B000F0E080818E7F80831092E2000895109247
:1055C000DA001092E10008951F920F920FB60F9229
:1055D00011242F933F934F935F936F937F938F93F8
:1055E0009F93AF93BF93EF93FF938091E10082FF6E
:1055F0000BC08091E20082FF07C08091E1008B7FA9
:105600008093E1000E945A2D8091DA0080FF1FC034
:105610008091D80080FF1BC08091DA008E7F80933C
:10562000DA008091D90080FF0DC080E189BD82E160
:1056300089BD09B400FEFDCF81E08093C6030E94BE
:10564000372705C019BC1092C6030E9445278091D8
:10565000E10080FF19C08091E20080FF15C08091B9
:10566000E2008E7F8093E2008091E200806180936F
:10567000E2008091D80080628093D80019BC85E058
:105680008093C6030E9449278091E10084FF30C0C7
:105690008091E20084FF2CC080E189BD82E189BD58
:1056A00009B400FEFDCF8091D8008F7D8093D80093
:1056B0008091E1008F7E8093E1008091E2008F7EF7
:1056C0008093E2008091E20081608093E20080910B
:1056D000C203882311F084E007C08091E30087FDB6
:1056E00002C081E001C083E08093C6030E944A2784
:1056F0008091E10083FF29C08091E20083FF25C0F3
:105700008091E100877F8093E10082E08093C6036F
:105710001092C2038091E1008E7F8093E10080911E
:10572000E2008E7F8093E2008091E20080618093AE
:10573000E20042E060E080E00E94E2298091F00017
:1057400088608093F0000E944827FF91EF91BF91FD
:10575000AF919F918F917F916F915F914F913F9109
:105760002F910F900FBE0F901F9018951F920F92C0
:105770000FB60F9211242F933F934F935F936F9324
:105780007F938F939F93AF93BF93CF93DF93EF93C9
:10579000FF93C091E900CF708091EC00D82FD170B9
:1057A00080FDD0E81092E9008091F000877F80931F
:1057B000F00078940E94FA2B1092E9008091F0009A
:1057C00088608093F000CD2BCF70C093E900FF91EB
:1057D000EF91DF91CF91BF91AF919F918F917F9189
:1057E0006F915F914F913F912F910F900FBE0F904E
:1057F0001F9018951F93CF93DF93CDB7DEB7AA976D
:105800000FB6F894DEBF0FBECDBFE7ECF3E080919A
:10581000F100819323E0EF3CF207C9F70E9456277D
:105820008091E80083FF2EC18091C7039091C80347
:10583000492F50E04A30510508F024C1FA01E857D9
:10584000FF4F0C94B82D803821F0823809F01AC12E
:1058500008C08091C3039091C403992389F08260AA
:105860000FC08091CB038F70873008F00BC18093FD
:10587000E9008091EB0085FB882780F91092E90010
:105880009091E800977F9093E8008093F100109248
:10589000F100D1C0282F2D7F09F0F4C0882319F022
:1058A000823061F0EFC08091C903813009F0EAC015
:1058B000933009F080E08093C4032EC08091C90327
:1058C00081112AC08091CB038F702FEF280F2630D3
:1058D00008F0D8C08093E9002091EB0020FF1CC0A5
:1058E000933021F48091EB00806214C09091EB0022
:1058F00090619093EB0021E030E0A90102C0440FD9
:10590000551F8A95E2F74093EA001092EA008091D1
:10591000EB0088608093EB001092E9008091E80032
:10592000877F8093E8000E94172AACC08111AAC02B
:105930001091C9031F778091E3008078812B8093B9
:10594000E3008091E800877F8093E8000E94172A97
:105950008091E80080FFFCCF8091E3008068809315
:10596000E300111102C082E001C083E08093C6030E
:1059700089C08058823008F085C08091C903909119
:10598000CA038C3D53E0950779F583E08A838AE268
:1059900089834FB7F894DE01139620E03EE051E290
:1059A000E32FF0E050935700E49120FF03C0E2950D
:1059B000EF703F5FEF708E2F90E0EA3010F0C796E7
:1059C00001C0C0968D939D932F5F243149F74FBF3F
:1059D0008091E800877F8093E8006AE270E0CE0162
:1059E00001960E94232916C06091CB037091CC03CD
:1059F000AE014F5F5F4F0E945228BC01892B09F412
:105A000041C09091E800977F9093E80089819A8146
:105A10000E9481298091E8008B778093E80032C052
:105A2000803881F58091E800877F8093E80080913D
:105A3000C2038093F1008091E8008E7772CF8111CC
:105A400021C08091C9039091CA0399270297D4F489
:105A50008091E800877F8093E8008091C90380935C
:105A6000C2030E94172A8091C203811106C080914F
:105A7000E30087FD02C081E001C084E08093C6039B
:105A80000E944C278091E80083FF0AC08091E800C3
:105A9000877F8093E8008091EB0080628093EB0029
:105AA000AA960FB6F894DEBF0FBECDBFDF91CF919F
:105AB0001F9108950895CF938091C6038823A1F084
:105AC000C091E900CF709091EC00892F817090FD1A
:105AD00080E8C82B1092E9008091E80083FD0E94C5
